:020000040800F2
:10000000E0060020B901000831340008333400084C
:10001000373400083B3400083F340008000000007B
:10002000000000000000000000000000453400084F
:100030004334000800000000473400084934000839
:10004000D3010008D3010008D3010008553400088B
:10005000D3010008D3010008D3010008D301000830
:10006000D3010008D3010008D3010008D301000820
:10007000D3010008D3010008D3010008D301000810
:10008000D3010008D3010008D3010008D301000800
:10009000D3010008D3010008D3010008D3010008F0
:1000A000D3010008D3010008D3010008D3010008E0
:1000B000D30100089F340008D3010008D3010008D1
:1000C000D3010008D3010008D3010008D3010008C0
:1000D000D3010008D301000871340008D3010008DF
:1000E000D3010008D3010008D301000800F002F892
:1000F00000F052F80AA090E8000C82448344AAF170
:100100000107DA4501D100F047F8AFF2090EBAE86D
:100110000F0013F0010F18BFFB1A43F0010318473B
:10012000306A0000506A0000103A24BF78C878C1D5
:10013000FAD8520724BF30C830C144BF04680C60ED
:10014000704700000023002400250026103A28BF35
:1001500078C1FBD8520728BF30C148BF0B60704739
:10016000662905F0B883642903F0AC85752903F08E
:10017000A985732904F01581002070471FB505F08B
:100180009EFB04F01BF904000020002104F062FE35
:10019000E0601FBD10B510BD04F014FA1146FFF762
:1001A000EDFF03F003F804F032FA03B4FFF7F2FFB7
:1001B00003BC04F079FA0000094880470948004769
:1001C000FEE7FEE7FEE7FEE7FEE7FEE7FEE7FEE707
:1001D000FEE7FEE704480549054A064B7047000064
:1001E000C1020008ED000008E0000020E006002049
:1001F000E0020020E002002000210020674A12688F
:1002000042F48032654B1A6000BF644A126802F4FF
:100210000030491C10B9B1F5A06FF6D15F4A1268E1
:1002200012F4003F01D0012000E00020012842D15B
:100230005B4A126842F01002594B1A601A46126863
:1002400022F003021A601A46126842F002021A6093
:10025000524A5268514B5A601A4652685A601A46BE
:10026000526842F480625A601A46526822F47C1244
:100270005A601A46526842F4E8125A601A461268E6
:1002800042F080721A6000BF444A126812F0007F88
:10029000FAD0424A526822F00302404B5A601A4692
:1002A000526842F002025A6000BF3C4A526802F0B3
:1002B0000C02082AF9D1704710B5FFF79DFF10BD59
:1002C00010B53648006840F001003449086008461F
:1002D000406834490840314948600846006832495E
:1002E00008402E4908600846006820F48020086015
:1002F0000846406820F4FE0048604FF41F00886004
:10030000FFF7DAFF4FF000602849086010BD10B514
:10031000002100200022214B5B6803F00C0121B179
:10032000042906D0082928D107E0214B214C23605D
:1003300027E01F4B1F4C236023E0184B5B6803F43E
:100340007010164B5B6803F48032022303EB90407D
:1003500022B9194B4343174C23600DE00F4B5B68E8
:1003600013F4003F04D0144B4343124C236003E0CA
:100370000F4B43430F4C236003E00D4B0D4C2360A8
:1003800000BF00BF054B5B68C3F303130B4CE15C7C
:10039000084B1B68CB40074C236010BD0010024087
:1003A000002002400000FFF8FFFFF6FE08ED00E02D
:1003B00000127A000000002000093D000400002027
:1003C00010B50446CA48844208D10121042000F037
:1003D00024FB0021042000F020FB46E0C5488442B5
:1003E00008D10121082000F018FB0021082000F0AE
:1003F00014FB3AE0C048844208D10121102000F0EB
:100400000CFB0021102000F008FB2EE0BB488442CA
:1004100008D10121202000F000FB0021202000F065
:10042000FCFA22E0B648844208D10121402000F0C5
:10043000F4FA0021402000F0F0FA16E0B1488442BE
:1004400008D10121802000F0E8FA0021802000F08E
:10045000E4FA0AE0AC48844207D10121801500F09B
:10046000DCFA0021A01500F0D8FA10BD10B501216A
:10047000084600F0D2FA0021012000F0CEFA10BDAB
:100480002DE9F0410246002500260020002300242B
:10049000002791F803C00CF00F0591F803C01CF081
:1004A000100F03D091F802C04CEA0505B1F800C066
:1004B0001CF0FF0F31D0146800202BE04FF0010C2E
:1004C0000CFA00F3B1F800C00CEA03069E4220D1FA
:1004D00083004FF00F0C0CFA03F7BC4305FA03FC42
:1004E0004CEA040491F803C0BCF1280F06D14FF088
:1004F000010C0CFA00FCC2F814C00AE091F803C029
:10050000BCF1480F05D14FF0010C0CFA00FCC2F809
:1005100010C0401C0828D1D31460B1F800C0BCF151
:10052000FF0F34DD546800202EE000F1080C4FF07E
:10053000010808FA0CF3B1F800C00CEA03069E4269
:1005400021D183004FF00F0C0CFA03F7BC4305FADE
:1005500003FC4CEA040491F803C0BCF1280F05D158
:1005600000F1080C08FA0CF8C2F8148091F803C0E6
:10057000BCF1480F07D100F1080C4FF0010808FA50
:100580000CF8C2F81080401C0828CED35460BDE897
:10059000F0814FF6FF710180022181700421C1704A
:1005A00070470246002093680B4201D0012000E012
:1005B000002070470146886880B2704702460020DC
:1005C000D3680B4201D0012000E0002070470146B3
:1005D000C86880B2704701617047416170470AB1D5
:1005E000016100E041617047C16070474FF48032A3
:1005F0000A43826181618261826982697047024631
:100600000020424B18684FF68073184040EA0210F1
:1006100008433E4B186070473D49C8617047F0B5CC
:100620000A46002300240021002500F00046B6F110
:10063000004F02D1354EF16901E0344E7168C0F3CC
:10064000034583B200F44016B6F5401F08D121F0EF
:1006500070612E4E766826F070662C4F7E6012E038
:1006600000F48016B6F5801F06D1032606FA05F4BD
:10067000A14341F0706106E0460D360103FA06F62B
:10068000B14341F0706122B1460D360103FA06F61E
:10069000314300F00046B6F1004F02D11B4EF1612C
:1006A00001E01A4E7160F0BD30B500228B071C0FBF
:1006B0000F2303FA04F2154B08338C1053F824303F
:1006C0009343124C08348D1044F8253023468C1087
:1006D00053F824308C07240F00FA04F423430B4C06
:1006E00008348D1044F8253030BD0A490860704741
:1006F00000080140000C01400010014000140140BE
:1007000000180140001C0140002001400000014091
:1007100000002042DC002042DB48006840F001007D
:10072000D949086008464068D8490840D649486019
:1007300008460068D6490840D34908600846006862
:1007400020F4802008600846406820F4FE004860DD
:100750004FF41F0088607047CB49096821F480314D
:10076000C94A11601146096821F480211160B0F571
:10077000803F03D0B0F5802F0ED106E0C249096852
:1007800041F48031C04A116007E0BF49096841F473
:10079000A021BD4A116000E000BF00BF704710B546
:1007A00001460022002300204A11012A02D1B64C42
:1007B000236806E0022A02D1B34C236A01E0B24C5E
:1007C000636A01F01F02012494401C4201D0012001
:1007D00000E0002010BD70B500240025002600BFF9
:1007E0003120FFF7DCFF0646641CB4F5A06F01D092
:1007F000002EF5D03120FFF7D2FF08B1012500E02F
:100800000025284670BD014600209F4A106820F050
:10081000F80040EAC100106070479E4908607047C8
:1008200002460020984B586820F47C1042EA0103ED
:100830001843954B586070479649086670470146C3
:100840000020914A506820F0030008435060704730
:100850008D48406800F00C007047014600208A4A2D
:10086000506820F0F00008435060704701460020B7
:10087000854A506820F4E0600843506070470146A4
:100880000020814A506820F4605040EAC100506066
:10089000704729B17C4A527A02437B4B5A7206E078
:1008A000794A527AC343DBB21A40774B5A72704787
:1008B00079490860704701460020734A506820F467
:1008C00040400843506070470021744A11706E4ADE
:1008D00082F82010012802D0042808D103E0012169
:1008E0006E4A117004E005216C4A117000E000BFEF
:1008F00000BF70476A49086070476349096A01434D
:10090000614A1162704767490860704730B500213D
:100910000022002400235C4D6D6805F00C0121B11C
:10092000042905D0082923D105E05F4D056022E0A8
:100930005D4D05601FE0544D6D6805F47012524D19
:100940006D6805F48034022505EB92421CB9574DC1
:10095000554305600BE04C4D6D6815F4003F03D026
:10096000524D5543056002E04F4D5543056002E08E
:100970004D4D056000BF00BF434D6D6805F0F001AF
:1009800009094B4D6B5C0568DD4045603E4D6D6867
:1009900005F4E061090A464D6B5C4568DD40856001
:1009A000394D6D6805F46051C90A414D6B5C45686D
:1009B000DD40C560344D6D6805F44041890B3D4D07
:1009C0006B5CC568B5FBF3F5056130BD29B12E4AF6
:1009D000526902432C4B5A6104E02B4A526982430C
:1009E000294B5A61704729B1274A92690243264B25
:1009F0009A6104E0244A92698243234B9A617047CA
:100A000029B1214AD26902431F4BDA6104E01E4A30
:100A1000D26982431C4BDA61704729B11A4AD26805
:100A20000243194BDA6004E0174AD2688243164B3E
:100A3000DA60704729B1144A12690243124B1A61F5
:100A400004E0114A126982430F4B1A6170471A4938
:100A5000086070470F49C86470470B49C8717047F8
:100A60000948406A40F08070074948627047014673
:100A70000020054A92680A4201D0012000E00020CF
:100A80007047014988727047001002400000FFF86B
:100A9000FFFFF6FE00004242D80042422010024012
:100AA000800442423C04424200127A0000093D00A8
:100AB00014000020240000204004424210B50446E7
:100AC000F848844208D101214015FFF7A6FF002114
:100AD0006015FFF7A2FF17E0F348844208D1012117
:100AE0000015FFF79AFF00212015FFF796FF0BE096
:100AF000EE48844208D10121C803FFF78EFF002190
:100B00004FF40040FFF789FF10BD30B502460020CA
:100B100000235068E64C20400D790C6844EA052417
:100B2000204350609068E34C2040D1E902542C43AC
:100B30004D7944EA450420439060D06A20F4700067
:100B40000C7C641EE4B2234340EA0350D06230BD03
:100B500000210160017141718160C1600121017456
:100B6000704721B1826842F00102826003E082682E
:100B700022F001028260704721B1826842F48072E3
:100B8000826003E0826822F480728260704710B550
:100B90000023CBB21AB144681C43446002E04468AD
:100BA0009C43446010BD816841F00801816070473A
:100BB000014600208A6812F0080F01D0012000E0F1
:100BC00000207047816841F0040181607047014650
:100BD00000208A6812F0040F01D0012000E00020FC
:100BE000704721B1826842F4A002826003E082680B
:100BF00022F4A00282607047014600208A6812F445
:100C0000800F01D0012000E00020704710B50A4697
:100C100000210023416821F46041531E41EA433121
:100C2000416010BD21B1426842F40062426003E0BD
:100C3000426822F4006242607047F0B504460D46F7
:100C400000200021092D11DDE068A5F10A0606EB60
:100C50004607072606FA07F18843A5F10A0606EBC0
:100C6000460603FA06F10843E0600CE0206905EB54
:100C70004507072606FA07F1884305EB450603FA00
:100C800006F108432061072A0FDA606B561E06EB57
:100C900086071F2606FA07F18843561E06EB8606CE
:100CA00005FA06F10843606322E00D2A0FDA206B93
:100CB000D61F06EB86071F2606FA07F18843D61FC4
:100CC00006EB860605FA06F10843206310E0E06AA9
:100CD000A2F10D0606EB86071F2606FA07F18843E8
:100CE000A2F10D0606EB860605FA06F10843E0625E
:100CF000F0BD21B1826842F48012826003E0826814
:100D000022F48012826070470146C86C80B270473E
:100D100069480068704721B1426842F480624260CD
:100D200003E0426822F480624260704721B1426869
:100D300042F48052426003E0426822F480524260F2
:100D400070470A460021816821F4E0411143816027
:100D5000704721B1826842F40042826003E08268F9
:100D600022F400428260704721B1826842F402128C
:100D7000826003E0826822F40212826070470146BA
:100D800000208A6812F4001F01D0012000E000203A
:100D90007047F0B5044615460020002200260929B8
:100DA00011DDE068A1F10A0707EB470C072707FAF6
:100DB0000CF29043A1F10A0707EB470703FA07F289
:100DC0001043E0600CE0206901EB410C072707FAB3
:100DD0000CF2904301EB410703FA07F21043206144
:100DE000A06BC0F30156EF1C06F1010CA7EB0C073A
:100DF00007EB870C1F2707FA0CF29043EF1C06F154
:100E0000010CA7EB0C0707EB870701FA07F2104369
:100E1000A063F0BD10B50A4600210023816B21F4C8
:100E20004011531E41EA0351816310BD10B50023E8
:100E300003460B441A6010BD02460023134601F11D
:100E400028000344186880B270470A4600214168B0
:100E50001A4B1940114341607047416282627047EA
:100E60000A460021416821F01F011143416070478B
:100E700038B11349096841F40001124AC2F8081454
:100E800006E00F49096821F400010E4AC2F808146F
:100E900070470246002013680B4201D0012000E099
:100EA000002070470024014000280140003C014020
:100EB000FFFEF0FFFDF7F1FF4C240140FFFD3FFF77
:100EC0000824014000200140CA430260704770B509
:100ED00002460020002300240B125568CEB205EA1A
:100EE000060415681D4202D00CB1012000E000206C
:100EF00070BD00220A12D343036070473649014394
:100F0000364A1160704770B5002100230F22C47863
:100F10004CB3324C246804F4E064C4F5E0644FEA56
:100F20001421C1F1040322FA01F2447804FA03F116
:100F3000847804EA020444EA01014FEA0111284CD2
:100F40000678A155047804F01F054FF0010404FA57
:100F500005F405784FEA65154FF0E02606EB8505A8
:100F6000C5F8004109E0047804F01F050124AC40F5
:100F70001C4D0678761145F8264070BD1A4A0A4085
:100F800002431A4B1A60704741B1194A126842EA8B
:100F900000024FF0E023C3F8102D07E0144A126856
:100FA00022EA00024FF0E023C3F8102D7047042816
:100FB00008D14FF0E021096941F004014FF0E0222F
:100FC000116107E04FF0E021096921F004014FF0C1
:100FD000E0221161704700000000FA050CED00E00E
:100FE00000E400E080E100E080FFFF1F08ED00E08A
:100FF00010ED00E010B50120FFF729FD0020FFF7FC
:1010000026FD10BD244908607047244908607047D8
:1010100023490860704701460020224A10884FF695
:101020007F4200EA020040EA01001F4AA2F82C0CAD
:101030007047014600201B4A10884FF6807200EA74
:10104000020040EA0100184AA2F82C0C7047002266
:10105000144A2C3A02441160704701460022114A9A
:101060002C3A0A441088704710480068C0B2704794
:101070000F48008840F001000B49A1F8340C70477C
:101080000C480068C0B270470948008840F0020070
:101090000549A1F8340C704704860D4200860D42C4
:1010A00088860D422C6C004000600040A0860D42F6
:1010B000346C0040A4860D4210B50446FF488442BB
:1010C00008D10121C014FFF7A8FC0021E014FFF7AC
:1010D000A4FCC4E0B4F1804F08D101210846FFF719
:1010E000A9FC00210120FFF7A5FCB8E0F4488442E8
:1010F00008D101210220FFF79DFC00210220FFF70B
:1011000099FCACE0EF48844208D101210420FFF7AC
:1011100091FC00210420FFF78DFCA0E0EA48844206
:1011200008D101210820FFF785FC00210820FFF7E6
:1011300081FC94E0E548844208D101211020FFF7AA
:1011400079FC00211020FFF775FC88E0E04884421C
:1011500008D101212020FFF76DFC00212020FFF79E
:1011600069FC7CE0DB48844208D101214014FFF790
:1011700054FC00216014FFF750FC70E0D648844214
:1011800009D10121C804FFF748FC00214FF40020D9
:10119000FFF743FC63E0D148844209D101210805EF
:1011A000FFF73BFC00214FF48010FFF736FC56E0C0
:1011B000CB48844209D101214805FFF72EFC0021CC
:1011C0004FF40010FFF729FC49E0C648844208D1DB
:1011D00001214020FFF72EFC00214020FFF72AFCD0
:1011E0003DE0C148844208D101218020FFF722FC64
:1011F00000218020FFF71EFC31E0BC48844208D16A
:1012000001218015FFF716FC0021A015FFF712FC45
:1012100025E0B748844209D101210804FFF7FDFB0E
:1012200000214FF48030FFF7F8FB18E0B14884420A
:1012300009D101214804FFF7F0FB00214FF40030F1
:10124000FFF7EBFB0BE0AC48844208D10121880496
:10125000FFF7E3FB00214FF48020FFF7DEFB10BD1A
:1012600000220288954B98420ED09A4B98420BD0A0
:10127000B0F1804F08D0924B984205D0914B9842E4
:1012800002D0914B984204D14FF68F731A404B888D
:101290001A438E4B984207D08D4B984204D04FF69C
:1012A000FF431A40CB881A4302808B8883850B88C2
:1012B0000385824B98420BD0864B984208D08C4BCA
:1012C000984205D08B4B984202D08B4B984201D16B
:1012D0000B7A038601238382704770B500240022B5
:1012E0000023058C4FF6FE7635400584028C8388FA
:1012F000048B4FF68F752C40B51E2C400D882C4367
:10130000751E2A400D892A434D882A436B4DA842F9
:101310000BD0704DA84208D0754DA84205D0754D30
:10132000A84202D0744DA84213D14FF6F7752A4057
:101330004D892A434FF6FB752A408D882A434FF684
:10134000FF652B404FF6FF552B408D892B43CD89F0
:101350002B4383800483CD888586028470BD70B55D
:10136000002400220023058C4FF6EF7635400584DB
:10137000028C8388048B48F6FF752C404FF6FF459E
:101380002C400D882D0644EA15444FF6DF752A409F
:101390000D892D0542EA15424D882D0542EA154278
:1013A000464DA84202D04B4DA8421BD14FF67F7547
:1013B0002A404D892D0542EA15424FF6BF752A4055
:1013C0008D882D0542EA15424FF6FF352B404FF22E
:1013D000FF752B408D89AD0443EA1543CD89AD04DB
:1013E00043EA154383800483CD880587028470BD5A
:1013F00070B5002400220023058C4FF6FF663540AF
:101400000584028C8388848B4FF68F752C404FF6B1
:10141000FC752C400D882C434FF6FF552A400D8952
:101420002D0642EA15424D882D0642EA1542234D0B
:10143000A84202D0274DA8421BD14FF2FF752A4087
:101440004D892D0642EA15424FF6FF352A408D8818
:101450002D0642EA15424EF6FF752B404DF6FF75FC
:101460002B408D892D0543EA1543CD892D0543EA8F
:10147000154383808483CD888587028470BD70B5D1
:10148000002200230024058C4EF6FF7635400584AB
:10149000038C8488828B48F6FF752A404FF6FF45FF
:1014A0002A400D882D0642EA15424DF6FF752B4065
:1014B0000D892D0743EA15434D881FE0002C01409C
:1014C0000004004000080040000C004000100040F4
:1014D0000014004000340140004C01400050014025
:1014E0000054014000180040001C00400020004053
:1014F0000040014000440140004801402D0743EAFC
:101500001543F94DA84202D0F84DA84206D14BF63A
:10151000FF752C408D89AD0544EA15448480828393
:10152000CD88A0F84050038470BD828B4FF2FF330A
:101530001A408283828B0B0642EA134282837047F1
:10154000F0B50C461546002200210026078C4EF609
:10155000FF7C07EA0C070784828B018C27073E0C6F
:1015600040F6FF473A402F0642EA17421F0742EA79
:101570001742DD4FB8420ED0DC4FB8420BD0B0F16D
:10158000804F08D0DA4FB84205D0DA4FB84202D0C7
:10159000D94FB84206D14DF6FF77394046F480570F
:1015A000394305E047F6FF57394044F48057394343
:1015B00082830184F0BD828B4FF6F3731A408283DD
:1015C000828B0A4382837047F0B50C461546002291
:1015D00000210026078C4FF6FF6C07EA0C070784F2
:1015E000828B018C27063E0C4FF60C773A401F0584
:1015F00045EA17473A43BC4FB8420ED0BB4FB842FA
:101600000BD0B0F1804F08D0B94FB84205D0B94FD8
:10161000B84202D0B84FB84206D14FF6FF57394012
:1016200046F48077394305E04FF2FF57394044F4E0
:101630008077394382830184F0BD028B4FF2FF3300
:101640001A400283028B0B0642EA13420283704760
:10165000F0B50C461546002200210026078C4FF6F7
:10166000EF7C07EA0C070784028B018C27053E0CF0
:1016700040F6FF473A401F0742EA17422F0642EA68
:101680001742994FB8420ED0984FB8420BD0B0F1E4
:10169000804F08D0964FB84205D0964FB84202D03E
:1016A000954FB84206D14FF6DF77394046F0100724
:1016B000394305E04FF65F77394044F0100739436E
:1016C00002830184F0BD028B4FF6F3731A4002834C
:1016D000028B0A4302837047F0B50C461546002280
:1016E0000021068C4FF6FE773E400684028B018C6B
:1016F0004FF60C7632401E0545EA164632437A4EC6
:10170000B0420ED0794EB0420BD0B0F1804F08D02D
:10171000774EB04205D0774EB04202D0764EB042FE
:1017200006D14FF6FD76314044F00106314305E025
:101730004FF6F576314044F00106314302830184CF
:10174000F0BD70B505460C46674885420ED0674827
:1017500085420BD0B5F1804F08D06548854205D051
:101760006448854202D06448854200D100E000BF51
:10177000208850B92389A28861882846FFF7ACFFEA
:10178000E1882846FFF79FFF25E0208804280AD13A
:101790002389A28861882846FFF75AFFE1882846F6
:1017A000FFF74BFF17E0208808280AD12389A28879
:1017B00061882846FFF708FFE1882846FFF7FBFE0F
:1017C00009E02389A28861882846FFF7B9FEE188ED
:1017D0002846FFF7AAFE70BD2DE9F04105460C46EC
:1017E00000260127608808B9022600E00026A088AC
:1017F000012801D1022700E001272088A0B9238910
:10180000A28861882846FFF767FFE1882846FFF72E
:101810005AFF23893A4631462846FFF719FFE188E7
:101820002846FFF70AFF13E02389A288618828462B
:10183000FFF70EFFE1882846FFF7FFFE23893A46AF
:1018400031462846FFF748FFE1882846FFF73BFF6F
:10185000BDE8F0810A884B881A438B881A43CB88ED
:101860001A430B891A434B891A438B891A43A0F8F0
:10187000442070474FF6FF71818000210180C180B4
:101880004180017270470021018041808180C180C8
:10189000018141818181C1817047002101804180A6
:1018A000012181800021C1800181704700210180D8
:1018B00041808180C180018141818181704721B156
:1018C000028842F00102028004E002884FF6FE73B3
:1018D0001A400280704789B1B0F8442042F40042B7
:1018E000A0F8442010E00000002C0140003401402A
:1018F0000004004000080040000C0040B0F8442004
:10190000C2F30E02A0F84420704710B51AB18389C3
:101910000B43838104E08389CC43A4B223408381B9
:1019200010BD8182704741EA0203A0F84830704739
:1019300010B51AB183890B43838104E08389CC43BA
:10194000A4B22340838110BD01894FF6F872114083
:10195000018170470A46002101894FF68F731940B3
:1019600011430181704730B504460D462946204693
:10197000FFF7F0FF208940F00700208130BD2DE9FE
:10198000F04104460D4616461F46602D06D13B46E3
:10199000012231462046FFF75BFE05E03B4601226F
:1019A00031462046FFF798FE29462046FFF7D2FF32
:1019B000208940F007002081BDE8F08130B50C4659
:1019C00000210189C9B21D0642EA15452543294374
:1019D000018130BD2DE9F04105460E461746984677
:1019E000002443463A4631462846FFF7E7FF2C8954
:1019F0004FF6F8710C4044F007044FF68F710C401D
:101A000044F070042C81BDE8F081F0B504460D4629
:101A100016461F463B46324629462046FFF7CEFF74
:101A2000208940F480402081F0BD0185828270478A
:101A30000A46002101884FF68F7319401143018037
:101A40007047F0B50C4615461E46002100220023C3
:101A50000189028B038C4FF6F877394021434FF60A
:101A6000FC473A4040F201173A434FF6DD773B40DE
:101A7000370545EA17473B43018102830384F0BDE4
:101A80000A460021018B4FF68F73194011430183E1
:101A900070470A460021018B48F6FF731940130670
:101AA00041EA1341018370470A460021818B4FF6BA
:101AB0008F7319401143818370470A460021818B3F
:101AC00048F6FF731940130641EA134181837047BA
:101AD00021B1028842F08002028004E002884FF6C1
:101AE0007F731A400280704721B1828842F004025D
:101AF000828004E082884FF6FB731A408280704730
:101B000021B1828842F00802828004E082884FF688
:101B1000F7731A408280704721B1828842F0010237
:101B2000828004E082884FF6FE731A4082807047FC
:101B30000A460021018B4FF6F773194011430183C8
:101B400070470A460021018B4FF2FF7319401306BC
:101B500041EA1341018370470A460021818B4FF609
:101B6000F77319401143818370470A460021818B26
:101B70004FF2FF731940130641EA13418183704706
:101B80000A460021018B4FF6FB7319401143018374
:101B900070470A460021018B4FF6FF3319401306A8
:101BA00041EA1341018370470A460021818B4FF6B9
:101BB000FB7319401143818370470A460021818BD2
:101BC0004FF6FF331940130641EA134181837047F2
:101BD0000A460021018B4FF67F73194011430183A0
:101BE00070470A460021018BC1F30E01130641EA3A
:101BF0001341018370470A460021818B4FF67F73A2
:101C000019401143818370470A460021818BC1F33B
:101C10000E01130641EA1341818370470A460021F1
:101C2000018C4FF6FD7319401143018470470A4639
:101C30000021018C4FF6F77319401143018470475E
:101C40000A460021018C4FF6DF731940130541EA63
:101C50001341018470470A460021018C4FF67F73BF
:101C60001940130541EA1341018470470A460021D7
:101C7000018C4FF6FF531940130641EA13410184CA
:101C800070470A460021018C4FF2FF73194013067A
:101C900041EA1341018470470A460021018C4DF648
:101CA000FF731940130741EA13410184704730B5AF
:101CB000002301248C40A3B2048CDD43ADB22C4040
:101CC0000484048C02FA01F5ADB22C43048430BDC7
:101CD00030B5002304248C40A3B2048CDD43ADB2A4
:101CE0002C400484048C02FA01F5ADB22C43048428
:101CF00030BD70B503460020002418461830012579
:101D00008D40ACB21D8CE643B6B235401D8409B19E
:101D1000082909D100EB6100056825F07005056010
:101D20000568154305600CE00D1FADB200EB6500C2
:101D3000056825F4E04505600568160645EA164580
:101D4000056070BD21B1028842F00202028004E009
:101D500002884FF6FD731A400280704721B1028855
:101D600042F00402028004E002884FF6FB731A403E
:101D70000280704721B1828842F08002828004E0B4
:101D800082884FF67F731A408280704702884FF630
:101D9000F7731A40028002880A43028070478288E3
:101DA0004FF68F731A40828082880A438280704780
:101DB00002894FF6F8731A40028102890A430281B0
:101DC000704702894FF67F731A40028102890A43E5
:101DD0000281704781847047818570478186704792
:101DE0000187704781877047A0F8401070470288CC
:101DF0004FF6FF431A40028002880A430280704770
:101E00000146888E70470146088F70470146888FCB
:101E100070470146B1F8400070470146888C704712
:101E20000146088D704702460020138A0B4201D0FC
:101E3000012000E000207047CA430282704730B59D
:101E40000246002000230024158A05EA0103958933
:101E500005EA010413B10CB1012000E0002030BDFF
:101E6000CA4302827047000039B1554A128842EADB
:101E70000002544BA3F8002809E0514A12886FEA87
:101E800000039BB202EA03024E4BA3F800287047FE
:101E90004D48008840F010004A49A1F804087047F6
:101EA000494800884FF6EF7100EA01004549A1F862
:101EB000040870470021454801884248B0F81808D6
:101EC00041EA0040704700B50246FFF7E1FF100C01
:101ED0003F4908803B49A1F81C28FFF7E1FF00BDFE
:101EE00000B50246FFF7D4FFC2F30340394908802A
:101EF0003449A1F80C28FFF7D3FF00BD00B5024616
:101F0000FFF7C6FF100C344908802E49A1F8242899
:101F1000FFF7C6FF00BD0020304909884FEA017174
:101F20004FEA11302749B1F8141841EA0000704710
:101F300000BF2548008810F0200FFAD070472248D3
:101F400000884FF6F77100EA01001E49A1F8040865
:101F500000BF1D48008810F0080FFAD070470146F6
:101F60000020194A12880A4201D0012000E0002016
:101F70007047154909886FEA000292B201EA02012E
:101F8000104AA2F804187047014600200E4A128831
:101F900002EA0102D0B20B4AB2F800280A4202D08B
:101FA00008B1012000E000207047074909886FEA66
:101FB000000292B201EA0201024AA2F80418704734
:101FC0000028004000200040042800401C28004059
:101FD0001828004008280040202800401028004011
:101FE00010B501210807FEF725FD00214FF08050B4
:101FF000FEF720FD10BD2C49086270472A49086190
:10200000704701460020294A106820F0E00008438C
:102010001060704726490860704710B502460020DE
:10202000224B186820F0030010431860214B1B68F6
:1020300043F004034FF0E024C4F8103D012901D11E
:1020400030BF00E020BF1B4B1B6823F004034FF0A0
:10205000E024C4F8103D10BD1448006840F00400AE
:10206000124908600846006840F002000860114804
:10207000006840F004004FF0E021C1F8100D00BFEF
:1020800000BF30BF704701460020084A52680A422C
:1020900001D0012000E0002070470449096841EAAE
:1020A0008001024A1160704700000E42007000403B
:1020B000A0000E4210ED00E010B50446FC4884423A
:1020C00009D101218803FEF7A8FC00214FF48040CC
:1020D000FEF7A3FC32E0F748844209D1012148040D
:1020E000FEF7A8FC00214FF40030FEF7A3FC25E02A
:1020F000F148844209D101218804FEF79BFC0021AC
:102100004FF48020FEF796FC18E0EC48844209D199
:102110000121C804FEF78EFC00214FF40020FEF7D9
:1021200089FC0BE0E648844208D101210805FEF74E
:1021300081FC00214FF48010FEF77CFC10BD2DE9DE
:10214000F04786B005460E460024A24600BFA146D1
:102150000027B08900B100BF2F462C8A4CF6FF70D3
:102160000440F08804432C82AC894EF6F3100440FE
:10217000B08831890843718908430443AC81AC8A33
:102180004FF6FF400440B0890443AC8201A8FEF73B
:10219000BDFBC748874202D1DDF810A001E0DDF8A1
:1021A0000CA0A88910F4004F08D00AEBCA0000EB7D
:1021B0000A1031684900B0FBF1F807E00AEBCA00E9
:1021C00000EB0A1031688900B0FBF1F86420B8FB1D
:1021D000F0F004012009642101FB1089A88910F4A2
:1021E000004F08D0322000EBC900B0FBF1F000F046
:1021F0000700044308E0322000EB09106421B0FB23
:10220000F1F000F00F0004432C8106B0BDE8F08728
:102210004FF41651016000218180C18001810C21A1
:10222000418100218181704710B502460020108A4B
:102230004FF2FF0318400B884C8823438C882343BC
:10224000CC8823431843108210BD002101804180B7
:102250008180C180704721B1828942F4005282811D
:1022600004E082894DF6FF731A4082817047F0B511
:1022700003460024002600250020A1F510676A3FD0
:1022800000D100BF1846C1F3421401F01F06012718
:1022900007FA06F5012C01D10C3004E0022C01D123
:1022A000103000E014301AB107682F43076002E0D5
:1022B0000768AF430760F0BD10B51AB1838A0B43BE
:1022C000838204E0838ACC43A4B22340838210BD7E
:1022D000028A4FF6F0731A400282028A0A4302828F
:1022E000704782894FF2FF731A40828182890A43C4
:1022F0008281704721B1828942F00202828104E02A
:1023000082894FF6FD731A4082817047028A4FF628
:10231000DF731A400282028A0A430282704721B1A7
:10232000028A42F48042028204E0028A4BF6FF7382
:102330001A4002827047C1F308028280704701464A
:102340008888C0F308007047818941F001018181CC
:102350007047028BD2B20283028B42EA01220283CF
:102360007047028B02F47F420283028B0A4302838E
:10237000704721B1828A42F02002828204E0828A80
:102380004FF6DF731A408282704721B1828A42F091
:102390001002828204E0828A4FF6EF731A40828232
:1023A000704721B1828A42F00802828204E0828A68
:1023B0004FF6F7731A408282704721B1828942F446
:1023C0000042828103E08289C2F30E02828170475B
:1023D00021B1828A42F40062828204E0828A4FF252
:1023E000FF731A4082827047828A4FF6FB731A404D
:1023F0008282828A0A438282704721B1828A42F0B5
:102400000202828204E0828A4FF6FD731A408282C1
:10241000704702460020B1F5007F00D100BF13884D
:102420000B4201D0012000E00020704701F400724F
:10243000B2F5007F00D100BFCA430280704770B57B
:1024400002460024002300250020A1F510666A3E04
:1024500000D100BFC1F3421501F01F03012606FAA7
:1024600003F3012D02D19689334006E0022D02D1FB
:10247000168A334001E0968A33400C12012606FA90
:1024800004F41688344013B10CB1012000E00020A0
:1024900070BD10B500220023A1F510646A3C00D184
:1024A00000BF0A1201249440A3B2DC43048010BD93
:1024B000003801400044004000480040004C00400B
:1024C00000500040002109E0002201E0531C9AB2B4
:1024D00040F6B8339A42F9DB4B1C99B28142F3DBE8
:1024E00070474FF40072FF4B1A604FF48072FE4B3E
:1024F000C3F8142C4FF02002C3F8102CFB4AD06014
:102500004FF02002F74B1A60A3F104031A604FF456
:102510008072F54BC3F8102CF44AD1604FF02002C2
:10252000F04B1A60A3F104031A604FF480721A6032
:10253000704700B501210020FFF7D3FF4FF47A70F8
:10254000FFF7C0FF00210120FFF7CBFF41F29071A0
:102550001020FFF7C6FF4FF41C516020FFF7C1FFAA
:1025600001216120FFF7BDFF02214620FFF7B9FFDF
:1025700048F210011320FFF7B4FF48F2FE011220C9
:10258000FFF7AFFF4FF4A0610220FFF7AAFF41F26F
:1025900030010320FFF7A5FF40F203313020FFF7A1
:1025A000A0FF40F203313120FFF79BFF40F20331DF
:1025B0003220FFF796FF4FF440713320FFF791FF71
:1025C00003213420FFF78DFF40F203313520FFF760
:1025D00088FF14213620FFF784FF40F203313720B3
:1025E000FFF77FFF40F203313820FFF77AFF40F218
:1025F00003313920FFF775FF4FF440713A20FFF7A0
:1026000070FF03213B20FFF76CFF40F203313C20B9
:10261000FFF767FF4FF4A0513D20FFF762FF4FF433
:1026200000719220FFF75DFF40F203319320FFF726
:1026300058FF40F60D019020FFF753FF41F21801BB
:102640000320FFF74EFF40F273110720FFF749FF09
:1026500000BD00B543F20801E320FFF742FF12215D
:10266000E720FFF73EFF41F23121EF20FFF739FF6E
:1026700000210120FFF735FF4FF4E0610220FFF752
:1026800030FF41F230010320FFF72BFF002104202F
:10269000FFF727FF40F207210820FFF722FF002164
:1026A0000920FFF71EFF00210A20FFF71AFF002173
:1026B0000C20FFF716FF00210D20FFF712FF00216D
:1026C0000F20FFF70EFF00211020FFF70AFF072160
:1026D0001120FFF706FF00211220FFF702FF002163
:1026E0001320FFF7FEFE4FF47A70FFF7EBFE41F286
:1026F00090611020FFF7F5FE40F227211120FFF72F
:10270000F0FE3220FFF7DEFE1D211220FFF7E9FE6A
:102710003220FFF7D7FE4FF400611320FFF7E1FEF0
:1027200014212920FFF7DDFE0B212B20FFF7D9FE16
:102730003220FFF7C7FE00212020FFF7D2FE002144
:102740002120FFF7CEFE07213020FFF7CAFE40F21E
:1027500007713120FFF7C5FE06213220FFF7C1FEC9
:1027600040F204713520FFF7BCFE41F604713620BB
:10277000FFF7B7FE04213720FFF7B3FE0021382012
:10278000FFF7AFFE40F206713920FFF7AAFE40F2D4
:1027900001713C20FFF7A5FE0F213D20FFF7A1FEB0
:1027A00000215020FFF79DFEEF215120FFF799FEF9
:1027B00000215220FFF795FE40F23F115320FFF712
:1027C00090FE4FF41C516020FFF78BFE0121612029
:1027D000FFF787FE00216A20FFF783FE002180209B
:1027E000FFF77FFE00218120FFF77BFE0021822082
:1027F000FFF777FE00218320FFF773FE002184207E
:10280000FFF76FFE00218520FFF76BFE102190205F
:10281000FFF767FE00219220FFF763FE032193205C
:10282000FFF75FFE4FF488719520FFF75AFE0021F5
:102830009720FFF756FE00219820FFF752FE41F245
:1028400018010320FFF74DFE40F273110720FFF738
:1028500048FE00BD08B54FF6FF70ADF8000003203C
:102860008DF8020010208DF8030069461F48FDF71F
:1028700007FE08BD08B54FF6FF70ADF80000032055
:102880008DF8020048208DF8030069461748FDF7CF
:10289000F7FD08BD70B504464FF40070114908609B
:1028A0004FF480701049C1F8140C4FF02000C1F8AB
:1028B000100C0E48C4604FF020000A490860A1F1D6
:1028C000040108604FF480700860FFF7D3FF4FF4F5
:1028D00080600549C1F8140C0448806885B2081569
:1028E000034907E0140C01400000014000100140C2
:1028F000100C01400860FFF7ADFF4FF40070FB497A
:102900000860284670BD08B501211820FEF76BF855
:1029100001212020FEF767F84FF4E460ADF80000D5
:1029200001208DF8020010208DF803006946EF4861
:102930001038FDF7A5FDFFF78DFFEC48006840F467
:10294000C460EB49C1F8100C08BD10B5FFF7DBFF00
:102950000020FFF79FFFE749088008460088A0F5A0
:102960000241303902D1FFF7E4FD01E0FFF771FECB
:102970000020FFF78FFFDF49088010BDDE49088087
:102980007047DE490880704730B504460D46214641
:102990002020FFF7A6FD29462120FFF7A2FD30BD2C
:1029A0004FF40071D64A11604FF48071D04AC2F8DA
:1029B000101C4FF02001C2F8101CD249C8604FF023
:1029C0002001CF4A1160C94A11604FF48071116033
:1029D0004FF40071116070474FF40070C8490860EF
:1029E0004FF48070C249C1F8140C4FF02000BF4969
:1029F00008604FF02200C349C8604FF02000C04972
:102A00000860BA4908604FF4807008604FF40070A5
:102A1000086070472DE9F0430646894617460024B2
:102A20000025A046B04649464046FFF7ADFF00BF2F
:102A30001EE0FFF7D1FF00250FE037F81400012159
:102A4000A940084204D1AD480088FFF7A9FF03E080
:102A5000A9480088FFF7A4FF6D1C102DEDD308F1E5
:102A6000010000F0FF0849464046FFF78DFF641C57
:102A7000182CDED3BDE8F08370B505460E4614462B
:102A8000A4F12000C4B204EB44009F4901EB001202
:102A900031462846FFF7BEFF70BDF0B507460C462D
:102AA000002540F23F1609E0227831463846FFF70C
:102AB000E3FFA6F1100086B2641C6D1C207808B1FB
:102AC000142DF1D3F0BD10B5044690A12046FFF7B8
:102AD000E4FF10BD30B50546002400210846FFF78D
:102AE00053FFFFF779FF00BF03E02846FFF758FFC9
:102AF000641CB4F5963FF8D330BDF0B504460D46DE
:102B000016461F46B44206DBA01B401C81B2502073
:102B1000FFF7E7FC03E000215020FFF7E2FC21462D
:102B20005120FFF7DEFCBD4206DBE81B401C81B2F2
:102B30005220FFF7D6FC03E000215220FFF7D1FC22
:102B400029465320FFF7CDFC29462046FFF71CFFFE
:102B5000F0BD00B54FF4A073F022591EEF20FFF72F
:102B6000CCFF41F218010320FFF7BBFC00BD2DE9AB
:102B7000F0410646884615461F4600244146304629
:102B8000FFF702FF5FB9FFF727FF00BF04E05A48D5
:102B90000088FFF705FF641CAC42F8D310E0002466
:102BA0000CE0FFF719FF54480088FFF7F9FE701C8E
:102BB000C6B241463046FFF7E7FE641CAC42F0D394
:102BC000BDE8F081F0B505460E4617461C460023C9
:102BD000224631462846FFF7CAFFE919C8B200234A
:102BE00022463146FFF7C3FF01233A4631462846C5
:102BF000FFF7BDFF301B401C81B201233A46284637
:102C0000FFF7B5FFF0BD2DE9F04306460F469046AD
:102C10000320A0EB4809002445468AE07A1991B2C6
:102C20003219D0B2FFF7B0FEFFF7D6FE3248008867
:102C3000FFF7B6FE7A1B91B23219D0B2FFF7A4FEAD
:102C4000FFF7CAFE2C480088FFF7AAFE7A1991B256
:102C5000321BD0B2FFF798FEFFF7BEFE2648008871
:102C6000FFF79EFE7A1B91B2321BD0B2FFF78CFEAB
:102C7000FFF7B2FE20480088FFF792FE3A1991B2A2
:102C80007219D0B2FFF780FEFFF7A6FE1A4800883F
:102C9000FFF786FE3A1B91B27219D0B2FFF774FEAD
:102CA000FFF79AFE14480088FFF77AFE3A1991B2AE
:102CB000721BD0B2FFF768FEFFF78EFE0E48008849
:102CC000FFF76EFE3A1B91B2721BD0B2FFF75CFEAB
:102CD000FFF782FE08480088FFF762FEB9F1000F97
:102CE00020DA062000EB8400814421E0100C014032
:102CF000000001402C000020280000202A000020B5
:102D0000140C014000100140DA5800082020202057
:102D100020202020202020202020202020202020B3
:102D200000000000601B0A2101EB800081446D1E41
:102D3000641CAC427FF672AFBDE8F08370B5064606
:102D40000024002540F23F110020FFF71DFEFFF791
:102D500043FE00BF14E000250FE056F824000121D7
:102D6000A940084204D163480088FFF719FE03E038
:102D700061480088FFF714FE6D1C202DEDD3641C04
:102D8000B4F5166FE7D370BD70B504460025002674
:102D90006688A08846EA00466589A08945EA00451C
:102DA000701B46082C4441F208010320FFF799FBF1
:102DB000FFF712FE002504E02088FFF7F1FDA41CB8
:102DC0006D1CB542F8D341F218010320FFF789FBCF
:102DD00070BD10B54FF40070484908604FF4807022
:102DE0004749C1F8140C4FF02000464908604FF0E5
:102DF00022004549C8604FF0200040490860414921
:102E000008604FF480700860FFF734FD4FF4806075
:102E10003B49C1F8140C3C48806884B20815394914
:102E20000860FFF717FD4FF4007036490860204630
:102E300010BD00B500211020FFF753FB0021112029
:102E4000FFF74FFB00211220FFF74BFB002113205F
:102E5000FFF747FB1420FFF735FB41F2B07110205C
:102E6000FFF73FFB40F237111120FFF73AFB052037
:102E7000FFF728FB40F239111220FFF732FB052043
:102E8000FFF720FB4FF4E8511320FFF72AFB132133
:102E90002920FFF726FB0520FFF714FB40F27311F2
:102EA0000720FFF71EFB00BD00B540F2731107209D
:102EB000FFF717FB00BD00B500210720FFF711FB4E
:102EC00000BD30B5054600210846FFF75DFDFFF760
:102ED00083FD002409E015F814206100491C695C99
:102EE00042EA0120FFF75CFD641CB4F5963FF2DB7B
:102EF00030BD00002A00002028000020140C0140F2
:102F000000000140100C01400010014038B504469B
:102F1000FEF7D0FFF649884204D10020FEF7D3FF28
:102F2000FFF706F84FF46160B4FBF0F0F149086078
:102F30004FF46160B4FBF0F100FB11403C21B0FBA9
:102F4000F1F0ED4908604FF46160B4FBF0F100FB73
:102F500011403C21B0FBF1F201FB1200E74908608F
:102F600008460368E44800930368E248E4A1026865
:102F7000EA4800F069FEE9497820FFF78EFD38BD88
:102F80002DE9FC470121E648FDF72BFEE448FDF75B
:102F9000BBFE824602F0A4F980464FF06632E14B58
:102FA00002F0B2F906460022DF4B02F041F8044677
:102FB00001F066FFDD490860DD49DC48006802F089
:102FC000B7FB824602F088FB06464FF06632D54BCF
:102FD00002F02EF804460022D64B02F093FA804607
:102FE00001F04EFFD44908600846006802F074FB07
:102FF000D2A2CDE90001D4A1C84800F025FEC749FE
:103000004820FFF74AFDBDE8FC87D349086000BFB0
:10301000D14909680029FBD1704710B50121CF487B
:10302000FDF7BFFA90B90A20FFF7EFFF0121CB4867
:10303000FDF7B7FA18B9CAA1A820FFF72EFD00BF07
:103040000121C648FDF7ADFA0028F9D04FF4807190
:10305000C248FDF7A6FAA0B90A20FFF7D6FF4FF441
:103060008071BE48FDF79DFA18B9C1A1A820FFF7ED
:1030700014FD00BF4FF48071B848FDF792FA0028A4
:10308000F8D00221BF48FDF78CFA90B90A20FFF76B
:10309000BCFF0221BB48FDF784FA18B9BAA1A820E9
:1030A000FFF7FBFC00BF0221B648FDF77AFA0028C3
:1030B000F9D00421B348FDF774FA90B90A20FFF75C
:1030C000A4FF0421AF48FDF76CFA18B9B3A1A820FA
:1030D000FFF7E3FC00BF0421AA48FDF762FA0028CD
:1030E000F9D010BD00B587B04720ADF8040000202E
:1030F000ADF806004FF6FF70ADF808000020ADF8FF
:103100000A0001A9AB48FEF7ABF80420ADF81000A7
:103110000020ADF812000120ADF814000020ADF839
:103120001600ADF8180004A9A248FEF70AFB012119
:10313000A048FEF7C4FB012204219E48FEF7E5FBF0
:1031400007B000BD00B587B09B480088ADF81400FB
:103150004720ADF810000020ADF81600ADF81200C1
:1031600004A94FF08040FEF77BF86020ADF8000026
:103170000120ADF80200904800884010ADF806002C
:103180000020ADF8080069464FF08040FEF7E7F8F0
:103190000821C806FEF7D5FC01218807FEF798FC38
:1031A00001218807FEF78BFB07B000BD1CB58349E2
:1031B00009684FF47A72B1FBF2F0B0F1807F00D36E
:1031C0001CE020F07F41491E4FF0E022516100BF1A
:1031D0005117002905DA0F210901794A0B23D1542F
:1031E00004E00F210901774A5317D15400BF002191
:1031F0004FF0E02291610721116100BF00F04FFB09
:1032000000F0D7F900F00AFDFFF79CFFFFF76AFF17
:103210000A20FFF7FAFE1421012000F029FB0A2002
:10322000FFF7F3FE012000F007FB6749087008462E
:10323000037866A266A1394800F006FD3749902060
:10324000FFF72BFC53E0FFF7E8FE64480078E8BB8B
:10325000FFF796FEFEF72EFE0446FFF757FE604886
:1032600000684FF47A71B0FBF1F000EB80004FEA98
:10327000001A504602F034F806460022594B01F07D
:10328000D7FE04460022584B01F02CFE8046574AD8
:10329000574B02F037F9CDE9000101F0F1FD554936
:1032A00008604F4854A256A103681C4800F0CCFCAB
:1032B0001A49A820FFF7F1FB4E48006802F00CFA0B
:1032C00052A2CDE9000154A1144800E005E000F04D
:1032D000BBFC12496020FFF7E0FB5348007801284F
:1032E00005D100205049087050A000F090FAAAE7DC
:1032F0007F51010044000020480000204C000020C5
:1033000020543A2025302E32642D25302E32642D63
:1033100025302E326420202020000000680000208C
:103320000024014066660A4000FEAF4054000020C1
:103330000000A04200003440380000202043205408
:10334000656D703A000000002573252E306643201D
:103350002020202020000000340000200008014030
:1033600020203131313131313131313120202000D3
:1033700020203232323232323232322020202020AB
:1033800020000000000C0140202020203333333384
:10339000333333333320202020200000202020200E
:1033A000343434343434343434343434202020202D
:1033B0002000000000040040500000200000002019
:1033C00018ED00E000E400E042000020206B3A002D
:1033D00025732564202020202000000041000020CB
:1033E000640000200000224000002440721CC771CD
:1033F0001CC721403C0000202050574D3A000000DF
:1034000025732575202020202020000020432073D4
:10341000686964753A0000002573252E30662525FD
:103420002020202020200000400000204F4B0A00D8
:10343000704700BFFEE700BFFEE700BFFEE700BF2A
:10344000FEE770477047704736480068401E3549B0
:103450000860704710B50120FEF796FD38B10120D5
:10346000FEF7A3FD012030490860FEF761FD10BDA5
:1034700010B540F225512D48FEF7E1FF70B12B4801
:10348000FEF75DFFC4B2432C03D101202849087028
:1034900004E0532C02D102202549087010BD10B55C
:1034A00004212448FEF7CBFC01283AD1042121480D
:1034B000FEF7D6FC2048008840B91E48FEF7A3FC62
:1034C0001E49088001201C4908802AE01A4800880B
:1034D000012826D11748FEF796FC194908800846AE
:1034E000008816490988884207DD15480088134975
:1034F0000988401A1349086009E0104800884FF60F
:10350000FF71081A0E49098808440E4908600D48E1
:1035100000680D49B1FBF0F00C4908600020064935
:10352000088010BD3400002030000020004400401E
:1035300040000020000400405C00002058000020F3
:103540005A0000206000002040420F00640000206C
:1035500008B54FF4C060FDF7D1FC03208DF80000E2
:1035600001208DF8010000208DF8020001208DF867
:1035700003006846FDF7C7FC26208DF800000020F8
:103580008DF8010001208DF802008DF803006846D7
:10359000FDF7B9FC1D208DF8000000208DF801001A
:1035A0008DF8020001208DF803006846FDF7ABFCA2
:1035B00008BD00B587B001210420FDF714FA0121F0
:1035C0000820FDF710FA01211020FDF70CFA012167
:1035D0002020FDF708FA01214802FDF704FA012135
:1035E0000846FDF700FA01214FF0C050FDF708FA38
:1035F00001214804FDF704FA01210846FDF700FA0D
:1036000001210220FDF7FCF90220ADF81800182076
:103610008DF81B0003208DF81A0006A9BB48FCF7A3
:103620002FFF8020ADF8180004208DF81B00032028
:103630008DF81A0006A9B548FCF722FF4FF6FF7077
:10364000ADF8180002208DF81A0010208DF81B002C
:1036500006A9AF48FCF714FF0420ADF818000220BB
:103660008DF81A0010208DF81B0006A9A948FCF758
:1036700007FF40F20110ADF8180002208DF81A0083
:1036800028208DF81B0006A9A048FCF7F9FE0620AB
:10369000ADF8180002208DF81A0028208DF81B00C4
:1036A00006A99D48FCF7ECFE0120ADF818000020AB
:1036B0008DF81B0006A99848FCF7E2FEFFF748FFCB
:1036C000002001908DF8080001208DF809004FF4CA
:1036D000602003900020049001208DF8140001A9BF
:1036E0008E48FDF712FA0223012208218B48FDF7CC
:1036F000A4FA01224FF4A0718848FDF748FA01218D
:103700008648FDF72EFA8548FDF74DFA00BF83483D
:10371000FDF74EFA0028FAD18048FDF753FA00BFB2
:103720007E48FDF754FA0028FAD10120FEF763FC29
:10373000FDF760FC0120FDF7DDF800BF6120FDF71B
:103740002EF80028FAD04FF40070FDF7D6F80120CB
:10375000FDF7D9F8FEF7F3FBFEF7EAFB0121084677
:10376000FEF782FBFEF7E4FB49F63F40FEF7B8FBAD
:10377000FEF7DEFB4BF27840FEF7A5FBFEF7D8FB29
:1037800004216448FCF727FF4FF6FF716048FCF7FF
:1037900022FF04215F48FCF720FF07B000BD00B501
:1037A00085B00420ADF8100003208DF81200182019
:1037B0008DF8130004A95548FCF762FE0820ADF807
:1037C000100004208DF8130004A95048FCF758FE9F
:1037D0004FF4165000900020ADF80400ADF806003C
:1037E000ADF80800ADF80C000C20ADF80A006946F1
:1037F0004B48FEF7A4FC012240F225514848FEF751
:1038000036FD01214648FEF726FD05B000BD70B526
:103810000446002500BF00BF80214148FEF7F9FDA6
:103820000028F9D028466D1C215C3D48FEF783FD39
:10383000605D0028EFD170BD70B5044600F0FCF863
:10384000A02000F093F900F05FF9204600F08EF917
:1038500000F05AF900F0F0F8A12000F087F900F02C
:1038600053F900F0AFF9054600F04EF9284670BD57
:1038700070B505460C4600F0DFF8A02000F076F9A0
:1038800000F042F9284600F071F900F03DF92046B9
:1038900000F06CF900F038F900F0ECF870BD10B5EC
:1038A000FFF753F81F20FFF715F91F20FFF769F8FE
:1038B0004FF6FF70FFF762F81AA10020FFF7EDF84E
:1038C0001EA11820FFF7E9F816A13020FFF7E5F850
:1038D00020A14820FFF7E1F823A16020FFF7DDF8E1
:1038E00027A17820FFF7D9F80EA19020FFF7D5F88F
:1038F0000CA1A820FFF7D1F827A1C020FFF7CDF831
:1039000008A1D820FFF7C9F810BD00000008014049
:103910000010014000140140000C0140002401404F
:103920000044004020202020202020202020202093
:103930002020202020202020000000002020202007
:103940005265616C20446174612020202020202079
:103950000000000020432054656D703A09202020AB
:103960002020202020200000204320536869647517
:103970003A202020202020202020202000000000AD
:1039800020543A2031322D35302D30302020202067
:1039900020202020000000002020202020202020A7
:1039A0002020204E756D733A20202020000000005A
:1039B00008B58020ADF8000002208DF80200282014
:1039C0008DF8030069469F48FCF75AFD08BD08B50D
:1039D0008020ADF8000002208DF8020010208DF844
:1039E000030069469748FCF74BFD08BD10B5044637
:1039F00024B180219348FCF7EEFD03E0802191483B
:103A0000FCF7EBFD10BD10B5044624B140218D48F4
:103A1000FCF7E1FD03E040218A48FCF7DEFD10BD24
:103A200010B580218748FCF7BCFD10BD002100E0E7
:103A3000491C8142FCD3704710B50120FFF7D6FF27
:103A40004FF4FA70FFF7F2FF0120FFF7DCFF4FF4AD
:103A5000FA70FFF7EBFF0020FFF7C8FF4FF4FA7092
:103A6000FFF7E4FF0020FFF7CEFF4FF4FA70FFF7F7
:103A7000DDFF10BD10B50020FFF7C5FF4FF4FA7051
:103A8000FFF7D4FF0020FFF7B1FF4FF4FA70FFF704
:103A9000CDFF0120FFF7B7FF4FF4FA70FFF7C6FF25
:103AA0000120FFF7A3FF4FF4FA70FFF7BFFF10BD2F
:103AB00010B50524FFF77CFF4FF4FA70FFF7B6FF4F
:103AC0000120FFF7A0FF4FF4FA70FFF7AFFF0CE003
:103AD000601E84B24FF4FA70FFF7A8FF2CB9FFF70D
:103AE00076FFFFF7C7FF002010BDFFF799FF002802
:103AF000EED1FFF76CFF0020FFF785FF4FF4FA705F
:103B0000FFF794FF0120EFE710B50020FFF76EFFED
:103B10004FF4FA70FFF78AFF4FF4FA70FFF786FF51
:103B20000120FFF770FF4FF4FA70FFF77FFF0020CE
:103B3000FFF769FF4FF4FA70FFF778FF10BD10B57B
:103B40000120FFF753FF4FF4FA70FFF76FFF0120DA
:103B5000FFF759FF4FF4FA70FFF768FF0020FFF7F7
:103B600052FF4FF4FA70FFF761FF10BD70B50446C5
:103B700008251BE00020FFF746FF4FF4FA70FFF71F
:103B800055FF04F08000FFF731FF4FF4FA70FFF7A4
:103B90004DFF6006040E4FF4FA70FFF747FF012057
:103BA000FFF731FF4FF4FA70FFF740FF2800A5F14F
:103BB0000101CDB2DED1FFF726FF4FF4FA70FFF717
:103BC00035FF70BD70B508250024FFF7F1FE16E043
:103BD0006006040E0020FFF716FF4FF4FA70FFF79F
:103BE00025FF4FF4FA70FFF721FF0120FFF70BFFCD
:103BF0004FF4FA70FFF71AFFFFF712FF0443280093
:103C0000A5F10101CDB2E3D1FFF7FDFE4FF4FA704B
:103C1000FFF70CFFFFF7DBFE204670BD08B5012162
:103C20000820FCF7E0FEC020ADF8000002208DF86F
:103C3000020010208DF8030069460248FCF720FCC2
:103C400008BD0000000C01400FB41CB5074B06AACC
:103C50007B4469460090059800F079FB0020694696
:103C600000F088FB1CBC5DF814FB0000210700007D
:103C700070B505460C46012A05D02868800600D597
:103C8000EA69002302E0012305E05B1C934202D2B3
:103C9000E05C0028F9D1A869E618C01AA861286A72
:103CA000184428622846AFF3008004E0D5E90121DA
:103CB00014F8010B9047B442F8D32846AFF30080C4
:103CC00070BD00002DE9F04180460026106875297E
:103CD000414615A512D0AFF30080002803DAC0F1E9
:103CE000000012A508E0D8F800108A0701D510A539
:103CF00002E0490704D50FA5012601E0AFF30080DB
:103D0000002408F1240704E000F04FFB303139555E
:103D1000641C0028F8D133462A4621464046BDE8B7
:103D2000F04100F0AEB80000000000002D000000DF
:103D30002B000000200000002DE9F05F4FF0000B89
:103D4000044689464FF0010AC0F820B02046E168D9
:103D5000884798B3252806D0D4E901219047206AE6
:103D6000401C2062F2E7444F00267F442046E16871
:103D700088472028054608DB312D06D207EB0500D1
:103D800010F8200C08B10643F0E7B00701D526F083
:103D90000406C4F81CB00027C4F818B02A2D0ED0B1
:103DA0005246A5F130010A292ED2BAF1000F2BD0CC
:103DB000924604EB8708C8F818101AE059E059F841
:103DC000041B204604EB87029161E1688847012FBC
:103DD00005461BD1E069002823DA26F0200620E002
:103DE000D8F8180000EB800005EB40003038C8F828
:103DF00018002046E1688847A0F1300105460A29ED
:103E000002D2BAF1000FEBD1012F0AD02E2D08D12A
:103E10002046E16888477F1C0546022F46F02006B1
:103E2000BCDBA069002803DA404246F00106A0612D
:103E3000F00701D026F01006DDB1A5F141001928E8
:103E400002D8203546F400664A46294620462660B8
:103E50004E46FCF785F950B1012805D0F61D26F035
:103E6000070000F1080971E706F104096EE728462A
:103E700072E7206ABDE8F09F3C2D00007047704754
:103E800070472DE9F0470D4604469246994600F1E9
:103E900024080168880604D5E06921F0100121603A
:103EA00000E001200027A84201DDA0EB0507A16981
:103EB00007EB050202EB0300A1EB0000A061206804
:103EC000C00602D42046AFF30080002608E0D4E903
:103ED00001211AF806009047206A401C761C2062D7
:103EE0004E45F4DB2068C0060AD52046AFF30080BB
:103EF00006E0D4E9012130209047206A401C20626E
:103F0000381EA7F10107F4DC07E0D4E9012118F815
:103F100005009047206A401C2062281EA5F101057B
:103F2000F3DC2046AFF3008021680220090600D4AC
:103F30000120BDE8F08770472DE9FF4F0C461E4673
:103F40004FF0FF3789B0D2E90001DDF858800690C4
:103F50008946C1F30A5505B93D46002108464FF090
:103F60000000B9F1000F00F4400005DA00EB80001A
:103F70004FF4400101EA50004FEA905ABAF1010FA4
:103F800000DDBA46069850EA49002CD044F610509D
:103F9000A5F2FF354543CAF1000008902F14B8F18F
:103FA000000F39D07542089A291E00DC524600DA0B
:103FB000694203A800F08CFA0699484600F07BFBA2
:103FC0008DE80700A0F500501F3800900398002DE1
:103FD00025DD42F21F015246084403A903906846BA
:103FE00000F0DAFD24E0B8F1010F4FF0000001D13C
:103FF000F24307E0302101E02154401CB042FBDBDA
:1040000030460022002121540999C1F80880C1E9F5
:1040100000200DB0BDE8F08FBD1B6D1CC3E7A0F5FF
:10402000005052461F3803A90390684600F0C8FDAF
:104030008DE807000004000C03D04FF0FF3041086A
:1040400000E01046B8F1000F03D0002200921546A0
:104050001FE0751E06D400F0B7F902F13002625578
:104060006D1EF8D5B3460122084302D000227F1C02
:1040700004E02078302801D100227F1E002A079713
:104080008DD01DE0112D07DA00F09EF93032625517
:104090006D1C50EA0102F5D108430FD10021681EC2
:1040A00005E0235C625C6354491C2254401E81423B
:1040B000F7DBAB46A81B401E079001E0009848B113
:1040C000002004F80B000998079AC0F80880C0E99E
:1040D000002B9EE711264FF0000860E72DE9F04F16
:1040E00088460446D21D22F0070191B0D1E90001B3
:1040F000CDE90C0100F09AFE02460D98C10F4FF079
:104100002D0006D121682B208B0702D4202000EA45
:10411000C100032A834601D0072A05DB0346414636
:10412000204600F097F90AE12068800601D5E7698A
:1041300000E006271120B8F1650F06D0B8F1660F30
:1041400011D0B8F1670F67D128E00023112F009339
:1041500000DA781C03460CAA01A909A8FFF7ECFEB7
:1041600000267D1C3FE001234FF000490CAA01A965
:1041700009A800933B46FFF7DFFEDDE90A50002661
:1041800020B9099907F1010001EB0005781B02D461
:104190007D1CC0F1FF36A5EB070A3DE0012F00DAD8
:1041A00001270023112F009300DC384603460CAA98
:1041B00001A909A8FFF7C0FE20683D4600260007B8
:1041C0000BD40A98A84200DA054601A8012D04DDA7
:1041D000411911F8011C302909D00998B84202DAB6
:1041E00010F1040F05DA4FF0010A099813E06D1E73
:1041F000ECE7002802DC2D1A064405E0401CA8422A
:1042000002DD099D05F101050998A0EB060000F10A
:10421000010A4FF0004081462068000703D4AA45F8
:1042200001DB4FF0FF3A0020B9F1004F0DF13F07DD
:104230008DF83F0024D04FF002082B20B9F1000F79
:1042400000900BDA2D20C9F10009009006E04846E5
:1042500000F0ABF83031814607F8011DB8F10001DC
:10426000A8F10108F3DCB9F1000FF0D1009807F8CC
:10427000010D21684520090500D4652007F8010DCE
:104280000EA8A0EB070000F107085FEA0B0000D0C2
:10429000012000EB050101EBEA7101EB0800A169C7
:1042A000A1EB0000A0F10100A0612068C00602D4CB
:1042B0002046AFF300805FEA0B0006D0D4E901216D
:1042C0009047206A00F1010020622068C00621D5D5
:1042D0002046AFF300801DE0002E05DB0A98B042B7
:1042E00002DD01A8805D00E03020D4E90121904783
:1042F000206A761C401CBAF1010A20620AD100F043
:104300005DF8C0680168405CD4E901219047206AEB
:10431000401C2062281EA5F10105DDDC07E0D4E980
:10432000012117F8010B9047206A401C2062B8F168
:104330000001A8F10108F2DC2046AFF30080022062
:1043400011B067E601694A1C02610878704700B540
:104350008FB0CDE901310021059105497944CDE9BE
:10436000031011466846FFF7E7FC0FB000BD0000E0
:10437000E5FFFFFF0A6802F8010B0A60704710B5FD
:10438000436913B1AFF3008001E0FFF771FC012036
:1043900010BD126800F124010A7000224A70012247
:1043A000EDE711684FF0FF32E9E74FF00A01B0FB8B
:1043B000F1F202FB110110467047000001487047FE
:1043C000704700BF9C00002030B5B0F10A024FEAF0
:1043D000900E71F100034EEA817EB0EB0E0061EBAE
:1043E00091014FEA101E4EEA017E10EB0E0041EBE8
:1043F00011114FEA102E4EEA016E10EB0E0041EB48
:1044000011214FEA104E4EEA014E10EB0E0041EB27
:104410001141401841F100014FEAD00040EA4170DB
:104420004FEAD10110EB80054FEA810444EA907411
:1044300044EB01046D1944EB0404521BA3414FF0FB
:10444000000348BF0A3200D530BD401C41F10001D5
:1044500030BD00002DE9F04104461F4603260168E7
:10446000072A01F4006003DB15A520B915A502E0B9
:1044700015A500B915A521F010002060A069C01E87
:10448000A0610FB1401EA0612046AFF300804FB184
:10449000D4E9012138469047206A401C2062C01CA4
:1044A000206206E0206AFAE7D4E9012115F8010B41
:1044B0009047761EF8D22046AFF30080BDE8F08129
:1044C0004E414E006E616E00494E4600696E6600B8
:1044D0002DE9F047814616468AB037487844D0E93E
:1044E000002380680092CDE90130334878440C38CD
:1044F000D0E9022300690392CDE9043041F69B33F1
:104500004FF0370001EB0302194492FBF0F591FBE9
:10451000F0F2A5F1800500FB12141B3C02D56442A9
:10452000012000E00020DFF890A080460027FA4438
:10453000AAF1CE0A0DE0E00709D03246684607EB43
:1045400047010AEB810100F03BFB8DE80700641096
:104550007F1C002CEFD1184F7F44BC3F17E0E807C9
:1045600013D007EB04100DF1180A90E80E00AAE82A
:104570000E00C068F04201D198190890324606A991
:1045800003A800F01DFB03AB07C36D10641C002DD6
:10459000E5D132466946B8F1000F03A802D000F019
:1045A000FBFA01E000F00CFBC9E90001C9F80820A2
:1045B0000AB0BDE8F08700005826000000487047A8
:1045C0007C0000207546FFF7F9FFAE4605006946FE
:1045D000534620F00700854618B020B5FBF7FAFDDA
:1045E000BDE820404FF000064FF000074FF00008F4
:1045F0004FF0000B21F00701AC46ACE8C009ACE875
:10460000C009ACE8C009ACE8C0098D467047044653
:10461000AFF300802046FBF7C8FD00004FF0013CDF
:1046200050F8042B51F8043B9A4221D1A2EB0C0321
:10463000934313EACC1317D150F8042B51F8043BE1
:104640009A4215D1A2EB0C03934313EACC130BD17E
:1046500050F8042B51F8043B9A4209D1A2EB0C0309
:10466000934313EACC13DBD04FF00000704700BF38
:10467000D01A01BAB1FA81F101F0180122FA01F061
:10468000CB40C1F12001DBB2C0B2C01A2CFA01F359
:10469000D11A914311EAC311E6D17047014870471E
:1046A000704700BF8000002001491820ABBEFEE724
:1046B0002600020070475FEA400C08BF91F0000F2F
:1046C0004FEA8C234FEAC12243EA51514FEA1C5072
:1046D00018BF00F5F0404FEA300018BF41F000412C
:1046E0005FEA6C5C00F02980BCF1FF3F08BF40F03E
:1046F00080407047130C06BF12044FF0100C4FF0AF
:10470000000C130E04BF12020CF1080C130F04BFAF
:1047100012010CF1040C930F04BF92000CF1020C77
:10472000D30F04BF52000CF1010C11464FF00002F0
:10473000A0F11F00A0EB0C00704711F0004F08BF64
:10474000704731F000413FF4D5AF0B0C06BF0904B0
:104750004FF0100C4FF0000C0B0E04BF09020CF1CF
:10476000080C0B0F04BF09010CF1040C8B0F04BFE4
:1047700089000CF1020CCB0F04BF49000CF1010CB5
:10478000CCF12003A0EB0C0022FA03F302FA0CF2A6
:1047900041EA030100F10100704720F07F4C80EAFC
:1047A000030023F07F47ACEB070303F57C5300F0D5
:1047B000004003F1FF032DE980494FEA154B09B48E
:1047C0004FEA144325EA0B4E24EA03480FF204266D
:1047D00006EB132749083E785FEA320203FB0667BF
:1047E000C7F5000707FB06F64FEA54374FEAD646EF
:1047F00006F1020607FB066CCCF1005C4FEA1C4791
:104800002CEA074C07FB06F40CFB06F504EB1546F7
:104810004FEA961634BF00204FF000404FEAD137E0
:1048200006FB07FC4FEA1C4C0CFB0BF7D21B03FBEF
:104830000CF761EB07010CFB0EF7B0EB074072EBD6
:1048400017420CFB08F734BFA2EB0742B2EB07425A
:1048500061EB17414FEA0C444FEA910706FB07FC56
:104860004FEA1C4C0CFB0BF7B0EBC74072EB573216
:1048700003FB0CF734BFA2EBC742B2EBC74261EBBC
:1048800057310CFB0EF7B0EBC70072EB57720CFB05
:1048900008F734BFA2EBC702B2EBC70261EB577156
:1048A000039F4FEA816141EA921104EBCC044FEA85
:1048B000D1374FEA826206FB07FC42EA90124FEAC8
:1048C00080604FEA1C4C0CFB0BF7D21B03FB0CF770
:1048D00061EB07010CFB0EF7B0EB074072EB1742E0
:1048E0000CFB08F734BFA2EB0742B2EB074261EBC7
:1048F00017414FEA8C554FEA910704EB9C2406FBC5
:1049000007FC4FEA1C4C0CFB0BF7B0EBC74072EBFB
:10491000573203FB0CF734BFA2EBC742B2EBC742DE
:1049200061EB57310CFB0EF7B0EBC70072EB57721F
:104930000CFB08F734BFA2EBC702B2EBC70261EB76
:10494000577115EB4C254FEA816141EA92114FEA0C
:1049500082624FEAD13742EA901206FB07FC44F12B
:1049600000044FEA80604FEA1C4C0CFB0BF7D21B93
:1049700003FB0CF761EB07010CFB0EF7B0EB0740F4
:1049800072EB17420CFB08F734BFA2EB0742B2EB05
:10499000074261EB174115EB1C154FEA813141EAE3
:1049A00092414FEA823242EA90424FEA80304FEA27
:1049B0000C7644F1000448EA03434EEA0B484FF0FA
:1049C000000EB2EB080C71EB030724BF62463946B8
:1049D0004EEB0E0E4FF0000B0018524149414BEBCD
:1049E0000B0BB2EB080C71EB03077BF1000B24BF40
:1049F000624639464EEB0E0E4FF0000B0018524146
:104A000049414BEB0B0BB2EB080C71EB03077BF14D
:104A1000000B24BF624639464EEB0E0E51EA0207E8
:104A200018BF46F0010616EB0E7655F1000254F160
:104A3000000103D5BDE88901BDE80088BDE8890112
:104A4000BDE80048B619524141EB0101A3F1010351
:104A5000704780807F7E7D7C7B7A797877767675EB
:104A60007473727171706F6E6E6D6C6C6B6A6A6963
:104A70006868676666656464636362616160605FFD
:104A80005F5E5E5D5D5C5C5B5B5A5A595958585776
:104A900057565655555554545353525252515150DE
:104AA00050504F4F4F4E4E4D4D4D4C4C4C4B4B4B31
:104AB0004A4A4A4949494848484747474746464677
:104AC00045454544444444434343434242424241B2
:104AD0004141002B26D4770021D01CB54FEA37077F
:104AE00003B44FF010004FF010014FF000000FBC66
:104AF000BDE810400BF1010BBBF1010F08BF5FEAED
:104B0000170722BF12F1010211F101014FF000411C
:104B100043F1000300F0004043EA00007047F9D37E
:104B20005708DAE746EA064613F1400F4FEA164601
:104B30001FDD13F1200FDFBF16430A46002120338B
:104B40005B42C8D0C3F1200746EA064602FA07F7DF
:104B50004FEA164646EA0706C3F1200722FA03F297
:104B600001FA07F721FA03F14FF0000342EA0702C6
:104B7000B1E746EA020646EA06464FEA164646EA24
:104B80000106BCBF46EA0646360C4FF000034FF064
:104B900000024FF000019EE72DE9C048934630B473
:104BA00091E8380007C831EA400C48BF34EA430CAA
:104BB00003D5FFF7F2FDFFF78CFFF0BCBDE80088DE
:104BC0002DE9C048934630B491E8380007C810F08A
:104BD000804F08BF13F0804F03D100F005F8FFF7B6
:104BE00078FFF0BCBDE8008820F07F4780EA030032
:104BF00023F07F4C07EB0C03A3F57C5300F000403F
:104C0000A3F1FE0392F0000F00F0B38095F0000FC7
:104C100000F077802DE901494FEA11404FEA144630
:104C200021EA004800FB06FC24EA064708FB06F6DA
:104C300007FB08F800FB07F718EB06484CEB164C8F
:104C40004FEA124B18EB07484FEA15464CEB17405A
:104C500022EA0B4E0BFB06FC25EA06470EFB06F686
:104C600007FB0EFE0BFB07F71EEB064E4CEB164C3C
:104C70004FF000061EEB074E4CEB174B18EB0B08E2
:104C800040F1000018EB0E0B58EB000840F100005B
:104C90008F1A4FF000013CBFC943661B14BFB5EB30
:104CA000040C00213CBFC943F61B4FEA17444EEAEF
:104CB0008E0E27EA04454FEA1C4704FB07622CEAE4
:104CC000074C05FB07F70CFB05F604FB0CFC16EB89
:104CD000074642EB174216EB0C4642EB1C421BEB1D
:104CE000060658EB0202414146EA9E0601D5BDE8A0
:104CF0000189B619524141EB0101A3F10103BDE85D
:104D000001894FEA14454FEA114724EA054621EA92
:104D1000074C05FB07F406FB07F70CFB06F105FB48
:104D20000CFC11EB074144EB17444FEA124711EB1F
:104D30000C4144EB1C4422EA074C05FB07F206FB3E
:104D400007F70CFB06F605FB0CFC16EB074642EBDF
:104D5000174216EB0C4642EB1C456A1854F1000151
:104D600048BF7047B619524141EB0101A3F101035D
:104D7000704795F0000F37D04FEA11424FEA1447C1
:104D800021EA024624EA074C02FB07F106FB07F77B
:104D90000CFB06F402FB0CFC14EB074441EB17413F
:104DA0004FEA154714EB0C4441EB1C4125EA074C34
:104DB00002FB07F506FB07F70CFB06F602FB0CFCF3
:104DC00016EB074645EB174516EB0C4645EB1C4228
:104DD000121951F1000148BF7047B619524141EB19
:104DE0000101A3F1010370474FEA14454FEA11474F
:104DF00024EA054621EA074C05FB07F106FB07F705
:104E00000CFB06F24FF0000605FB0CFC12EB074210
:104E100041EB174112EB0C4251EB1C4148BF70476C
:104E2000921841EB0101A3F101037047490050EAD8
:104E3000C12018BF04204A0D18BF40F0010040F205
:104E4000FF72B2EB515F08BF40F00200012808BFBB
:104E50000520704710B500290AD00878002807D02F
:104E600005487844FFF7DAFB002801D0002010BD88
:104E70000248784410BD00000E1D0000061D000011
:104E800021F00042A2F16052B2F5801F01F0004310
:104E900028BFD2F17F6C0BD95FEA001C43EAC20243
:104EA00042EB507018BF704728BF20F001007047D8
:104EB000B2F5801FBCBF184670474FEA410C1CF585
:104EC000001F02D2084600F001BD70B500F0C6FA1E
:104ED00000000089FFF7F6BF4FF00040A0F580000A
:104EE0007047000010B591EA030F48BF83F00043FC
:104EF00000F11083841A71EB030E05D2121943EBF3
:104F00000E03001B61EB0E01DFF820C14FEA1154C4
:104F1000A4EB135E1CEA430F18BF9CEA445F71D0F8
:104F200023EA0C03DEF1200C21EA045143F4801340
:104F300032D322FA0EFC10EB0C0023FA0EFC41EBEC
:104F40000C01CEF1200C03FA0CFC10EB0C0051F11B
:104F50000001B1F5801FCEF1200C32D201EB0451DB
:104F6000BDE8104012FA0CF258BF7047401C38BF21
:104F70005FEA420218BF7047002814BF20F001000A
:104F800041F100014FEA410313F5001F38BF70479C
:104F9000A1F1C04100F0B0BA012A43EB0302AEF127
:104FA000200EDEF11F0C32BF4FF0000C23FA0EF37F
:104FB00010EB030041EB0451B4EB115FD0D0A1EB37
:104FC000045101F58011490801EB0451BDE810407E
:104FD0005FEA30000CD350F1000038BF12FA0CFC2D
:104FE00006D1C9E7401C38BF5FEA4202CAD1C3E715
:104FF0004FEA410313F5001F38BF7047A1F1C041CC
:1050000000F07ABA9CEA445F08D0BDE8104011EA8B
:105010005C0F04BF01F0004100207047BDE8104064
:1050200070B500F01BFA00BF64FBBE3E0000E0FF5D
:105030002DE9C04130B4DFF8A0C23CEA111418BF1A
:105040003CEA131400F0EC8081EA03051CEA111419
:1050500044EAD57418BF1CEA131500F0C780A4EB0E
:1050600005044FF0004545EAC12145EAC32341EA62
:10507000505143EA525304F17F74994204F50034CD
:105080004FEAC0204FEAC22208BF904200F09C8045
:105090004FEA13650FF24016765D4FEA134506FBA3
:1050A00005F7C7F1807706FB07F74FEAD737A7FB6D
:1050B00003687642C8F58038A7FB06CE38BFA8F152
:1050C000010807FB08E64FF0000EA6FB028CE6FB8A
:1050D00003CEDCF1000CCEF1004E38BFAEF1010E74
:1050E000A6FB0C584FF000074FF00005E6FB0E87BB
:1050F000A1FB08C6A0FB07CE16EB0E0645F1000586
:10510000E1FB076515F1E04E7EBFA4F580345FEA50
:1051100046066D4116F1800745F100054FEA172755
:105120004FEA066647EA0567A6F1DE46B6F1805FFC
:105130004FEA15251FD9384624F0010C05EBC47140
:10514000BCF1FE6F01EB0C1102D8F0BCBDE8008190
:1051500024425CBF01F5801E9EEAC47F02D4F0BCED
:10516000BDE80081244238D4F0BCA1F1C041BDE8C3
:10517000004100F0C1B94FEAD22242EA43524FEA5D
:10518000D323A7FB02864FEAD02040EA415007FB19
:1051900003661EEA0E0F4FEAD12105FB026658BFD7
:1051A000A6EB0056B6EB00564FEA520E4EEAC37E0F
:1051B00018EB0E0E56EB530EBDD518EB02085E41F0
:1051C0007F1C55F10005B6E74FF480154FF000073E
:1051D0004FF000064FF00008ADE7F0BC4FF00000C4
:1051E00001F1C04101F00041BDE8008111EA0C1F4E
:1051F0000CEA131500D00CE013EA0C1F00F0258018
:105200004FF00000F0BC81EA030101F00041BDE86D
:105210000081F0BCBDE8004181EA030100F06CB9F7
:10522000F0BCBDE8004170B500F018F9097EFC3E05
:1052300000F007B881EA03014FF0000001F00041DF
:10524000704781EA030100F057B9F0BCBDE80041A6
:105250004FF0000021497047FFFDFBF9F7F5F4F22C
:10526000F0EEEDEBE9E8E6E4E3E1E0DEDDDBDAD801
:10527000D7D5D4D3D1D0CFCDCCCBCAC8C7C6C5C45F
:10528000C2C1C0BFBEBDBCBBBAB9B8B7B6B5B4B376
:10529000B2B1B0AFAEADACABAAA9A8A8A7A6A5A461
:1052A000A3A3A2A1A09F9F9E9D9C9C9B9A99999825
:1052B0009797969595949393929191908F8F8E8EC8
:1052C0008D8C8C8B8B8A8989888887878685858455
:1052D00084838382828181800000FF070000F87F41
:1052E000B0FA80F310FA03F10AD0C3F11D0303F5FD
:1052F00080634FEA41504FEA035202EBD1217047DD
:105300004FF0000070470000DFF848C170B51CEA9C
:10531000111E1EBF1CEA13159EEA0C0F95EA0C0F16
:1053200000F06F8081EA030423EA4C134EEAD47E36
:1053300021EA4C1141F4801143F48013AE44A1FBE7
:10534000024CA0FB0365AEF17F7E361955EB0C05D0
:10535000A1FB034C4CF10003A0FB021C16EB0C0656
:10536000654153F10003094218BF46F0010613F4EA
:10537000007F0BD14FEA03314FEA0530340341EA95
:10538000155140EA16506FF003020AE04FEAC321BC
:105390004FEAC520F40241EA555140EA56506FF0F9
:1053A000020202EB2E4201EB025585EACE710AD0D1
:1053B0005FEA440C18BF24F0004450F1000041F1B2
:1053C000000120EAD47040F2FE7C624500D270BD3C
:1053D000A84214BF4FF080444FF04044002E08BF55
:1053E0000024BEF1806FA8BFA1F1C041BDE87040AC
:1053F00080F282804FF0000001F1C04101F00041D5
:1054000070479EEA0C0F0CEA131518BF95EA0C0FB3
:1054100006D04FF0000081EA030E0EF0004170BD8F
:1054200000F01CF88900013E00F007B800F009B850
:105430004FEA430C5FEA5C5C08D081EA030100F0AC
:105440005BB84FEA410C5FEA5C5CF6D14FF00000BC
:10545000014970470000FF070000F87F0EF1020EBF
:105460002EF0030E5EF8046B364205D4012A43EB9E
:10547000030515F5001F12D8012841EB010C1CF59E
:10548000001F0CD80ED14FEAD17C15F5001F0CEB94
:105490004C0C0CF1020C08BF4CEBD37C04E04FF039
:1054A000080C01E04FEAD37C0CEB4C0526FA05F61C
:1054B00006F00706B6F1040C06D20EEB860CBDE82A
:1054C00070404CF0010C6047DFE80CF0090B020261
:1054D0004FF000414FF00000A1F5002170BD1946CA
:1054E0001046012851EB010418BFD4F5001484BF05
:1054F000002001F0004170BD0808A0F500114FEA3E
:105500003101704710B591EA030F48BF83F00043A3
:105510003FF5F0AC841A71EB030E07D212198EF02E
:10552000004E43EB0E03001B61EB0E01DFF8A4C13C
:105530004FEA1154A4EB135E1CEA430F18BF9CEA18
:10554000445F00F0B08023EA6C03524221EA045128
:10555000C3EB6C0338BF5B1EDEF1200C25D322FAAF
:105560000EFC10EB0C0043FA0EFC41EB0C01CEF1EB
:10557000200C03FA0CFC10EB0C0051F10001CEF1F1
:10558000200C29D401EB0451BDE8104012FA0CF2B2
:1055900058BF7047401C1CBFB2F1004F7047002835
:1055A0000CBF491C20F00100704712EB020C43EBCA
:1055B000030218BF4FF0010C4CEA4202AEF1200E7C
:1055C000DEF11E0C54D943FA0EFC10EB0C0051F125
:1055D000FF31CEF11E0CD5D50CF1010C12FA0CFCEA
:1055E000404141EB010101EB445E5FEA5E5E10D990
:1055F00001EB0451BDE8104010EBDC7038BFBCF18A
:10560000004F18BF704700280CBF491C20F0010054
:10561000704730D24FEAD42E11F5001124F4006403
:105620001BD0B1FA81F20B3AA41AA41ED2F12003C6
:10563000914030FA03F31943904001EBCE71002CF6
:1056400001EB0451BDE81040A8BF704701F1C04113
:105650004FF0000001F000417047B0FA80F310FAFB
:1056600003F100D110BDE41A173C4805C90AE4E76C
:1056700001EB045110BD491001EB0451BDE810408D
:105680004FEA300002E04FF0000170474A0008BFC7
:105690000042F8D0B2F5001F28BF704701F000416A
:1056A0004FF0000070479CEA445F07D0BDE810400F
:1056B00011EA5C0F04BF002100207047BDE81040D4
:1056C00070B5FFF7CBFE00BF40DFF63E83F0004130
:1056D000104670470000E0FF43004FEAD30C4FEA4A
:1056E0003C0C43401FBF40070CF1605113F0FE4FCC
:1056F00070471CF0006F03D100200CF00041704790
:105700000CF0004343EA507010B540EACC0000F0C2
:1057100090F800BF000000924FEA0001FFF7ECBED6
:105720004FF000414FF00000A1F50021704700004C
:105730004FF47F0C1CEAD0121EBF1CEAD11392EA70
:105740000C0F93EA0C0F00F0478090EA010F48BF5E
:1057500042F480724FF0004C4CEA00204CEA0121E8
:1057600002EB0302A0FB0113A2F50002002918BFFF
:1057700043F001035B0028BF4FEA330342EB2242B0
:105780005FEA132C4CEBC2502EBFBCEB436FB2F55B
:105790007C0F70474FEA036CBCF1004F08BF20F04C
:1057A0000100B2F57C0F38BF70470BD582F0FF02C5
:1057B00012F5803FC8BF704700F1C040D8BF00F06D
:1057C0000040704700F5000C5FEA4C0C48BF704782
:1057D000B0F1C04000F07AB890EA010F0CEAD113A2
:1057E00048BF42F48072624538BF634504D280EA04
:1057F000010000F00040704710B500F01AF800BF3B
:105800008900013E00F007B800F009B85FEA410CDA
:105810005FEA1C6C08D080EA010000F057B85FEA2C
:10582000400C5FEA1C6CF6D14FF00040A0F5800000
:1058300070470EF1020E2EF0030E5EF8044B244268
:1058400004D44FEA4102B2F17F4F11D84FEA40032E
:10585000B3F17F4F0CD80ED14FEAD07CB2F17F4F1D
:105860000CEB4C0C0CF1020C08BF4CEBD17C04E0AF
:105870004FF0080C01E04FEAD17C0CEB4C0324FA0A
:1058800003F404F00704B4F1040C06D20EEB840C0C
:10589000BDE810404CF0010C6047DFE80CF0070851
:1058A00002024FF00040A0F5800010BD0846420003
:1058B00018BFD2F1807288BF00F0004010BD10B553
:1058C000FEF7ECFE4FF00001016010BDFF2141EA40
:1058D000D050C0057047FEF701BC0000000000007A
:1058E00000000000000000000000000000000000B8
:1058F00000000000000000000000000000000000A8
:105900000000000000000000000000008001800195
:10591000800180018001800180018001800180017F
:1059200080018001800100000000800180010000F2
:105930000000000000000000000000000000CC009B
:10594000CC00CC00CC00CC00CC000000000000005B
:105950000000000000000000000000000000000047
:105960000000000000000000000000000000000037
:10597000000000000000600C600C600C3006300677
:10598000FE1FFE1F300638071803FE1FFE1F1803F8
:1059900018038C018C018C01000000008000E003E2
:1059A000F80F9C0E8C1C8C188C009800F801E007F6
:1059B000800E801C8C188C189C18B80CF00FE0031B
:1059C00080008000000000000000000000000000D7
:1059D0000E181B0C110C11061106110311039B016B
:1059E0008E01C038C06C6044604430443044184478
:1059F000186C0C380000000000000000E001F0030B
:105A00003807180618063003F001F000F8009C3142
:105A10000E33061E061C061C063FFC73F021000018
:105A200000000000000000000000000000000C006A
:105A30000C000C000C000C000C000000000000002A
:105A40000000000000000000000000000000000056
:105A50000000000000000000000000000002000341
:105A60008001C000C00060006000300030003000E5
:105A70003000300030003000300060006000C000B6
:105A8000C000800100030002000000002000600050
:105A9000C00080018001000300030006000600062C
:105AA0000006000600060006000600030003800151
:105AB0008001C00060002000000000000000000025
:105AC000000000000000C000C000D806F807E00198
:105AD0003003380700000000000000000000000054
