:020000040800F2
:10000000F0060020B1010008ED290008EF290008E2
:10001000F3290008F7290008FB2900080000000068
:10002000000000000000000000000000012A00089D
:10003000FF29000800000000032A0008052A000824
:10004000CB010008CB010008CB010008112A0008F1
:10005000CB010008CB010008CB010008CB01000850
:10006000CB010008CB010008CB010008CB01000840
:10007000CB010008CB010008CB010008CB01000830
:10008000CB010008CB010008CB010008CB01000820
:10009000CB010008CB010008CB010008CB01000810
:1000A000CB010008CB010008CB010008CB01000800
:1000B000CB010008CB010008CB010008CB010008F0
:1000C000CB010008CB010008CB010008CB010008E0
:1000D000CB010008CB010008412A0008CB01000831
:1000E000CB010008CB010008CB01000800F002F8AA
:1000F00000F04FF80AA090E8000C82448344AAF173
:100100000107DA4501D100F044F8AFF2090EBAE870
:100110000F0013F0010F18BFFB1A43F0010318473B
:10012000245C0000445C0000103A24BF78C878C109
:10013000FAD8520724BF30C830C144BF04680C60ED
:10014000704700000023002400250026103A28BF35
:1001500078C1FBD8520728BF30C148BF0B60704739
:10016000662904F0B284642903F03A80732903F00D
:10017000A683002070471FB504F09BFC03F0ACFB86
:1001800004000020002104F0F3F8E0601FBD10B56A
:1001900010BD03F0A5FC1146FFF7EDFF02F057FB81
:1001A00003F0C3FC03B4FFF7F2FF03BC03F00AFD46
:1001B0000948804709480047FEE7FEE7FEE7FEE7FB
:1001C000FEE7FEE7FEE7FEE7FEE7FEE70448054937
:1001D000054A064B70470000B9020008ED00000810
:1001E000F0000020F0060020F0020020F0020020C5
:1001F00000210020674A126842F48032654B1A6081
:1002000000BF644A126802F40030491C10B9B1F50D
:10021000A06FF6D15F4A126812F4003F01D00120AE
:1002200000E00020012842D15B4A126842F010022F
:10023000594B1A601A46126822F003021A601A46D5
:10024000126842F002021A60524A5268514B5A60D8
:100250001A4652685A601A46526842F480625A60DE
:100260001A46526822F47C125A601A46526842F4C6
:10027000E8125A601A46126842F080721A6000BF93
:10028000444A126812F0007FFAD0424A526822F0C3
:100290000302404B5A601A46526842F002025A600A
:1002A00000BF3C4A526802F00C02082AF9D170479C
:1002B00010B5FFF79DFF10BD10B53648006840F03F
:1002C0000100344908600846406834490840314913
:1002D000486008460068324908402E4908600846D0
:1002E000006820F4802008600846406820F4FE0082
:1002F00048604FF41F008860FFF7DAFF4FF000609E
:100300002849086010BD10B5002100200022214BB3
:100310005B6803F00C0121B1042906D0082928D11B
:1003200007E0214B214C236027E01F4B1F4C23602B
:1003300023E0184B5B6803F47010164B5B6803F402
:100340008032022303EB904022B9194B4343174CF0
:1003500023600DE00F4B5B6813F4003F04D0144B97
:100360004343124C236003E00F4B43430F4C236085
:1003700003E00D4B0D4C236000BF00BF054B5B68D5
:10038000C3F303130B4CE15C084B1B68CB40074CD9
:10039000236010BD00100240002002400000FFF862
:1003A000FFFFF6FE08ED00E000127A0000000020DA
:1003B00000093D000400002010B50446CA488442EC
:1003C00008D10121042000F024FB0021042000F0CA
:1003D00020FB46E0C548844208D10121082000F0F6
:1003E00018FB0021082000F014FB3AE0C0488442CA
:1003F00008D10121102000F00CFB0021102000F09A
:1004000008FB2EE0BB48844208D10121202000F0E7
:1004100000FB0021202000F0FCFA22E0B6488442D4
:1004200008D10121402000F0F4FA0021402000F022
:10043000F0FA16E0B148844208D10121802000F092
:10044000E8FA0021802000F0E4FA0AE0AC48844297
:1004500007D10121801500F0DCFA0021A01500F081
:10046000D8FA10BD10B50121084600F0D2FA0021DB
:10047000012000F0CEFA10BD2DE9F0410246002522
:100480000026002000230024002791F803C00CF070
:100490000F0591F803C01CF0100F03D091F802C0B3
:1004A0004CEA0505B1F800C01CF0FF0F31D014680C
:1004B00000202BE04FF0010C0CFA00F3B1F800C063
:1004C0000CEA03069E4220D183004FF00F0C0CFA79
:1004D00003F7BC4305FA03FC4CEA040491F803C09B
:1004E000BCF1280F06D14FF0010C0CFA00FCC2F849
:1004F00014C00AE091F803C0BCF1480F05D14FF0D9
:10050000010C0CFA00FCC2F810C0401C0828D1D322
:100510001460B1F800C0BCF1FF0F34DD5468002056
:100520002EE000F1080C4FF0010808FA0CF3B1F8C6
:1005300000C00CEA03069E4221D183004FF00F0C4D
:100540000CFA03F7BC4305FA03FC4CEA040491F8E7
:1005500003C0BCF1280F05D100F1080C08FA0CF813
:10056000C2F8148091F803C0BCF1480F07D100F124
:10057000080C4FF0010808FA0CF8C2F81080401C73
:100580000828CED35460BDE8F0814FF6FF7101809A
:10059000022181700421C1707047024600209368D7
:1005A0000B4201D0012000E000207047014688681E
:1005B00080B2704702460020D3680B4201D0012070
:1005C00000E0002070470146C86880B270470161B2
:1005D0007047416170470AB1016100E041617047B5
:1005E000C16070474FF480320A4382618161826149
:1005F00082698269704702460020424B18684FF6B4
:100600008073184040EA021008433E4B1860704760
:100610003D49C8617047F0B50A4600230024002117
:10062000002500F00046B6F1004F02D1354EF169C9
:1006300001E0344E7168C0F3034583B200F4401604
:10064000B6F5401F08D121F070612E4E766826F075
:1006500070662C4F7E6012E000F48016B6F5801FA5
:1006600006D1032606FA05F4A14341F0706106E0C5
:10067000460D360103FA06F6B14341F0706122B12E
:10068000460D360103FA06F6314300F00046B6F196
:10069000004F02D11B4EF16101E01A4E7160F0BDB6
:1006A00030B500228B071C0F0F2303FA04F2154B01
:1006B00008338C1053F824309343124C08348D10B7
:1006C00044F8253023468C1053F824308C07240F2F
:1006D00000FA04F423430B4C08348D1044F8253001
:1006E00030BD0A490860704700080140000C014015
:1006F000001001400014014000180140001C01409E
:10070000002001400000014000002042DC002042A7
:10071000DB48006840F00100D9490860084640689D
:10072000D8490840D649486008460068D64908407C
:10073000D34908600846006820F480200860084615
:10074000406820F4FE0048604FF41F008860704746
:10075000CB49096821F48031C94A11601146096802
:1007600021F480211160B0F5803F03D0B0F5802FD7
:100770000ED106E0C249096841F48031C04A1160D7
:1007800007E0BF49096841F4A021BD4A116000E0BB
:1007900000BF00BF704710B50146002200230020B3
:1007A0004A11012A02D1B64C236806E0022A02D17E
:1007B000B34C236A01E0B24C636A01F01F020124CA
:1007C00094401C4201D0012000E0002010BD70B513
:1007D00000240025002600BF3120FFF7DCFF06467D
:1007E000641CB4F5A06F01D0002EF5D03120FFF7C6
:1007F000D2FF08B1012500E00025284670BD014662
:1008000000209F4A106820F0F80040EAC100106004
:1008100070479E490860704702460020984B586810
:1008200020F47C1042EA01031843954B586070474E
:1008300096490866704701460020914A506820F0AA
:1008400003000843506070478D48406800F00C007A
:100850007047014600208A4A506820F0F0000843A3
:100860005060704701460020854A506820F4E060DF
:1008700008435060704701460020814A506820F4C8
:10088000605040EAC1005060704729B17C4A527AFA
:1008900002437B4B5A7206E0794A527AC343DBB279
:1008A0001A40774B5A727047794908607047014681
:1008B0000020734A506820F440400843506070475D
:1008C0000021744A11706E4A82F82010012802D06B
:1008D000042808D103E001216E4A117004E00521CB
:1008E0006C4A117000E000BF00BF70476A490860A1
:1008F00070476349096A0143614A11627047674959
:100900000860704730B500210022002400235C4DB0
:100910006D6805F00C0121B1042905D0082923D107
:1009200005E05F4D056022E05D4D05601FE0544D20
:100930006D6805F47012524D6D6805F4803402251F
:1009400005EB92421CB9574D554305600BE04C4DE9
:100950006D6815F4003F03D0524D5543056002E029
:100960004F4D5543056002E04D4D056000BF00BF8F
:10097000434D6D6805F0F00109094B4D6B5C05684E
:10098000DD4045603E4D6D6805F4E061090A464D65
:100990006B5C4568DD408560394D6D6805F46051DC
:1009A000C90A414D6B5C4568DD40C560344D6D68DA
:1009B00005F44041890B3D4D6B5CC568B5FBF3F513
:1009C000056130BD29B12E4A526902432C4B5A6150
:1009D00004E02B4A52698243294B5A61704729B17E
:1009E000274A92690243264B9A6104E0244A92699D
:1009F0008243234B9A61704729B1214AD26902434D
:100A00001F4BDA6104E01E4AD26982431C4BDA6153
:100A1000704729B11A4AD2680243194BDA6004E0E0
:100A2000174AD2688243164BDA60704729B1144ADC
:100A300012690243124B1A6104E0114A126982439F
:100A40000F4B1A6170471A49086070470F49C86414
:100A500070470B49C87170470948406A40F0807080
:100A600007494862704701460020054A92680A42D9
:100A700001D0012000E000207047014988727047D2
:100A8000001002400000FFF8FFFFF6FE00004242A7
:100A9000D800424220100240800442423C044242BC
:100AA00000127A0000093D001400002024000020FC
:100AB0004004424210B50446F848844208D101215E
:100AC0004015FFF7A6FF00216015FFF7A2FF17E012
:100AD000F348844208D101210015FFF79AFF002155
:100AE0002015FFF796FF0BE0EE48844208D1012164
:100AF000C803FFF78EFF00214FF40040FFF789FF86
:100B000010BD30B50246002000235068E64C20405E
:100B10000D790C6844EA0524204350609068E34C4A
:100B20002040D1E902542C434D7944EA4504204346
:100B30009060D06A20F470000C7C641EE4B2234301
:100B400040EA0350D06230BD002101600171417163
:100B50008160C16001210174704721B1826842F057
:100B60000102826003E0826822F001028260704725
:100B700021B1826842F48072826003E0826822F4CC
:100B800080728260704710B50023CBB21AB14468FE
:100B90001C43446002E044689C43446010BD81688B
:100BA00041F0080181607047014600208A6812F018
:100BB000080F01D0012000E000207047816841F05B
:100BC000040181607047014600208A6812F0040F1A
:100BD00001D0012000E00020704721B1826842F47A
:100BE000A002826003E0826822F4A0028260704763
:100BF000014600208A6812F4800F01D0012000E035
:100C00000020704710B50A4600210023416821F4F6
:100C10006041531E41EA4331416010BD21B1426839
:100C200042F40062426003E0426822F400624260E3
:100C30007047F0B504460D4600200021092D11DD56
:100C4000E068A5F10A0606EB4607072606FA07F153
:100C50008843A5F10A0606EB460603FA06F10843A7
:100C6000E0600CE0206905EB4507072606FA07F16E
:100C7000884305EB450603FA06F108432061072A7D
:100C80000FDA606B561E06EB86071F2606FA07F181
:100C90008843561E06EB860605FA06F10843606394
:100CA00022E00D2A0FDA206BD61F06EB86071F26DF
:100CB00006FA07F18843D61F06EB860605FA06F109
:100CC0000843206310E0E06AA2F10D0606EB8607F8
:100CD0001F2606FA07F18843A2F10D0606EB8606E9
:100CE00005FA06F10843E062F0BD21B1826842F4E2
:100CF0008012826003E0826822F480128260704772
:100D00000146C86C80B2704769480068704721B1DD
:100D1000426842F48062426003E0426822F48062EA
:100D20004260704721B1426842F48052426003E061
:100D3000426822F48052426070470A46002181686E
:100D400021F4E04111438160704721B1826842F48F
:100D50000042826003E0826822F4004282607047B1
:100D600021B1826842F40212826003E0826822F4B8
:100D7000021282607047014600208A6812F4001F48
:100D800001D0012000E000207047F0B50446154670
:100D9000002000220026092911DDE068A1F10A07E0
:100DA00007EB470C072707FA0CF29043A1F10A075B
:100DB00007EB470703FA07F21043E0600CE02069F5
:100DC00001EB410C072707FA0CF2904301EB4107B6
:100DD00003FA07F210432061A06BC0F30156EF1C29
:100DE00006F1010CA7EB0C0707EB870C1F2707FA8E
:100DF0000CF29043EF1C06F1010CA7EB0C0707EB7C
:100E0000870701FA07F21043A063F0BD10B50A4648
:100E100000210023816B21F44011531E41EA03514C
:100E2000816310BD10B5002303460B441A6010BD4A
:100E300002460023134601F128000344186880B2DB
:100E400070470A46002141681A4B1940114341601E
:100E500070474162826270470A460021416821F072
:100E60001F0111434160704738B11349096841F4CB
:100E70000001124AC2F8081406E00F49096821F47B
:100E800000010E4AC2F80814704702460020136899
:100E90000B4201D0012000E00020704700240140F7
:100EA00000280140003C0140FFFEF0FFFDF7F1FF8C
:100EB0004C240140FFFD3FFF082401400020014079
:100EC000CA430260704770B5024600200023002428
:100ED0000B125568CEB205EA060415681D4202D011
:100EE0000CB1012000E0002070BD00220A12D343A3
:100EF0000360704736490143364A1160704770B548
:100F0000002100230F22C4784CB3324C246804F42F
:100F1000E064C4F5E0644FEA1421C1F1040322FA4D
:100F200001F2447804FA03F1847804EA020444EA02
:100F300001014FEA0111284C0678A155047804F00C
:100F40001F054FF0010404FA05F405784FEA651512
:100F50004FF0E02606EB8505C5F8004109E004786E
:100F600004F01F050124AC401C4D0678761145F8AD
:100F7000264070BD1A4A0A4002431A4B1A60704755
:100F800041B1194A126842EA00024FF0E023C3F867
:100F9000102D07E0144A126822EA00024FF0E02305
:100FA000C3F8102D7047042808D14FF0E0210969DB
:100FB00041F004014FF0E022116107E04FF0E02121
:100FC000096921F004014FF0E0221161704700002F
:100FD0000000FA050CED00E000E400E080E100E034
:100FE00080FFFF1F08ED00E010ED00E010B50120CC
:100FF000FFF729FD0020FFF726FD10BD24490860FA
:1010000070472449086070472349086070470146CB
:101010000020224A10884FF67F4200EA020040EA90
:1010200001001F4AA2F82C0C7047014600201B4A01
:1010300010884FF6807200EA020040EA0100184A68
:10104000A2F82C0C70470022144A2C3A024411607A
:10105000704701460022114A2C3A0A441088704712
:1010600010480068C0B270470F48008840F0010087
:101070000B49A1F8340C70470C480068C0B27047A7
:101080000948008840F002000549A1F8340C704777
:1010900004860D4200860D4288860D422C6C00406D
:1010A00000600040A0860D42346C0040A4860D42D2
:1010B00039B1554A128842EA0002544BA3F800287D
:1010C00009E0514A12886FEA00039BB202EA030268
:1010D0004E4BA3F8002870474D48008840F01000A0
:1010E0004A49A1F804087047494800884FF6EF7153
:1010F00000EA01004549A1F804087047002145486D
:1011000001884248B0F8180841EA0040704700B52D
:101110000246FFF7E1FF100C3F4908803B49A1F868
:101120001C28FFF7E1FF00BD00B50246FFF7D4FF22
:10113000C2F30340394908803449A1F80C28FFF76D
:10114000D3FF00BD00B50246FFF7C6FF100C3449BF
:1011500008802E49A1F82428FFF7C6FF00BD002013
:10116000304909884FEA01714FEA11302749B1F837
:10117000141841EA0000704700BF2548008810F0AD
:10118000200FFAD07047224800884FF6F77100EA26
:1011900001001E49A1F8040800BF1D48008810F096
:1011A000080FFAD0704701460020194A12880A42F7
:1011B00001D0012000E000207047154909886FEA3E
:1011C000000292B201EA0201104AA2F80418704724
:1011D000014600200E4A128802EA0102D0B20B4AF0
:1011E000B2F800280A4202D008B1012000E0002035
:1011F0007047074909886FEA000292B201EA0201CA
:10120000024AA2F80418704700280040002000405D
:10121000042800401C2800401828004008280040EE
:10122000202800401028004010B501210807FFF7D2
:10123000FDFB00214FF08050FFF7F8FB10BD2C495B
:10124000086270472A490861704701460020294A10
:10125000106820F0E00008431060704726490860DD
:10126000704710B502460020224B186820F003009A
:1012700010431860214B1B6843F004034FF0E02437
:10128000C4F8103D012901D130BF00E020BF1B4B45
:101290001B6823F004034FF0E024C4F8103D10BD98
:1012A0001448006840F004001249086008460068CD
:1012B00040F0020008601148006840F004004FF060
:1012C000E021C1F8100D00BF00BF30BF70470146DC
:1012D0000020084A52680A4201D0012000E00020A4
:1012E00070470449096841EA8001024A1160704769
:1012F00000000E4200700040A0000E4210ED00E021
:1013000010B50446FC48844209D101218803FFF747
:1013100080FB00214FF48040FFF77BFB32E0F74871
:10132000844209D101214804FFF780FB00214FF4DA
:101330000030FFF77BFB25E0F148844209D1012111
:101340008804FFF773FB00214FF48020FFF76EFB4A
:1013500018E0EC48844209D10121C804FFF766FB7C
:1013600000214FF40020FFF761FB0BE0E6488442C8
:1013700008D101210805FFF759FB00214FF4801027
:10138000FFF754FB10BD2DE9F04786B005460E4629
:101390000024A24600BFA1460027B08900B100BFCB
:1013A0002F462C8A4CF6FF700440F08804432C82B0
:1013B000AC894EF6F3100440B08831890843718936
:1013C00008430443AC81AC8A4FF6FF400440B08927
:1013D0000443AC8201A8FFF795FAC748874202D1BF
:1013E000DDF810A001E0DDF80CA0A88910F4004F92
:1013F00008D00AEBCA0000EB0A1031684900B0FBC4
:10140000F1F807E00AEBCA0000EB0A103168890026
:10141000B0FBF1F86420B8FBF0F00401200964216E
:1014200001FB1089A88910F4004F08D0322000EB8E
:10143000C900B0FBF1F000F00700044308E03220DF
:1014400000EB09106421B0FBF1F000F00F00044341
:101450002C8106B0BDE8F0874FF4165101600021E1
:101460008180C18001810C214181002181817047EF
:1014700010B502460020108A4FF2FF0318400B8877
:101480004C8823438C882343CC8823431843108201
:1014900010BD0021018041808180C180704721B151
:1014A000828942F40052828104E082894DF6FF7302
:1014B0001A4082817047F0B50346002400260025BB
:1014C0000020A1F510676A3F00D100BF1846C1F3A4
:1014D000421401F01F06012707FA06F5012C01D17D
:1014E0000C3004E0022C01D1103000E014301AB1AD
:1014F00007682F43076002E00768AF430760F0BD4D
:1015000010B51AB1838A0B43838204E0838ACC43EB
:10151000A4B22340838210BD028A4FF6F0731A40B2
:101520000282028A0A430282704782894FF2FF7365
:101530001A40828182890A438281704721B182895F
:1015400042F00202828104E082894FF6FD731A4064
:1015500082817047028A4FF6DF731A400282028A44
:101560000A430282704721B1028A42F48042028219
:1015700004E0028A4BF6FF731A4002827047C1F3FF
:1015800008028280704701468888C0F308007047CF
:10159000818941F0010181817047028BD2B20283BF
:1015A000028B42EA012202837047028B02F47F42DF
:1015B0000283028B0A430283704721B1828A42F080
:1015C0002002828204E0828A4FF6DF731A40828210
:1015D000704721B1828A42F01002828204E0828A3E
:1015E0004FF6EF731A408282704721B1828A42F02F
:1015F0000802828204E0828A4FF6F7731A408282E0
:10160000704721B1828942F40042828103E08289DD
:10161000C2F30E028281704721B1828A42F40062D5
:10162000828204E0828A4FF2FF731A4082827047FE
:10163000828A4FF6FB731A408282828A0A43828230
:10164000704721B1828A42F00202828204E0828ADB
:101650004FF6FD731A408282704702460020B1F5B2
:10166000007F00D100BF13880B4201D0012000E0B1
:101670000020704701F40072B2F5007F00D100BF76
:10168000CA430280704770B502460024002300253B
:101690000020A1F510666A3E00D100BFC1F34215DB
:1016A00001F01F03012606FA03F3012D02D19689EA
:1016B000334006E0022D02D1168A334001E0968ABB
:1016C00033400C12012606FA04F41688344013B194
:1016D0000CB1012000E0002070BD10B500220023F5
:1016E000A1F510646A3C00D100BF0A1201249440A5
:1016F000A3B2DC43048010BD003801400044004028
:1017000000480040004C004000500040002109E02B
:10171000002201E0531C9AB240F6B8339A42F9DB3A
:101720004B1C99B28142F3DB70474FF40072FF4BC0
:101730001A604FF48072FE4BC3F8142C4FF0200255
:10174000C3F8102CFB4AD0604FF02002F74B1A6010
:10175000A3F104031A604FF48072F54BC3F8102C08
:10176000F44AD1604FF02002F04B1A60A3F1040359
:101770001A604FF480721A60704700B50121002092
:10178000FFF7D3FF4FF47A70FFF7C0FF002101206D
:10179000FFF7CBFF41F290711020FFF7C6FF4FF427
:1017A0001C516020FFF7C1FF01216120FFF7BDFF41
:1017B00002214620FFF7B9FF48F210011320FFF77E
:1017C000B4FF48F2FE011220FFF7AFFF4FF4A06113
:1017D0000220FFF7AAFF41F230010320FFF7A5FF27
:1017E00040F203313020FFF7A0FF40F203313120F7
:1017F000FFF79BFF40F203313220FFF796FF4FF4D3
:1018000040713320FFF791FF03213420FFF78DFF54
:1018100040F203313520FFF788FF14213620FFF70F
:1018200084FF40F203313720FFF77FFF40F203319E
:101830003820FFF77AFF40F203313920FFF775FFB8
:101840004FF440713A20FFF770FF03213B20FFF770
:101850006CFF40F203313C20FFF767FF4FF4A051CB
:101860003D20FFF762FF4FF400719220FFF75DFF0C
:1018700040F203319320FFF758FF40F60D0190200E
:10188000FFF753FF41F218010320FFF74EFF40F22C
:1018900073110720FFF749FF00BD00B543F20801AF
:1018A000E320FFF742FF1221E720FFF73EFF41F25E
:1018B0003121EF20FFF739FF00210120FFF735FF2D
:1018C0004FF4E0610220FFF730FF41F230010320C6
:1018D000FFF72BFF00210420FFF727FF40F207212D
:1018E0000820FFF722FF00210920FFF71EFF00213B
:1018F0000A20FFF71AFF00210C20FFF716FF002136
:101900000D20FFF712FF00210F20FFF70EFF00212F
:101910001020FFF70AFF07211120FFF706FF002123
:101920001220FFF702FF00211320FFF7FEFE4FF405
:101930007A70FFF7EBFE41F290611020FFF7F5FEA1
:1019400040F227211120FFF7F0FE3220FFF7DEFEE4
:101950001D211220FFF7E9FE3220FFF7D7FE4FF4DA
:1019600000611320FFF7E1FE14212920FFF7DDFEBF
:101970000B212B20FFF7D9FE3220FFF7C7FE0021F5
:101980002020FFF7D2FE00212120FFF7CEFE072105
:101990003020FFF7CAFE40F207713120FFF7C5FE85
:1019A00006213220FFF7C1FE40F204713520FFF717
:1019B000BCFE41F604713620FFF7B7FE0421372044
:1019C000FFF7B3FE00213820FFF7AFFE40F20671AB
:1019D0003920FFF7AAFE40F201713C20FFF7A5FE77
:1019E0000F213D20FFF7A1FE00215020FFF79DFEB3
:1019F000EF215120FFF799FE00215220FFF795FEBD
:101A000040F23F115320FFF790FE4FF41C5160202D
:101A1000FFF78BFE01216120FFF787FE00216A207E
:101A2000FFF783FE00218020FFF77FFE0021812049
:101A3000FFF77BFE00218220FFF777FE0021832045
:101A4000FFF773FE00218420FFF76FFE0021852041
:101A5000FFF76BFE10219020FFF767FE0021922018
:101A6000FFF763FE03219320FFF75FFE4FF48871B9
:101A70009520FFF75AFE00219720FFF756FE002120
:101A80009820FFF752FE41F218010320FFF74DFEA8
:101A900040F273110720FFF748FE00BD08B54FF66E
:101AA000FF70ADF8000003208DF8020010208DF8C3
:101AB000030069461F48FEF7DFFC08BD08B54FF676
:101AC000FF70ADF8000003208DF8020048208DF86B
:101AD000030069461748FEF7CFFC08BD70B5044601
:101AE0004FF40070114908604FF480701049C1F83C
:101AF000140C4FF02000C1F8100C0E48C4604FF0D9
:101B000020000A490860A1F1040108604FF48070C8
:101B10000860FFF7D3FF4FF480600549C1F8140C4B
:101B20000448806885B20815034907E0140C014099
:101B30000000014000100140100C01400860FFF758
:101B4000ADFF4FF40070FB490860284670BD08B532
:101B500001211820FEF743FF01212020FEF73FFF5F
:101B60004FF4E460ADF8000001208DF80200102071
:101B70008DF803006946EF481038FEF77DFCFFF74B
:101B80008DFFEC48006840F4C460EB49C1F8100CCC
:101B900008BD10B5FFF7DBFF0020FFF79FFFE74907
:101BA000088008460088A0F50241303902D1FFF7CD
:101BB000E4FD01E0FFF771FE0020FFF78FFFDF4932
:101BC000088010BDDE4908807047DE4908807047F4
:101BD00030B504460D4621462020FFF7A6FD2946D4
:101BE0002120FFF7A2FD30BD4FF40071D64A1160ED
:101BF0004FF48071D04AC2F8101C4FF02001C2F897
:101C0000101CD249C8604FF02001CF4A1160C94A68
:101C100011604FF4807111604FF4007111607047D2
:101C20004FF40070C84908604FF48070C249C1F891
:101C3000140C4FF02000BF4908604FF02200C34948
:101C4000C8604FF02000C0490860BA4908604FF4EE
:101C5000807008604FF40070086070472DE9F04311
:101C600006468946174600240025A046B046494648
:101C70004046FFF7ADFF00BF1EE0FFF7D1FF002594
:101C80000FE037F814000121A940084204D1AD4803
:101C90000088FFF7A9FF03E0A9480088FFF7A4FF29
:101CA0006D1C102DEDD308F1010000F0FF0849462E
:101CB0004046FFF78DFF641C182CDED3BDE8F0838F
:101CC00070B505460E461446A4F12000C4B204EBDC
:101CD00044009F4901EB001231462846FFF7BEFF42
:101CE00070BDF0B507460C46002540F23F1609E0EE
:101CF000227831463846FFF7E3FFA6F1100086B29E
:101D0000641C6D1C207808B1142DF1D3F0BD10B502
:101D1000044690A12046FFF7E4FF10BD30B505460C
:101D2000002400210846FFF753FFFFF779FF00BFAB
:101D300003E02846FFF758FF641CB4F5963FF8D33C
:101D400030BDF0B504460D4616461F46B44206DBCC
:101D5000A01B401C81B25020FFF7E7FC03E00021EC
:101D60005020FFF7E2FC21465120FFF7DEFCBD4288
:101D700006DBE81B401C81B25220FFF7D6FC03E0D3
:101D800000215220FFF7D1FC29465320FFF7CDFC5C
:101D900029462046FFF71CFFF0BD00B54FF4A073A5
:101DA000F022591EEF20FFF7CCFF41F2180103206B
:101DB000FFF7BBFC00BD2DE9F041064688461546FD
:101DC0001F46002441463046FFF702FF5FB9FFF788
:101DD00027FF00BF04E05A480088FFF705FF641C96
:101DE000AC42F8D310E000240CE0FFF719FF544890
:101DF0000088FFF7F9FE701CC6B241463046FFF777
:101E0000E7FE641CAC42F0D3BDE8F081F0B50546B6
:101E10000E4617461C460023224631462846FFF749
:101E2000CAFFE919C8B2002322463146FFF7C3FFB3
:101E300001233A4631462846FFF7BDFF301B401CC0
:101E400081B201233A462846FFF7B5FFF0BD2DE9E0
:101E5000F04306460F4690460320A0EB48090024B5
:101E600045468AE07A1991B23219D0B2FFF7B0FE36
:101E7000FFF7D6FE32480088FFF7B6FE7A1B91B214
:101E80003219D0B2FFF7A4FEFFF7CAFE2C48008833
:101E9000FFF7AAFE7A1991B2321BD0B2FFF798FE73
:101EA000FFF7BEFE26480088FFF79EFE7A1B91B220
:101EB000321BD0B2FFF78CFEFFF7B2FE204800883D
:101EC000FFF792FE3A1991B27219D0B2FFF780FE75
:101ED000FFF7A6FE1A480088FFF786FE3A1B91B26C
:101EE0007219D0B2FFF774FEFFF79AFE144800880B
:101EF000FFF77AFE3A1991B2721BD0B2FFF768FE73
:101F0000FFF78EFE0E480088FFF76EFE3A1B91B277
:101F1000721BD0B2FFF75CFEFFF782FE0848008814
:101F2000FFF762FEB9F1000F20DA062000EB840013
:101F3000814421E0100C0140000001402C000020F1
:101F4000280000202A000020140C0140001001404D
:101F5000CE4A0008202020202020202020202020E1
:101F6000202020202020202000000000601B0A21CB
:101F700001EB800081446D1E641CAC427FF672AFA1
:101F8000BDE8F08370B506460024002540F23F11FD
:101F90000020FFF71DFEFFF743FE00BF14E0002501
:101FA0000FE056F824000121A940084204D16348FB
:101FB0000088FFF719FE03E061480088FFF714FE70
:101FC0006D1C202DEDD3641CB4F5166FE7D370BDE6
:101FD00070B50446002500266688A08846EA0046BB
:101FE0006589A08945EA0045701B46082C4441F2EA
:101FF00008010320FFF799FBFFF712FE002504E01C
:102000002088FFF7F1FDA41C6D1CB542F8D341F206
:1020100018010320FFF789FB70BD10B54FF4007065
:10202000484908604FF480704749C1F8140C4FF0DC
:102030002000464908604FF022004549C8604FF033
:10204000200040490860414908604FF480700860F2
:10205000FFF734FD4FF480603B49C1F8140C3C4855
:10206000806884B2081539490860FFF717FD4FF4FE
:10207000007036490860204610BD00B500211020D0
:10208000FFF753FB00211120FFF74FFB0021122027
:10209000FFF74BFB00211320FFF747FB1420FFF74E
:1020A00035FB41F2B0711020FFF73FFB40F23711D2
:1020B0001120FFF73AFB0520FFF728FB40F239110A
:1020C0001220FFF732FB0520FFF720FB4FF4E85109
:1020D0001320FFF72AFB13212920FFF726FB0520F9
:1020E000FFF714FB40F273110720FFF71EFB00BD42
:1020F00000B540F273110720FFF717FB00BD00B5D4
:1021000000210720FFF711FB00BD30B50546002177
:102110000846FFF75DFDFFF783FD002409E015F891
:1021200014206100491C695C42EA0120FFF75CFD54
:10213000641CB4F5963FF2DB30BD00002A0000209D
:1021400028000020140C014000000140100C014048
:102150000010014070B50446002500BF28466D1CE4
:10216000215CFF48FFF70BFA00BF8021FC48FFF716
:1021700074FA0028F9D0605D0028EFD170BDF949EC
:10218000086000BFF74909680029FBD1704770B5A6
:1021900086B006464FF46160B6FBF0F0F249086085
:1021A0004FF46160B6FBF0F100FB11603C21B0FB25
:1021B000F1F0EE4908604FF46160B6FBF0F100FB0E
:1021C00011603C21B0FBF1F201FB1200E84908600C
:1021D000E5480068E7490968884225D1E348006876
:1021E000E549096888421FD1E1480068E349096868
:1021F000884219D1E248006802F0EAFB04460D4625
:10220000DE480368DC480268DA480168DD48007887
:10221000CDE9004502AC0FC4DBA2DCA1E34800F02D
:10222000A1FFE248FFF796FFD1480368CF4800932B
:102230000368CD48DEA10268E34800F093FFE2495D
:10224000A820FFF74EFD06B070BD2DE9F05F01211B
:10225000DE48FEF7C2FCDD48FEF752FD824602F082
:1022600033FA80464FF06632D94B02F07DFA0646CB
:102270000022D84B02F0D0F8044602F08FF8C04993
:1022800008600846006802F0A3FB044602460B46BD
:10229000D1A1CD4800F066FFCB491820FFF721FD02
:1022A000B848007802F010FA04464FF06632C84B86
:1022B00002F05AFA0646CC4ACC4B02F055FA804658
:1022C0008946AF48006802F083FB824642464B468F
:1022D00002F048FB28D2C6480078012824D1042106
:1022E000C448FEF774F94FF47E41C348FEF76FF916
:1022F0004FF48071C048FEF76CF90421BD48FEF729
:1023000068F9C820FFF73BFF0421BA48FEF75FF9E0
:102310004FF6FF71B848FEF75AF90421B548FEF7A9
:1023200058F9C820FFF72BFF9648007802F0CCF947
:1023300080464FF06632A64B02F016FA04460D4670
:102340008F48006802F044FB064622462B4602F006
:10235000CFF90CD80421A748FEF739F94FF6FF71E1
:10236000A548FEF734F90421A248FEF732F9BDE88A
:10237000F09F38B50121A148FEF70FF9A0BB0A2054
:10238000FFF7FDFE01219D48FEF707F928BB9C4899
:10239000007810BB9648007838B90120944908703D
:1023A00098A17820FFF79DFC17E09148007801285C
:1023B00013D100208E49087004218E48FEF707F9DA
:1023C0004FF6FF718C48FEF702F904218948FEF7A9
:1023D00000F991A17820FFF784FC00BF0121874814
:1023E000FEF7DBF80028F9D04FF480718348FEF740
:1023F000D4F8F0BB0A20FFF7C2FE4FF480717F488B
:10240000FEF7CBF8B0BB7E480078A0BB01207C492A
:1024100008701F20FFF782FC1F20FFF7D6FB4FF646
:10242000FF70FFF7CFFB82A10020FFF75AFC80A1CD
:102430001820FFF756FC84A13020FFF752FC7CA146
:102440004820FFF74EFC4D4803684B480093036853
:10245000484883A102685C4800F084FE5A49602025
:10246000FFF73FFC72A17820FFF73BFC70A19020A2
:1024700002E06DE064E00EE0FFF733FC6CA1A82001
:10248000FFF72FFC6AA1C020FFF72BFC7AA1D82010
:10249000FFF727FC54E05A480078012850D100206B
:1024A000574908701F20FFF739FC1F20FFF78DFBED
:1024B0004FF6FF70FFF786FB5DA10020FFF711FCD0
:1024C0002F48006802F084FA044602460B4642A1F7
:1024D0003D4800F047FE3C491820FFF702FC54A19C
:1024E0003020FFF7FEFB2748027869A1364800F04C
:1024F00039FE35494820FFF7F4FB4DA16020FFF776
:10250000F0FB45A17820FFF7ECFB49A19020FFF7F5
:10251000E8FB17480368154800930368124824A194
:102520000268294800F01EFE2749A820FFF7D9FBC2
:102530003FA1C020FFF7D5FB58A1D820FFF7D1FB62
:1025400000BF4FF480712D48FEF727F80028F8D01F
:1025500002215848FEF721F808B90A20ACE0EBE068
:1025600000440040540000203C00002040000020B7
:1025700044000020480000204C00002050000020B3
:102580005C0000205800002000000000257325306A
:102590002E32662B302E25642B25302E32642530CA
:1025A0002E326425302E32640D0A0000780000209F
:1025B00020543A2025302E32642D25302E32642DC1
:1025C00025302E3264000000640000200024014009
:1025D00066660A4000FEAF402056313A2025302E74
:1025E00032665620202020009A9999999999B93FEE
:1025F0003300002000140140001001400008014099
:1026000030000020204C45443A204F4E202020200E
:102610002020202020202000204C45443A204F46F6
:102620004620202020202020202020200000000004
:10263000202020202020202020202020202020209A
:10264000202020200000000020202020205365743E
:1026500074696E67202020202020202000000000C8
:10266000202020202025302E32642D25302E32646B
:102670002D25302E32640000202020202020202014
:1026800020202020202020202020203200000000B8
:10269000206B203A20302E256400000020202020CE
:1026A0002020202020202020202020202020203119
:1026B00000000000000C0140FFF761FD0221AA4864
:1026C000FDF76BFF28BBA948007801282DD1A84849
:1026D000007808B9012000E00020A5490978032905
:1026E00001D1012100E00021084307D00120A049C9
:1026F0000870A0A17820FFF7F4FA16E09C48007853
:10270000012807D102209A490870A0A17820FFF77C
:10271000E8FA0AE096480078022806D10320944996
:102720000870A0A17820FFF7DCFA00BF02218E48D4
:10273000FDF733FF0028F9D004218B48FDF72DFF6A
:1027400088BB0A20FFF71BFD04218748FDF725FF02
:1027500000BB86480078012871D18548007801289F
:1027600022D196480068182815D294480068401C69
:1027700092490860924803689248009303680846AB
:10278000AFF224110268904800F0ECFC8E49602002
:10279000FFF7A7FA53E08948006818284FD30020B4
:1027A000864908604BE051E071480078022821D149
:1027B000844800683C2815D282480068401C814942
:1027C00008607F4803680846009303687B48AFF2BF
:1027D000701102687C4800F0C5FC7B496020FFF75F
:1027E00080FA2CE0774800683C2828D300207549FF
:1027F000086024E05E480078032820D17048006813
:102800003C2815D26E480068401C6D490860084697
:1028100003686C48009303686848AFF2BC11026813
:10282000694800F09FFC68496020FFF75AFA06E00B
:10283000634800683C2802D300206149086000BF5B
:1028400004214948FDF7A9FE0028F9D038BD5F49A9
:1028500009684FF47A72B1FBF2F0B0F1807F00D3D7
:102860001CE020F07F41491E4FF0E022516100BF83
:102870005117002905DA0F210901554A0B23D154BC
:1028800004E00F210901534A5317D15400BF00211E
:102890004FF0E02291610721116100BF00F0D3FBEE
:1028A00000F085FA00F064FB00F048FA302000F0F8
:1028B00097FB14280DD00520FFF761FC01210020B3
:1028C00000F0AAFB0520FFF75AFC1421302000F08D
:1028D000A3FB0520FFF753FC002000F081FB3E49DD
:1028E000087008460278AFF25821374800F03AFCE9
:1028F00035494820FFF7F5F934E0FFF73AFD1B486A
:10290000007868B9FFF7A1FC34480068012807D1B6
:10291000002032490860FEF7F1FB0446FFF737FC60
:102920002F48007801281DD100202D4908702D481E
:10293000007830382849087008460278AFF2B02194
:10294000214800F00FFC20494820FFF7CAF9052074
:10295000FFF715FC20480178002000F05DFB22A065
:10296000FFF7F8FBC9E70000000C01403000002031
:102970003400002020202020203D3D202020202049
:1029800020202020202020200000000020202020C7
:10299000202020203D3D20202020202020202020FD
:1029A0000000000020202020202020202020203D8A
:1029B0003D20202020202020000000004800002092
:1029C000500000204C000020640000200000002087
:1029D00018ED00E000E400E058000020380000207E
:1029E00031000020320000206F6B0A00704700BFEA
:1029F000FEE700BFFEE700BFFEE700BFFEE770474F
:102A0000704770472A480068401E2949086070478F
:102A100010B50120FEF7DCFB88B10120FEF7E9FBD1
:102A2000FEF76CFB2349884204D10020FEF76FFBC0
:102A3000FEF7A2FB012020490860FEF79DFB10BDB8
:102A400010B540F225511D48FEF71DFE78B31B4816
:102A5000FEF799FDC4B24B2C01D1012000E000200B
:102A60006B2C01D1012100E00021084308D014485B
:102A70000078401C1249087001201249087016E0C5
:102A800010480078012812D10D480078401C0C49EC
:102A9000087008460078042809D100200949087008
:102AA000074908700848047001200849087010BDE3
:102AB000540000207F5101003800002000440040F5
:102AC0006000002061000020320000203100002062
:102AD00008B58020ADF8000002208DF80200282003
:102AE0008DF8030069469F48FDF7C6FC08BD08B590
:102AF0008020ADF8000002208DF8020010208DF833
:102B0000030069469748FDF7B7FC08BD10B50446B9
:102B100024B180219348FDF75AFD03E080219148BC
:102B2000FDF757FD10BD10B5044624B140218D4876
:102B3000FDF74DFD03E040218A48FDF74AFD10BD39
:102B400010B580218748FDF728FD10BD002100E069
:102B5000491C8142FCD3704710B50120FFF7D6FF16
:102B60004FF4FA70FFF7F2FF0120FFF7DCFF4FF49C
:102B7000FA70FFF7EBFF0020FFF7C8FF4FF4FA7081
:102B8000FFF7E4FF0020FFF7CEFF4FF4FA70FFF7E6
:102B9000DDFF10BD10B50020FFF7C5FF4FF4FA7040
:102BA000FFF7D4FF0020FFF7B1FF4FF4FA70FFF7F3
:102BB000CDFF0120FFF7B7FF4FF4FA70FFF7C6FF14
:102BC0000120FFF7A3FF4FF4FA70FFF7BFFF10BD1E
:102BD00010B50524FFF77CFF4FF4FA70FFF7B6FF3E
:102BE0000120FFF7A0FF4FF4FA70FFF7AFFF0CE0F2
:102BF000601E84B24FF4FA70FFF7A8FF2CB9FFF7FC
:102C000076FFFFF7C7FF002010BDFFF799FF0028F0
:102C1000EED1FFF76CFF0020FFF785FF4FF4FA704D
:102C2000FFF794FF0120EFE710B50020FFF76EFFDC
:102C30004FF4FA70FFF78AFF4FF4FA70FFF786FF40
:102C40000120FFF770FF4FF4FA70FFF77FFF0020BD
:102C5000FFF769FF4FF4FA70FFF778FF10BD10B56A
:102C60000120FFF753FF4FF4FA70FFF76FFF0120C9
:102C7000FFF759FF4FF4FA70FFF768FF0020FFF7E6
:102C800052FF4FF4FA70FFF761FF10BD70B50446B4
:102C900008251BE00020FFF746FF4FF4FA70FFF70E
:102CA00055FF04F08000FFF731FF4FF4FA70FFF793
:102CB0004DFF6006040E4FF4FA70FFF747FF012046
:102CC000FFF731FF4FF4FA70FFF740FF2800A5F13E
:102CD0000101CDB2DED1FFF726FF4FF4FA70FFF706
:102CE00035FF70BD70B508250024FFF7F1FE16E032
:102CF0006006040E0020FFF716FF4FF4FA70FFF78E
:102D000025FF4FF4FA70FFF721FF0120FFF70BFFBB
:102D10004FF4FA70FFF71AFFFFF712FF0443280081
:102D2000A5F10101CDB2E3D1FFF7FDFE4FF4FA703A
:102D3000FFF70CFFFFF7DBFE204670BD08B5012151
:102D40000820FDF74CFEC020ADF8000002208DF8F1
:102D5000020010208DF8030069460248FDF78CFB45
:102D600008BD0000000C014008B54FF4C060FEF73C
:102D7000C1F803208DF8000001208DF8010000202B
:102D80008DF8020001208DF803006846FEF7B7F8C1
:102D900026208DF8000000208DF8010001208DF81C
:102DA00002008DF803006846FEF7A9F808BD00B5DB
:102DB00087B001210420FDF712FE01210820FDF754
:102DC0000EFE01211020FDF70AFE01212020FDF753
:102DD00006FE01210846FDF702FE01214802FDF72B
:102DE000FEFD01214FF0C050FDF706FE0121480411
:102DF000FDF702FE40F20110ADF8180002208DF838
:102E00001A0028208DF81B0006A9AA48FDF734FBFC
:102E10000620ADF8180002208DF81A0028208DF841
:102E20001B0006A9A448FDF727FB4FF6FF70ADF87D
:102E3000180002208DF81A0010208DF81B0006A93A
:102E40009E48FDF719FB0420ADF8180002208DF80C
:102E50001A0010208DF81B0006A99948FDF70CFBFD
:102E6000FFF782FF0120ADF8180000208DF81B004D
:102E700006A99148FDF700FB002001908DF808009D
:102E80008DF809004FF46020039000200490012089
:102E90008DF8140001A98B48FDF733FE02230122AF
:102EA00008218848FDF7C5FE4FF440724FF43061A9
:102EB0008448FDF7CEFF0E218248FDF7CDFF824901
:102EC0008048FDF7BEFF01224FF4A0717D48FDF759
:102ED0005AFE01217B48FDF740FE7A48FDF75FFE70
:102EE00000BF7848FDF760FE0028FAD17548FDF76D
:102EF00065FE00BF7348FDF766FE0028FAD1012089
:102F0000FEF79DF9FEF772F80120FDF7EFFC00BF18
:102F10006120FDF740FC0028FAD04FF40070FDF767
:102F2000E8FC0120FDF7EBFCFEF72DF9FEF724F994
:102F300001210846FEF7BCF8FEF71EF949F63F40AE
:102F4000FEF7F2F8FEF718F96048FEF7E0F8FEF732
:102F500013F904215A48FDF73AFB4FF6FF71574821
:102F6000FDF735FB04215648FDF733FB07B000BDE4
:102F700000B585B00820ADF8100004208DF81300CE
:102F800004A94C48FDF778FA0420ADF8100003209E
:102F90008DF8120018208DF8130004A94548FDF79C
:102FA0006BFA4FF4165000900020ADF80400ADF815
:102FB0000600ADF80800ADF80C000C20ADF80A00D2
:102FC00069464348FEF7DFF9012240F225514048A7
:102FD000FEF771FA01213E48FEF761FA05B000BD27
:102FE00070B50446FFF7B8FDA020FFF74FFEFFF7CE
:102FF0001BFE2046FFF74AFEFFF716FEFFF7ACFD6B
:10300000A120FFF743FEFFF70FFEFFF76BFE05461B
:10301000FFF70AFE284670BD70B505460C46FFF75F
:103020009BFDA020FFF732FEFFF7FEFD2846FFF7CD
:103030002DFEFFF7F9FD2046FFF728FEFFF7F4FD10
:10304000FFF7A8FD70BD10B5FEF7A3FD1F20FEF72A
:1030500065FE1F20FEF7B9FD4FF6FF70FEF7B2FDCB
:103060001CA10020FEF73DFE20A11820FEF739FE2E
:1030700018A13020FEF735FE22A14820FEF731FED0
:1030800014A16020FEF72DFE24A17820FEF729FE72
:1030900010A19020FEF725FE26A1A820FEF721FE14
:1030A0000CA1C020FEF71DFE28A1D820FEF719FEB6
:1030B00010BD000000080140000C0140001001405C
:1030C0000014014000240140000280007B510100F7
:1030D00000440040202020202020202020202020EC
:1030E0002020202020202020000000002056313AFF
:1030F00020312E383456202020202020202020204F
:1031000000000000206B203A20302E3120202020AB
:10311000202020202020202000000000204C4544BA
:103120003A204F464620202020202020202020200A
:103130000000000020543A2032332D35392D35352A
:1031400020202020202020200000000020202020FF
:10315000202020202020202020202020202020315E
:10316000000000000FB41CB5074B06AA7B4469465B
:103170000090059800F079FB0020694600F088FB7C
:103180001CBC5DF814FB00002107000070B505466B
:103190000C46012A05D02868800600D5EA6900237C
:1031A00002E0012305E05B1C934202D2E05C0028B0
:1031B000F9D1A869E618C01AA861286A18442862DB
:1031C0002846AFF3008004E0D5E9012114F8010B93
:1031D0009047B442F8D32846AFF3008070BD00009A
:1031E0002DE9F0418046002610687529414615A555
:1031F00012D0AFF30080002803DAC0F1000012A55E
:1032000008E0D8F800108A0701D510A502E04907A8
:1032100004D50FA5012601E0AFF30080002408F1DA
:10322000240704E000F04FFB30313955641C0028BE
:10323000F8D133462A4621464046BDE8F04100F029
:10324000AEB80000000000002D0000002B000000C0
:10325000200000002DE9F05F4FF0000B0446894686
:103260004FF0010AC0F820B02046E168884798B3C3
:10327000252806D0D4E901219047206A401C20620D
:10328000F2E7444F00267F442046E1688847202823
:10329000054608DB312D06D207EB050010F8200C9F
:1032A00008B10643F0E7B00701D526F00406C4F8DC
:1032B0001CB00027C4F818B02A2D0ED05246A5F134
:1032C00030010A292ED2BAF1000F2BD0924604EB1E
:1032D0008708C8F818101AE059E059F8041B20466E
:1032E00004EB87029161E1688847012F05461BD1F5
:1032F000E069002823DA26F0200620E0D8F818003C
:1033000000EB800005EB40003038C8F8180020467C
:10331000E1688847A0F1300105460A2902D2BAF1D6
:10332000000FEBD1012F0AD02E2D08D12046E168E5
:1033300088477F1C0546022F46F02006BCDBA069AB
:10334000002803DA404246F00106A061F00701D0F0
:1033500026F01006DDB1A5F14100192802D820356C
:1033600046F400664A462946204626604E46FCF74B
:10337000F7FE50B1012805D0F61D26F0070000F138
:10338000080971E706F104096EE7284672E7206A2A
:10339000BDE8F09F142A00007047704770472DE980
:1033A000F0470D4604469246994600F1240801680C
:1033B000880604D5E06921F01001216000E00120B9
:1033C0000027A84201DDA0EB0507A16907EB050274
:1033D00002EB0300A1EB0000A0612068C00602D44C
:1033E0002046AFF30080002608E0D4E901211AF856
:1033F00006009047206A401C761C20624E45F4DB94
:103400002068C0060AD52046AFF3008006E0D4E964
:10341000012130209047206A401C2062381EA7F10D
:103420000107F4DC07E0D4E9012118F80500904712
:10343000206A401C2062281EA5F10105F3DC20460D
:10344000AFF3008021680220090600D40120BDE806
:10345000F08770472DE9FF4F0C461E464FF0FF37AF
:1034600089B0D2E90001DDF8588006908946C1F3A1
:103470000A5505B93D46002108464FF00000B9F154
:10348000000F00F4400005DA00EB80004FF440012B
:1034900001EA50004FEA905ABAF1010F00DDBA4636
:1034A000069850EA49002CD044F61050A5F2FF359A
:1034B0004543CAF1000008902F14B8F1000F39D02D
:1034C0007542089A291E00DC524600DA694203A8B8
:1034D00000F08CFA0699484600F07BFB8DE8070067
:1034E000A0F500501F3800900398002D25DD42F212
:1034F0001F015246084403A90390684600F0DAFD14
:1035000024E0B8F1010F4FF0000001D1F24307E0D1
:10351000302101E02154401CB042FBDB3046002248
:10352000002121540999C1F80880C1E900200DB09B
:10353000BDE8F08FBD1B6D1CC3E7A0F500505246DF
:103540001F3803A90390684600F0C8FD8DE8070006
:103550000004000C03D04FF0FF30410800E010469B
:10356000B8F1000F03D00022009215461FE0751E2F
:1035700006D400F0B7F902F1300262556D1EF8D59D
:10358000B3460122084302D000227F1C04E02078C9
:10359000302801D100227F1E002A07978DD01DE020
:1035A000112D07DA00F09EF9303262556D1C50EA99
:1035B0000102F5D108430FD10021681E05E0235C0C
:1035C000625C6354491C2254401E8142F7DBAB46C7
:1035D000A81B401E079001E0009848B1002004F8A5
:1035E0000B000998079AC0F80880C0E9002B9EE7F5
:1035F00011264FF0000860E72DE9F04F8846044699
:10360000D21D22F0070191B0D1E90001CDE90C01F2
:1036100000F09AFE02460D98C10F4FF02D0006D122
:1036200021682B208B0702D4202000EAC100032A46
:10363000834601D0072A05DB03464146204600F0B9
:1036400097F90AE12068800601D5E76900E00627BE
:103650001120B8F1650F06D0B8F1660F11D0B8F19E
:10366000670F67D128E00023112F009300DA781C40
:1036700003460CAA01A909A8FFF7ECFE00267D1C51
:103680003FE001234FF000490CAA01A909A80093CB
:103690003B46FFF7DFFEDDE90A50002620B9099915
:1036A00007F1010001EB0005781B02D47D1CC0F17D
:1036B000FF36A5EB070A3DE0012F00DA01270023C2
:1036C000112F009300DC384603460CAA01A909A873
:1036D000FFF7C0FE20683D46002600070BD40A987D
:1036E000A84200DA054601A8012D04DD411911F8B0
:1036F000011C302909D00998B84202DA10F1040FF0
:1037000005DA4FF0010A099813E06D1EECE7002876
:1037100002DC2D1A064405E0401CA84202DD099D8A
:1037200005F101050998A0EB060000F1010A4FF030
:10373000004081462068000703D4AA4501DB4FF012
:10374000FF3A0020B9F1004F0DF13F078DF83F001F
:1037500024D04FF002082B20B9F1000F00900BDAB3
:103760002D20C9F10009009006E0484600F0ABF8B2
:103770003031814607F8011DB8F10001A8F10108B8
:10378000F3DCB9F1000FF0D1009807F8010D2168C2
:103790004520090500D4652007F8010D0EA8A0EB0F
:1037A000070000F107085FEA0B0000D0012000EBE2
:1037B000050101EBEA7101EB0800A169A1EB000032
:1037C000A0F10100A0612068C00602D42046AFF33A
:1037D00000805FEA0B0006D0D4E901219047206AFF
:1037E00000F1010020622068C00621D52046AFF319
:1037F00000801DE0002E05DB0A98B04202DD01A822
:10380000805D00E03020D4E901219047206A761CD9
:10381000401CBAF1010A20620AD100F05DF8C068CC
:103820000168405CD4E901219047206A401C206275
:10383000281EA5F10105DDDC07E0D4E9012117F818
:10384000010B9047206A401C2062B8F10001A8F1EA
:103850000108F2DC2046AFF30080022011B067E6D9
:1038600001694A1C02610878704700B58FB0CDE944
:1038700001310021059105497944CDE90310114634
:103880006846FFF7E7FC0FB000BD0000E5FFFFFF53
:103890000A6802F8010B0A60704710B5436913B15A
:1038A000AFF3008001E0FFF771FC012010BD12684A
:1038B00000F124010A7000224A700122EDE711682C
:1038C0004FF0FF32E9E74FF00A01B0FBF1F202FBE3
:1038D000110110467047000001487047704700BF53
:1038E000AC00002030B5B0F10A024FEA900E71F141
:1038F00000034EEA817EB0EB0E0061EB91014FEACE
:10390000101E4EEA017E10EB0E0041EB11114FEA42
:10391000102E4EEA016E10EB0E0041EB11214FEA22
:10392000104E4EEA014E10EB0E0041EB11414018D3
:1039300041F100014FEAD00040EA41704FEAD10165
:1039400010EB80054FEA810444EA907444EB0104D3
:103950006D1944EB0404521BA3414FF0000348BF10
:103960000A3200D530BD401C41F1000130BD0000DD
:103970002DE9F04104461F4603260168072A01F499
:10398000006003DB15A520B915A502E015A500B957
:1039900015A521F010002060A069C01EA0610FB124
:1039A000401EA0612046AFF300804FB1D4E9012151
:1039B00038469047206A401C2062C01C206206E006
:1039C000206AFAE7D4E9012115F8010B9047761E29
:1039D000F8D22046AFF30080BDE8F0814E414E00A2
:1039E0006E616E00494E4600696E66002DE9F04733
:1039F000814616468AB037487844D0E9002380686B
:103A00000092CDE90130334878440C38D0E90223E4
:103A100000690392CDE9043041F69B334FF0370043
:103A200001EB0302194492FBF0F591FBF0F2A5F1D2
:103A3000800500FB12141B3C02D56442012000E00B
:103A40000020DFF890A080460027FA44AAF1CE0AB1
:103A50000DE0E00709D03246684607EB47010AEB64
:103A6000810100F03BFB8DE8070064107F1C002CF7
:103A7000EFD1184F7F44BC3F17E0E80713D007EBA6
:103A800004100DF1180A90E80E00AAE80E00C068B4
:103A9000F04201D198190890324606A903A800F017
:103AA0001DFB03AB07C36D10641C002DE5D132462E
:103AB0006946B8F1000F03A802D000F0FBFA01E05C
:103AC00000F00CFBC9E90001C9F808200AB0BDE804
:103AD000F087000030230000004870478C00002071
:103AE0007546FFF7F9FFAE4605006946534620F0DC
:103AF0000700854618B020B5FCF768FBBDE82040FC
:103B00004FF000064FF000074FF000084FF0000B99
:103B100021F00701AC46ACE8C009ACE8C009ACE84C
:103B2000C009ACE8C0098D4670470446AFF3008079
:103B30002046FCF737FB00004FF0013C50F8042B07
:103B400051F8043B9A4221D1A2EB0C03934313EAB0
:103B5000CC1317D150F8042B51F8043B9A4215D1DD
:103B6000A2EB0C03934313EACC130BD150F8042BB4
:103B700051F8043B9A4209D1A2EB0C03934313EA98
:103B8000CC13DBD04FF00000704700BFD01A01BA51
:103B9000B1FA81F101F0180122FA01F0CB40C1F134
:103BA0002001DBB2C0B2C01A2CFA01F3D11A914342
:103BB00011EAC311E6D1704701487047704700BF52
:103BC0009000002001491820ABBEFEE7260002004D
:103BD00070475FEA400C08BF91F0000F4FEA8C235A
:103BE0004FEAC12243EA51514FEA1C5018BF00F579
:103BF000F0404FEA300018BF41F000415FEA6C5CD2
:103C000000F02980BCF1FF3F08BF40F080407047C2
:103C1000130C06BF12044FF0100C4FF0000C130EE3
:103C200004BF12020CF1080C130F04BF12010CF1B7
:103C3000040C930F04BF92000CF1020CD30F04BFCD
:103C400052000CF1010C11464FF00002A0F11F00D0
:103C5000A0EB0C00704711F0004F08BF704731F027
:103C600000413FF4D5AF0B0C06BF09044FF0100C18
:103C70004FF0000C0B0E04BF09020CF1080C0B0FE7
:103C800004BF09010CF1040C8B0F04BF89000CF177
:103C9000020CCB0F04BF49000CF1010CCCF1200346
:103CA000A0EB0C0022FA03F302FA0CF241EA030142
:103CB00000F10100704720F07F4C80EA030023F000
:103CC0007F47ACEB070303F57C5300F0004003F1A2
:103CD000FF032DE980494FEA154B09B44FEA14431D
:103CE00025EA0B4E24EA03480FF2042606EB1327BD
:103CF00049083E785FEA320203FB0667C7F5000712
:103D000007FB06F64FEA54374FEAD64606F102069D
:103D100007FB066CCCF1005C4FEA1C472CEA074C11
:103D200007FB06F40CFB06F504EB15464FEA961666
:103D300034BF00204FF000404FEAD13706FB07FCAC
:103D40004FEA1C4C0CFB0BF7D21B03FB0CF761EB8F
:103D500007010CFB0EF7B0EB074072EB17420CFBB0
:103D600008F734BFA2EB0742B2EB074261EB174101
:103D70004FEA0C444FEA910706FB07FC4FEA1C4C44
:103D80000CFB0BF7B0EBC74072EB573203FB0CF7A1
:103D900034BFA2EBC742B2EBC74261EB57310CFB19
:103DA0000EF7B0EBC70072EB57720CFB08F734BF8D
:103DB000A2EBC702B2EBC70261EB5771039F4FEA58
:103DC000816141EA921104EBCC044FEAD1374FEA0A
:103DD000826206FB07FC42EA90124FEA80604FEADB
:103DE0001C4C0CFB0BF7D21B03FB0CF761EB070120
:103DF0000CFB0EF7B0EB074072EB17420CFB08F719
:103E000034BFA2EB0742B2EB074261EB17414FEA26
:103E10008C554FEA910704EB9C2406FB07FC4FEA04
:103E20001C4C0CFB0BF7B0EBC74072EB573203FB9B
:103E30000CF734BFA2EBC742B2EBC74261EB57317C
:103E40000CFB0EF7B0EBC70072EB57720CFB08F7D8
:103E500034BFA2EBC702B2EBC70261EB577115EB9F
:103E60004C254FEA816141EA92114FEA82624FEAA2
:103E7000D13742EA901206FB07FC44F100044FEAF6
:103E800080604FEA1C4C0CFB0BF7D21B03FB0CF7BA
:103E900061EB07010CFB0EF7B0EB074072EB17422A
:103EA0000CFB08F734BFA2EB0742B2EB074261EB11
:103EB000174115EB1C154FEA813141EA92414FEA57
:103EC000823242EA90424FEA80304FEA0C7644F167
:103ED000000448EA03434EEA0B484FF0000EB2EBF1
:103EE000080C71EB030724BF624639464EEB0E0EF9
:103EF0004FF0000B0018524149414BEB0B0BB2EB5A
:103F0000080C71EB03077BF1000B24BF62463946B6
:103F10004EEB0E0E4FF0000B0018524149414BEB97
:103F20000B0BB2EB080C71EB03077BF1000B24BF0A
:103F3000624639464EEB0E0E51EA020718BF46F0B4
:103F4000010616EB0E7655F1000254F1000103D57F
:103F5000BDE88901BDE80088BDE88901BDE80048E9
:103F6000B619524141EB0101A3F101037047808072
:103F70007F7E7D7C7B7A79787776767574737271C3
:103F800071706F6E6E6D6C6C6B6A6A69686867667B
:103F900066656464636362616160605F5F5E5E5D0D
:103FA0005D5C5C5B5B5A5A59595858575756565581
:103FB00055555454535352525251515050504F4FE3
:103FC0004F4E4E4D4D4D4C4C4C4B4B4B4A4A4A4933
:103FD0004949484848474747474646464545454476
:103FE0004444444343434342424242414141002B03
:103FF00026D4770021D01CB54FEA370703B44FF021
:1040000010004FF010014FF000000FBCBDE8104051
:104010000BF1010BBBF1010F08BF5FEA170722BFCD
:1040200012F1010211F101014FF0004143F10003CF
:1040300000F0004043EA00007047F9D35708DAE780
:1040400046EA064613F1400F4FEA16461FDD13F10C
:10405000200FDFBF16430A46002120335B42C8D041
:10406000C3F1200746EA064602FA07F74FEA16466A
:1040700046EA0706C3F1200722FA03F201FA07F71E
:1040800021FA03F14FF0000342EA0702B1E746EAE2
:10409000020646EA06464FEA164646EA0106BCBF55
:1040A00046EA0646360C4FF000034FF000024FF090
:1040B00000019EE72DE9C048934630B491E83800EE
:1040C00007C831EA400C48BF34EA430C03D5FFF778
:1040D000F2FDFFF78CFFF0BCBDE800882DE9C04879
:1040E000934630B491E8380007C810F0804F08BFFD
:1040F00013F0804F03D100F005F8FFF778FFF0BC14
:10410000BDE8008820F07F4780EA030023F07F4C61
:1041100007EB0C03A3F57C5300F00040A3F1FE0372
:1041200092F0000F00F0B38095F0000F00F0778060
:104130002DE901494FEA11404FEA144621EA0048AF
:1041400000FB06FC24EA064708FB06F607FB08F816
:1041500000FB07F718EB06484CEB164C4FEA124BE6
:1041600018EB07484FEA15464CEB174022EA0B4E76
:104170000BFB06FC25EA06470EFB06F607FB0EFEC8
:104180000BFB07F71EEB064E4CEB164C4FF00006F0
:104190001EEB074E4CEB174B18EB0B0840F10000E1
:1041A00018EB0E0B58EB000840F100008F1A4FF08F
:1041B00000013CBFC943661B14BFB5EB040C0021D2
:1041C0003CBFC943F61B4FEA17444EEA8E0E27EA5E
:1041D00004454FEA1C4704FB07622CEA074C05FB29
:1041E00007F70CFB05F604FB0CFC16EB074642EB4D
:1041F000174216EB0C4642EB1C421BEB060658EB33
:104200000202414146EA9E0601D5BDE80189B61980
:10421000524141EB0101A3F10103BDE801894FEADD
:1042200014454FEA114724EA054621EA074C05FBED
:1042300007F406FB07F70CFB06F105FB0CFC11EB82
:10424000074144EB17444FEA124711EB0C4144EB92
:104250001C4422EA074C05FB07F206FB07F70CFBA0
:1042600006F605FB0CFC16EB074642EB174216EB75
:104270000C4642EB1C456A1854F1000148BF7047D8
:10428000B619524141EB0101A3F10103704795F0CA
:10429000000F37D04FEA11424FEA144721EA024695
:1042A00024EA074C02FB07F106FB07F70CFB06F4B8
:1042B00002FB0CFC14EB074441EB17414FEA154796
:1042C00014EB0C4441EB1C4125EA074C02FB07F5BB
:1042D00006FB07F70CFB06F602FB0CFC16EB074689
:1042E00045EB174516EB0C4645EB1C42121951F1F4
:1042F000000148BF7047B619524141EB0101A3F1DB
:10430000010370474FEA14454FEA114724EA054676
:1043100021EA074C05FB07F106FB07F70CFB06F249
:104320004FF0000605FB0CFC12EB074241EB174176
:1043300012EB0C4251EB1C4148BF7047921841EB05
:104340000101A3F101037047490050EAC12018BFE1
:1043500004204A0D18BF40F0010040F2FF72B2EB9A
:10436000515F08BF40F00200012808BF05207047D8
:1043700010B500290AD00878002807D005487844ED
:10438000FFF7DAFB002801D0002010BD0248784476
:1043900010BD0000E6190000DE19000021F0004207
:1043A000A2F16052B2F5801F01F0004328BFD2F1A4
:1043B0007F6C0BD95FEA001C43EAC20242EB5070EB
:1043C00018BF704728BF20F001007047B2F5801F6A
:1043D000BCBF184670474FEA410C1CF5001F02D2C3
:1043E000084600F06DBB70B500F068FA0000008967
:1043F000FFF7F6BF4FF00040A0F58000704749106E
:1044000058BFC1F140415B1058BFC3F140438B42DC
:10441000EFF30080704700002DE9C04130B4DFF8B1
:10442000A0C23CEA111418BF3CEA131400F0EC805F
:1044300081EA03051CEA111444EAD57418BF1CEA8A
:10444000131500F0C780A4EB05044FF0004545EAC2
:10445000C12145EAC32341EA505143EA525304F1D2
:104460007F74994204F500344FEAC0204FEAC2221B
:1044700008BF904200F09C804FEA13650FF240168F
:10448000765D4FEA134506FB05F7C7F1807706FB1B
:1044900007F74FEAD737A7FB03687642C8F580389D
:1044A000A7FB06CE38BFA8F1010807FB08E64FF0CE
:1044B000000EA6FB028CE6FB03CEDCF1000CCEF175
:1044C000004E38BFAEF1010EA6FB0C584FF00007AE
:1044D0004FF00005E6FB0E87A1FB08C6A0FB07CE48
:1044E00016EB0E0645F10005E1FB076515F1E04E00
:1044F0007EBFA4F580345FEA46066D4116F1800761
:1045000045F100054FEA17274FEA066647EA0567B7
:10451000A6F1DE46B6F1805F4FEA15251FD9384671
:1045200024F0010C05EBC471BCF1FE6F01EB0C1122
:1045300002D8F0BCBDE8008124425CBF01F5801EBA
:104540009EEAC47F02D4F0BCBDE80081244238D486
:10455000F0BCA1F1C041BDE8004100F0FDB94FEA57
:10456000D22242EA43524FEAD323A7FB02864FEA04
:10457000D02040EA415007FB03661EEA0E0F4FEAC7
:10458000D12105FB026658BFA6EB0056B6EB0056DC
:104590004FEA520E4EEAC37E18EB0E0E56EB530E48
:1045A000BDD518EB02085E417F1C55F10005B6E74A
:1045B0004FF480154FF000074FF000064FF0000851
:1045C000ADE7F0BC4FF0000001F1C04101F0004147
:1045D000BDE8008111EA0C1F0CEA131500D00CE0B5
:1045E00013EA0C1F00F025804FF00000F0BC81EAB8
:1045F000030101F00041BDE80081F0BCBDE80041CD
:1046000081EA030100F0A8B9F0BCBDE8004170B533
:1046100000F054F9097EFC3E00F007B881EA03017E
:104620004FF0000001F00041704781EA030100F003
:1046300093B9F0BCBDE800414FF00000214970473C
:10464000FFFDFBF9F7F5F4F2F0EEEDEBE9E8E6E457
:10465000E3E1E0DEDDDBDAD8D7D5D4D3D1D0CFCDDE
:10466000CCCBCAC8C7C6C5C4C2C1C0BFBEBDBCBB17
:10467000BAB9B8B7B6B5B4B3B2B1B0AFAEADACAB12
:10468000AAA9A8A8A7A6A5A4A3A3A2A1A09F9F9EEC
:104690009D9C9C9B9A99999897979695959493939E
:1046A000929191908F8F8E8E8D8C8C8B8B8A898935
:1046B00088888787868585848483838282818180B8
:1046C0000000FF070000F87FB0FA80F310FA03F152
:1046D0000AD0C3F11D0303F580634FEA41504FEA4E
:1046E000035202EBD12170474FF0000070470000E9
:1046F00051EA030C17D41CF5801F58BFBCF5801F6E
:1047000000F10680994218BF704708BF9042704779
:1047100007D711F5801F58BF13F5801F19D4994290
:104720007047894270471CF5801F08D5BCF5801F73
:10473000F7D58B4218BF704708BF824270474FF4CD
:10474000001C1CEB410F38BF1CEB430F01D28B4206
:10475000704770B500F0B2F8922449004FF0005154
:104760004FF08053FFF74BBEDFF848C170B51CEA2D
:10477000111E1EBF1CEA13159EEA0C0F95EA0C0FC2
:1047800000F06F8081EA030423EA4C134EEAD47EE2
:1047900021EA4C1141F4801143F48013AE44A1FB93
:1047A000024CA0FB0365AEF17F7E361955EB0C057C
:1047B000A1FB034C4CF10003A0FB021C16EB0C0602
:1047C000654153F10003094218BF46F0010613F496
:1047D000007F0BD14FEA03314FEA0530340341EA41
:1047E000155140EA16506FF003020AE04FEAC32168
:1047F0004FEAC520F40241EA555140EA56506FF0A5
:10480000020202EB2E4201EB025585EACE710AD07C
:104810005FEA440C18BF24F0004450F1000041F15D
:10482000000120EAD47040F2FE7C624500D270BDE7
:10483000A84214BF4FF080444FF04044002E08BF00
:104840000024BEF1806FA8BFA1F1C041BDE8704057
:1048500080F282804FF0000001F1C04101F0004180
:1048600070479EEA0C0F0CEA131518BF95EA0C0F5F
:1048700006D04FF0000081EA030E0EF0004170BD3B
:1048800000F01CF88900013E00F007B800F009B8FC
:104890004FEA430C5FEA5C5C08D081EA030100F058
:1048A0005BB84FEA410C5FEA5C5CF6D14FF0000068
:1048B000014970470000FF070000F87F0EF1020E6B
:1048C0002EF0030E5EF8046B364205D4012A43EB4A
:1048D000030515F5001F12D8012841EB010C1CF54A
:1048E000001F0CD80ED14FEAD17C15F5001F0CEB40
:1048F0004C0C0CF1020C08BF4CEBD37C04E04FF0E5
:10490000080C01E04FEAD37C0CEB4C0526FA05F6C7
:1049100006F00706B6F1040C06D20EEB860CBDE8D5
:1049200070404CF0010C6047DFE80CF0090B02020C
:104930004FF000414FF00000A1F5002170BD194675
:104940001046012851EB010418BFD4F5001484BFB0
:10495000002001F0004170BD0808A0F500114FEAE9
:104960003101704753EA010C17D41CF5801F58BF62
:10497000BCF5801F00F106808B4218BF704708BF4E
:104980008242704707D713F5801F58BF11F5801F6B
:1049900019D48B4270479B4270471CF5801F08D585
:1049A000BCF5801FF7D5994218BF704708BF9042E9
:1049B00070474FF4001C1CEB430F38BF1CEB410F3A
:1049C00001D2994270470FB40CBC03BCFFF7C1BEC3
:1049D00043004FEAD30C4FEA3C0C43401FBF400753
:1049E0000CF1605113F0FE4F70471CF0006F03D1C3
:1049F00000200CF0004170470CF0004343EA507077
:104A000010B540EACC0000F00EF800BF00000092A4
:104A10004FEA0001FFF7A0BF4FF000414FF0000048
:104A2000A1F5002170470EF1020E2EF0030E5EF884
:104A3000044B244204D44FEA4102B2F17F4F11D813
:104A40004FEA4003B3F17F4F0CD80ED14FEAD07C30
:104A5000B2F17F4F0CEB4C0C0CF1020C08BF4CEB8D
:104A6000D17C04E04FF0080C01E04FEAD17C0CEB64
:104A70004C0324FA03F404F00704B4F1040C06D246
:104A80000EEB840CBDE810404CF0010C6047DFE8F1
:104A90000CF0070802024FF00040A0F5800010BDA6
:104AA0000846420018BFD2F1807288BF00F0004073
:104AB00010BD10B5FFF780F84FF00001016010BD88
:104AC000FF2141EAD050C0057047FEF795BD0000B8
:104AD00000000000000000000000000000000000D6
:104AE00000000000000000000000000000000000C6
:104AF00000000000000000000000000000000000B6
:104B0000800180018001800180018001800180019D
:104B1000800180018001800180010000000080018F
:104B20008001000000000000000000000000000004
:104B30000000CC00CC00CC00CC00CC00CC000000AD
:104B40000000000000000000000000000000000065
:104B50000000000000000000000000000000000055
:104B600000000000000000000000600C600C600C01
:104B700030063006FE1FFE1F300638071803FE1FE2
:104B8000FE1F180318038C018C018C01000000002B
:104B90008000E003F80F9C0E8C1C8C188C00980091
:104BA000F801E007800E801C8C188C189C18B80C3B
:104BB000F00FE00380008000000000000000000013
:104BC000000000000E181B0C110C11061106110339
:104BD00011039B018E01C038C06C604460443044B6
:104BE00030441844186C0C3800000000000000002D
:104BF000E001F0033807180618063003F001F00052
:104C0000F8009C310E33061E061C061C063FFC7382
:104C1000F021000000000000000000000000000083
:104C200000000C000C000C000C000C000C0000003C
:104C30000000000000000000000000000000000074
:104C40000000000000000000000000000000000064
:104C5000000200038001C000C0006000600030005E
:104C60003000300030003000300030003000600094
:104C70006000C000C00080010003000200000000CE
:104C800020006000C00080018001000300030006D6
:104C900000060006000600060006000600060003E7
:104CA000000380018001C0006000200000000000BF
:104CB00000000000000000000000C000C000D80696
:104CC000F807E00130033807000000000000000092
:104CD00000000000000000000000000000000000D4
:104CE0000000000000000000000080018001800141
:104CF00080018001FC3FFC3F800180018001800138
:104D00008001000000000000000000000000000022
:104D10000000000000000000000000000000000093
:104D20000000000000000000000000000000000083
:104D300080018001000100018000000000000000EF
:104D40000000000000000000000000000000000063
:104D5000000000000000E007E00700000000000085
:104D60000000000000000000000000000000000043
:104D70000000000000000000000000000000000033
:104D80000000000000000000000000000000000023
:104D9000C000C00000000000000000000000000093
:104DA000000C000C000600060006000300030003D0
:104DB0008003800180018001C000C000C00060004D
:104DC0006000000000000000000000000000000083
:104DD000E003F007380E180C0C180C180C180C18FF
:104DE0000C180C180C180C180C18180C380EF007AE
:104DF000E0030000000000000000000000000000D0
:104E000000018001C001F00198018801800180014A
:104E1000800180018001800180018001800180018A
:104E20008001000000000000000000000000000001
:104E3000E003F80F180C0C180C1800180018000CE0
:104E4000000600038001C000600030001800FC1F55
:104E5000FC1F000000000000000000000000000037
:104E6000E001F807180E0C0C0C0C000C0006C00337
:104E7000C007000C001800180C180C18180CF807C4
:104E8000E00300000000000000000000000000003F
:104E9000000C000E000F000F800DC00C600C600CA9
:104EA000300C180C0C0CFC3FFC3F000C000C000CF0
:104EB000000C0000000000000000000000000000E6
:104EC000F80FF80F180018000C00EC03FC071C0E7C
:104ED000001C0018001800180C181C0C180EF807FD
:104EE000E0030000000000000000000000000000DF
:104EF000C007F00F381C181818000C00CC03EC0F7A
:104F00003C0E1C1C0C180C180C18181C380EF00742
:104F1000E0030000000000000000000000000000AE
:104F2000FC1FFC1F000C000600060003800380012C
:104F3000C001C000E0006000600070003000300080
:104F40003000000000000000000000000000000031
:104F5000E003F007380E180C180C180C3806F00790
:104F6000F007180C0C180C180C180C18380CF80F4B
:104F7000E00300000000000000000000000000004E
:104F8000E003F007380E1C0C0C180C180C181C1C35
:104F9000381EF81BE0190018000C000C1C0EF80756
:104FA000F001000000000000000000000000000010
:104FB00000000000000000000000800180010000EF
:104FC0000000000000000000000000000000800160
:104FD0008001000000000000000000000000000050
:104FE00000000000000000000000800180010000BF
:104FF0000000000000000000000000000000800130
:10500000800100010001800000000000000000009D
:105010000000000000000000000000000000001080
:10502000001C800FE003F8001800F800E003800F78
:10503000001C001000000000000000000000000044
:105040000000000000000000000000000000F81F49
:10505000000000000000F81F000000000000000039
:105060000000000000000000000000000000000040
:105070000000000000000000000000000000080028
:105080003800F001C007001F0018001FC007F00122
:1050900038000800000000000000000000000000D0
:1050A000E003F80F180C0C180C180018000C000680
:1050B00000038001C000C000C00000000000C0006C
:1050C000C000000000000000000000000000000020
:1050D0000000E00718180420C229224A114409449C
:1050E0000944094409221113E20C02400420181853
:1050F000E0070000000000000000000000000000C9
:1051000080038003C006C006C006600C600C301827
:1051100030183018F83FF83F1C700C600C6006C067
:1051200006C00000000000000000000000000000B9
:10513000FC03FC0F0C0C0C180C180C180C0CFC07C6
:10514000FC0F0C180C300C300C300C300C18FC1F01
:10515000FC0700000000000000000000000000004C
:10516000C007F01F38381C300C70066006000600BF
:10517000060006000600060006600C701C30F01FDA
:10518000E007000000000000000000000000000038
:10519000FE03FE0F060E061806180630063006300F
:1051A000063006300630063006180618060EFE0FCA
:1051B000FE030000000000000000000000000000EE
:1051C000FC3FFC3F0C000C000C000C000C00FC1F12
:1051D000FC1F0C000C000C000C000C000C00FC3F31
:1051E000FC3F000000000000000000000000000084
:1051F000F83FF83F18001800180018001800F81FB2
:10520000F81F1800180018001800180018001800DF
:105210001800000000000000000000000000000076
:10522000E00FF83F3C780E6006E007C00300030083
:1052300003FE03FE03C007C006C00EC03CF0F83FEB
:10524000E00F00000000000000000000000000006F
:105250000C300C300C300C300C300C300C30FC3F6F
:10526000FC3F0C300C300C300C300C300C300C305F
:105270000C300000000000000000000000000000F2
:105280008001800180018001800180018001800116
:105290008001800180018001800180018001800106
:1052A000800100000000000000000000000000007D
:1052B00000060006000600060006000600060006BE
:1052C0000006000600060006180618063807F00358
:1052D000E0010000000000000000000000000000ED
:1052E00006300618060C060606038601C600660090
:1052F0007600DE008E0106030606060C0618063050
:105300000660000000000000000000000000000037
:1053100018001800180018001800180018001800CD
:105320001800180018001800180018001800F81FBE
:10533000F81F000000000000000000000000000056
:105340000EE01EF01EF01EF036D836D836D836D80D
:1053500066CC66CC66CCC6C6C6C6C6C6C6C686C33E
:1053600086C30000000000000000000000000000F4
:105370000C301C303C303C306C306C30CC30CC309D
:105380008C310C330C330C360C360C3C0C3C0C388A
:105390000C300000000000000000000000000000D1
:1053A000E007F81F1C380E70066003C003C003C07E
:1053B00003C003C003C003C006600E701C38F81F92
:1053C000E0070000000000000000000000000000F6
:1053D000FC0FFC1F0C380C300C300C300C300C184F
:1053E000FC1FFC070C000C000C000C000C000C0057
:1053F0000C000000000000000000000000000000A1
:10540000E007F81F1C380E70066003E003C003C0FD
:1054100003C003C003C007E006630E3F1C3CF83F17
:10542000E0F700C0000000000000000000000000E5
:10543000FE0FFE1F06380630063006300638FE1F07
:10544000FE0706030606060C061806180630063088
:1054500006600000000000000000000000000000E6
:10546000E003F80F1C0C0C180C180C001C00F803BF
:10547000E00F001E0038063006300E301C1CF80FFE
:10548000E007000000000000000000000000000035
:10549000FE7FFE7F8001800180018001800180010C
:1054A00080018001800180018001800180018001F4
:1054B000800100000000000000000000000000006B
:1054C0000C300C300C300C300C300C300C300C30FC
:1054D0000C300C300C300C300C300C301818F81F1D
:1054E000E0070000000000000000000000000000D5
:1054F00003600630063006300C180C180C18180C17
:10550000180C380E30063006700760036003C001C7
:10551000C0010000000000000000000000000000CA
:105520000360C361C361C361663366336633663348
:10553000663366336C1B6C1B6C1B2C1A3C1E380EBE
:10554000380E000000000000000000000000000015
:105550000FE00C7018303018700C600EC00780031C
:105560008003C003E006700C301C18180C300E606D
:1055700007E0000000000000000000000000000044
:1055800003C006600C301C383818300C6006E00789
:10559000C0038001800180018001800180018001C1
:1055A000800100000000000000000000000000007A
:1055B000FC7FFC7F006000300018000C0006000338
:1055C0008001C0006000300018000C000600FE7F63
:1055D000FE7F00000000000000000000000000004E
:1055E000E003E003600060006000600060006000B5
:1055F00060006000600060006000600060006000AB
:105600006000600060006000E003E0030000000054
:1056100030003000600060006000C000C000C000CA
:10562000C001800180018001000300030003000627
:105630000006000000000000000000000000000064
:10564000E003E00300030003000300030003000382
:105650000003000300030003000300030003000332
:105660000003000300030003E003E0030000000068
:105670000000C001C0016003600360033006300613
:10568000180C180C000000000000000000000000D2
:10569000000000000000000000000000000000000A
:1056A00000000000000000000000000000000000FA
:1056B00000000000000000000000000000000000EA
:1056C000FFFFFFFF000000000000000000000000DE
:1056D0000C000C000C000C000C000C000000000082
:1056E00000000000000000000000000000000000BA
:1056F00000000000000000000000000000000000AA
:1057000000000000000000000000F003F8071C0C7F
:105710000C0C000FF00FF80C0C0C0C0C1C0FF80FFD
:10572000F018000000000000000000000000000071
:1057300018001800180018001800D803F80F380CCB
:10574000181818181818181818181818380CF80FEE
:10575000D80300000000000000000000000000006E
:1057600000000000000000000000C003F007300E41
:10577000180C1800180018001800180C300EF0074C
:10578000C003000000000000000000000000000056
:1057900000180018001800180018C01BF01F301C5B
:1057A000181818181818181818181818301CF01F7E
:1057B000C01B00000000000000000000000000000E
:1057C00000000000000000000000C003F00F300CDB
:1057D0001818F81FF81F180018003818301CF00FA0
:1057E000C0070000000000000000000000000000F2
:1057F000800FC00FC000C000C000F007F007C0005D
:10580000C000C000C000C000C000C000C000C00098
:10581000C0000000000000000000000000000000C8
:1058200000000000000000000000E00DF80F180E5E
:105830000C0C0C0C0C0C0C0C0C0C0C0C180EF80FAB
:10584000E00D000C0C0C1C06F807F0010000000035
:1058500018001800180018001800D807F80F381C96
:1058600018181818181818181818181818181818B8
:1058700018180000000000000000000000000000F8
:10588000C000C000000000000000C000C000C00058
:10589000C000C000C000C000C000C000C000C00008
:1058A000C000000000000000000000000000000038
:1058B000C000C000000000000000C000C000C00028
:1058C000C000C000C000C000C000C000C000C000D8
:1058D000C000C000C000C000F80078000000000058
:1058E0000C000C000C000C000C000C0C0C060C0343
:1058F0008C01CC006C00FC009C018C030C030C069A
:105900000C0C00000000000000000000000000007F
:10591000C000C000C000C000C000C000C000C00087
:10592000C000C000C000C000C000C000C000C00077
:10593000C0000000000000000000000000000000A7
:10594000000000000000000000007C3CFF7EC7E378
:1059500083C183C183C183C183C183C183C183C127
:1059600083C10000000000000000000000000000F3
:10597000000000000000000000009807F80F381C2D
:105980001818181818181818181818181818181897
:1059900018180000000000000000000000000000D7
:1059A00000000000000000000000C003F00F300CF9
:1059B000181818181818181818181818300CF00F8C
:1059C000C003000000000000000000000000000014
:1059D00000000000000000000000D803F80F380CA1
:1059E000181818181818181818181818380CF80F4C
:1059F000D803180018001800180018000000000054
:105A000000000000000000000000C01BF01F301C60
:105A1000181818181818181818181818301CF01F0B
:105A2000C01B001800180018001800180000000023
:105A300000000000000000000000B007F00370004C
:105A400030003000300030003000300030003000D6
:105A50003000000000000000000000000000000016
:105A600000000000000000000000E003F003380E1A
:105A7000180C3800F003C007000C180C380EF007A3
:105A8000E003000000000000000000000000000033
:105A900000008000C000C000C000F007F007C00098
:105AA000C000C000C000C000C000C000C000C007EF
:105AB000800700000000000000000000000000005F
:105AC0000000000000000000000018181818181846
:105AD000181818181818181818181818381CF01F43
