:020000040800F2
:10000000000700209D010008A5010008A7010008C5
:10001000A9010008AB010008AD01000800000000C4
:10002000000000000000000000000000AF01000818
:10003000B101000800000000B3010008B928000861
:10004000B7010008B7010008B70100086D2A0008D1
:10005000B7010008B70100087D290008F52900084C
:10006000312A0008B7010008B7010008B7010008ED
:10007000B7010008B7010008B7010008B701000880
:10008000B7010008B7010008B7010008B701000870
:10009000B7010008B7010008B7010008B729000838
:1000A000B7010008B7010008B7010008B701000850
:1000B000B7010008B7010008B7010008B701000840
:1000C000B7010008B7010008B7010008B701000830
:1000D000B7010008B7010008B7010008B701000820
:1000E000B7010008B7010008B701000800F002F8E6
:1000F00000F044F80AA090E8000C82448344AAF17E
:100100000107DA4501D100F039F8AFF2090EBAE87B
:100110000F0013F0010F18BFFB1A43F0010318473B
:100120009C4C0000BC4C0000103A24BF78C878C139
:10013000FAD8520724BF30C830C144BF04680C60ED
:10014000704700000023002400250026103A28BF35
:1001500078C1FBD8520728BF30C148BF0B60704739
:10016000642903F0DB82632903F03984002070479F
:100170001FB503F02AFD1FBD10B510BD03F043FCF1
:100180001146FFF7F5FF01F00DFE03F061FC03B42B
:10019000FFF7F2FF03BC03F06BFC00000948804747
:1001A00009480047FEE7FEE7FEE7FEE7FEE7FEE759
:1001B000FEE7FEE7FEE7FEE704480549054A064B71
:1001C00070470000A5020008ED00000800010020B3
:1001D0000007002000030020000300200021002071
:1001E000674A126842F48032654B1A6000BF644A65
:1001F000126802F40030491C10B9B1F5A06FF6D1B5
:100200005F4A126812F4003F01D0012000E0002094
:10021000012842D15B4A126842F01002594B1A6021
:100220001A46126822F003021A601A46126842F057
:1002300002021A60524A5268514B5A601A4652687A
:100240005A601A46526842F480625A601A465268EE
:1002500022F47C125A601A46526842F4E8125A603C
:100260001A46126842F080721A6000BF444A12684F
:1002700012F0007FFAD0424A526822F00302404B4B
:100280005A601A46526842F002025A6000BF3C4A65
:10029000526802F00C02082AF9D1704710B5FFF736
:1002A0009DFF10BD10B53648006840F0010034498C
:1002B00008600846406834490840314948600846AB
:1002C0000068324908402E4908600846006820F45A
:1002D000802008600846406820F4FE0048604FF423
:1002E0001F008860FFF7DAFF4FF0006028490860C0
:1002F00010BD10B5002100200022214B5B6803F0E7
:100300000C0121B1042906D0082928D107E0214B8E
:10031000214C236027E01F4B1F4C236023E0184B28
:100320005B6803F47010164B5B6803F480320223A1
:1003300003EB904022B9194B4343174C23600DE067
:100340000F4B5B6813F4003F04D0144B4343124C33
:10035000236003E00F4B43430F4C236003E00D4B3E
:100360000D4C236000BF00BF054B5B68C3F3031354
:100370000B4CE15C084B1B68CB40074C236010BD65
:1003800000100240002002400000FFF8FFFFF6FED0
:1003900008ED00E000127A000000002000093D0096
:1003A0000400002010B50446CA48844208D1012147
:1003B000042000F024FB0021042000F020FB46E094
:1003C000C548844208D10121082000F018FB002113
:1003D000082000F014FB3AE0C048844208D1012113
:1003E000102000F00CFB0021102000F008FB2EE094
:1003F000BB48844208D10121202000F000FB0021ED
:10040000202000F0FCFA22E0B648844208D1012105
:10041000402000F0F4FA0021402000F0F0FA16E04D
:10042000B148844208D10121802000F0E8FA00217F
:10043000802000F0E4FA0AE0AC48844207D10121B0
:10044000801500F0DCFA0021A01500F0D8FA10BDEC
:1004500010B50121084600F0D2FA0021012000F079
:10046000CEFA10BD2DE9F0410246002500260020FD
:1004700000230024002791F803C00CF00F0591F829
:1004800003C01CF0100F03D091F802C04CEA050520
:10049000B1F800C01CF0FF0F31D0146800202BE031
:1004A0004FF0010C0CFA00F3B1F800C00CEA03069F
:1004B0009E4220D183004FF00F0C0CFA03F7BC438F
:1004C00005FA03FC4CEA040491F803C0BCF1280FC0
:1004D00006D14FF0010C0CFA00FCC2F814C00AE07F
:1004E00091F803C0BCF1480F05D14FF0010C0CFA94
:1004F00000FCC2F810C0401C0828D1D31460B1F829
:1005000000C0BCF1FF0F34DD546800202EE000F184
:10051000080C4FF0010808FA0CF3B1F800C00CEA1F
:1005200003069E4221D183004FF00F0C0CFA03F713
:10053000BC4305FA03FC4CEA040491F803C0BCF187
:10054000280F05D100F1080C08FA0CF8C2F8148045
:1005500091F803C0BCF1480F07D100F1080C4FF02F
:10056000010808FA0CF8C2F81080401C0828CED305
:100570005460BDE8F0814FF6FF7101800221817067
:100580000421C17070470246002093680B4201D0DD
:10059000012000E0002070470146886880B2704763
:1005A00002460020D3680B4201D0012000E0002069
:1005B00070470146C86880B2704701617047416169
:1005C00070470AB1016100E041617047C160704746
:1005D0004FF480320A43826181618261826982695B
:1005E000704702460020424B18684FF6807318404F
:1005F00040EA021008433E4B186070473D49C8610D
:100600007047F0B50A46002300240021002500F0C1
:100610000046B6F1004F02D1354EF16901E0344E8B
:100620007168C0F3034583B200F44016B6F5401F6D
:1006300008D121F070612E4E766826F070662C4F3E
:100640007E6012E000F48016B6F5801F06D1032606
:1006500006FA05F4A14341F0706106E0460D36014B
:1006600003FA06F6B14341F0706122B1460D36013E
:1006700003FA06F6314300F00046B6F1004F02D10E
:100680001B4EF16101E01A4E7160F0BD30B50022E1
:100690008B071C0F0F2303FA04F2154B08338C1041
:1006A00053F824309343124C08348D1044F825300D
:1006B00023468C1053F824308C07240F00FA04F4DE
:1006C00023430B4C08348D1044F8253030BD0A49C3
:1006D0000860704700080140000C01400010014014
:1006E0000014014000180140001C0140002001409E
:1006F0000000014000002042DC002042DB4800688E
:1007000040F00100D949086008464068D8490840CF
:10071000D649486008460068D6490840D349086071
:100720000846006820F4802008600846406820F4ED
:10073000FE0048604FF41F0088607047CB4909688D
:1007400021F48031C94A11601146096821F48021E1
:100750001160B0F5803F03D0B0F5802F0ED106E0D8
:10076000C249096841F48031C04A116007E0BF49BD
:10077000096841F4A021BD4A116000E000BF00BF3C
:10078000704710B501460022002300204A11012ABB
:1007900002D1B64C236806E0022A02D1B34C236A88
:1007A00001E0B24C636A01F01F02012494401C4234
:1007B00001D0012000E0002010BD70B5002400250C
:1007C000002600BF3120FFF7DCFF0646641CB4F5AD
:1007D000A06F01D0002EF5D03120FFF7D2FF08B175
:1007E000012500E00025284670BD014600209F4AF3
:1007F000106820F0F80040EAC100106070479E4980
:100800000860704702460020984B586820F47C101E
:1008100042EA01031843954B5860704796490866B1
:10082000704701460020914A506820F003000843B9
:10083000506070478D48406800F00C0070470146DA
:1008400000208A4A506820F0F0000843506070474A
:1008500001460020854A506820F4E060084350605B
:10086000704701460020814A506820F4605040EAF9
:10087000C1005060704729B17C4A527A02437B4BD9
:100880005A7206E0794A527AC343DBB21A40774B78
:100890005A72704779490860704701460020734AD0
:1008A000506820F440400843506070470021744A6B
:1008B00011706E4A82F82010012802D0042808D155
:1008C00003E001216E4A117004E005216C4A1170A9
:1008D00000E000BF00BF70476A4908607047634985
:1008E000096A0143614A11627047674908607047AD
:1008F00030B500210022002400235C4D6D6805F016
:100900000C0121B1042905D0082923D105E05F4D50
:10091000056022E05D4D05601FE0544D6D6805F4F3
:100920007012524D6D6805F48034022505EB924239
:100930001CB9574D554305600BE04C4D6D6815F4DF
:10094000003F03D0524D5543056002E04F4D5543E3
:10095000056002E04D4D056000BF00BF434D6D686E
:1009600005F0F00109094B4D6B5C0568DD40456001
:100970003E4D6D6805F4E061090A464D6B5C4568C3
:10098000DD408560394D6D6805F46051C90A414DFF
:100990006B5C4568DD40C560344D6D6805F44041D1
:1009A000890B3D4D6B5CC568B5FBF3F5056130BD4A
:1009B00029B12E4A526902432C4B5A6104E02B4A5A
:1009C00052698243294B5A61704729B1274A92697B
:1009D0000243264B9A6104E0244A92698243234BE6
:1009E0009A61704729B1214AD26902431F4BDA61EB
:1009F00004E01E4AD26982431C4BDA61704729B178
:100A00001A4AD2680243194BDA6004E0174AD268E6
:100A10008243164BDA60704729B1144A12690243C7
:100A2000124B1A6104E0114A126982430F4B1A619A
:100A300070471A49086070470F49C86470470B49EE
:100A4000C87170470948406A40F0807007494862A1
:100A5000704701460020054A92680A4201D00120F1
:100A600000E0002070470149887270470010024082
:100A70000000FFF8FFFFF6FE00004242D8004242AD
:100A800020100240800442423C04424200127A009C
:100A900000093D00140000202400002040044242D0
:100AA00036490143364A1160704770B50021002372
:100AB0000F22C4784CB3324C246804F4E064C4F5CB
:100AC000E0644FEA1421C1F1040322FA01F24478F0
:100AD00004FA03F1847804EA020444EA01014FEACB
:100AE0000111284C0678A155047804F01F054FF039
:100AF000010404FA05F405784FEA65154FF0E02685
:100B000006EB8505C5F8004109E0047804F01F05EF
:100B10000124AC401C4D0678761145F8264070BD86
:100B20001A4A0A4002431A4B1A60704741B1194AE7
:100B3000126842EA00024FF0E023C3F8102D07E0EC
:100B4000144A126822EA00024FF0E023C3F8102D85
:100B50007047042808D14FF0E021096941F00401F1
:100B60004FF0E022116107E04FF0E021096921F028
:100B700004014FF0E0221161704700000000FA0507
:100B80000CED00E000E400E080E100E080FFFF1FEA
:100B900008ED00E010ED00E00020474908604749FB
:100BA000C1F804044649086001F1040108604548A1
:100BB00045490860704700213F498279DAB33F4ACE
:100BC000D2F8002403689A433C4BC3F800241A4629
:100BD000D2F8042403689A4301F104031A600279ED
:100BE00011440A68036842EA03020A60334AD2F8F1
:100BF0000824036822EA0302304BC3F808241A468B
:100C0000D2F80C24036822EA0302304B1A604279BE
:100C1000102A11D1294AD2F8082403681A43274B15
:100C2000C3F808241A46D2F80C2403681A43234B4D
:100C3000C3F80C240EE007E01F49427911440A680A
:100C400003681A430A6005E0027911440A680368E0
:100C50009A430A6070470021016001710C214171C3
:100C60000021817170471A49096841EA0001134A5D
:100C7000C2F81014704701460020134A12680A4255
:100C800001D0012000E0002070470F490860704744
:100C9000014600200022084B1B6803EA0102074BB3
:100CA000D3F814340B4202D00AB1012000E0002036
:100CB000704705490860704700040140000001408A
:100CC00008040140FFFF0F00140401400C04014020
:100CD0001004014039B1554A128842EA0002544BCF
:100CE000A3F8002809E0514A12886FEA00039BB27A
:100CF00002EA03024E4BA3F8002870474D480088D3
:100D000040F010004A49A1F804087047494800889B
:100D10004FF6EF7100EA01004549A1F80408704759
:100D20000021454801884248B0F8180841EA0040CF
:100D3000704700B50246FFF7E1FF100C3F490880FD
:100D40003B49A1F81C28FFF7E1FF00BD00B50246B2
:100D5000FFF7D4FFC2F30340394908803449A1F8B2
:100D60000C28FFF7D3FF00BD00B50246FFF7C6FF12
:100D7000100C344908802E49A1F82428FFF7C6FF3B
:100D800000BD0020304909884FEA01714FEA113057
:100D90002749B1F8141841EA0000704700BF254800
:100DA000008810F0200FFAD07047224800884FF6D4
:100DB000F77100EA01001E49A1F8040800BF1D48B0
:100DC000008810F0080FFAD0704701460020194A39
:100DD00012880A4201D0012000E000207047154926
:100DE00009886FEA000292B201EA0201104AA2F8F1
:100DF00004187047014600200E4A128802EA0102D8
:100E0000D0B20B4AB2F800280A4202D008B1012041
:100E100000E000207047074909886FEA000292B29B
:100E200001EA0201024AA2F80418704700280040B3
:100E300000200040042800401C28004018280040E2
:100E400008280040202800401028004010B501204C
:100E5000FFF7EFFD0020FFF7ECFD10BD244908600F
:100E6000704724490860704723490860704701466D
:100E70000020224A10884FF67F4200EA020040EA32
:100E800001001F4AA2F82C0C7047014600201B4AA3
:100E900010884FF6807200EA020040EA0100184A0A
:100EA000A2F82C0C70470022144A2C3A024411601C
:100EB000704701460022114A2C3A0A4410887047B4
:100EC00010480068C0B270470F48008840F0010029
:100ED0000B49A1F8340C70470C480068C0B2704749
:100EE0000948008840F002000549A1F8340C704719
:100EF00004860D4200860D4288860D422C6C00400F
:100F000000600040A0860D42346C0040A4860D4273
:100F100010B501210807FFF77FFD00214FF0805039
:100F2000FFF77AFD10BD2C49086270472A49086115
:100F3000704701460020294A106820F0E00008436D
:100F40001060704726490860704710B502460020BF
:100F5000224B186820F0030010431860214B1B68D7
:100F600043F004034FF0E024C4F8103D012901D1FF
:100F700030BF00E020BF1B4B1B6823F004034FF081
:100F8000E024C4F8103D10BD1448006840F004008F
:100F9000124908600846006840F0020008601148E5
:100FA000006840F004004FF0E021C1F8100D00BFD0
:100FB00000BF30BF704701460020084A52680A420D
:100FC00001D0012000E0002070470449096841EA8F
:100FD0008001024A1160704700000E42007000401C
:100FE000A0000E4210ED00E010B50446FF48844218
:100FF00008D10121C014FFF702FD0021E014FFF722
:10100000FEFCC4E0B4F1804F08D101210846FFF78F
:1010100003FD00210120FFF7FFFCB8E0F448844203
:1010200008D101210220FFF7F7FC00210220FFF781
:10103000F3FCACE0EF48844208D101210420FFF723
:10104000EBFC00210420FFF7E7FCA0E0EA48844223
:1010500008D101210820FFF7DFFC00210820FFF75D
:10106000DBFC94E0E548844208D101211020FFF721
:10107000D3FC00211020FFF7CFFC88E0E048844239
:1010800008D101212020FFF7C7FC00212020FFF715
:10109000C3FC7CE0DB48844208D101214014FFF707
:1010A000AEFC00216014FFF7AAFC70E0D648844231
:1010B00009D10121C804FFF7A2FC00214FF4002050
:1010C000FFF79DFC63E0D148844209D10121080566
:1010D000FFF795FC00214FF48010FFF790FC56E0DD
:1010E000CB48844209D101214805FFF788FC002143
:1010F0004FF40010FFF783FC49E0C648844208D152
:1011000001214020FFF788FC00214020FFF784FCEC
:101110003DE0C148844208D101218020FFF77CFCDA
:1011200000218020FFF778FC31E0BC48844208D1E0
:1011300001218015FFF770FC0021A015FFF76CFC62
:1011400025E0B748844209D101210804FFF757FC84
:1011500000214FF48030FFF752FC18E0B148844280
:1011600009D101214804FFF74AFC00214FF4003067
:10117000FFF745FC0BE0AC48844208D1012188040C
:10118000FFF73DFC00214FF48020FFF738FC10BD35
:1011900070B504460D4600262688944884420ED039
:1011A000984884420BD0B4F1804F08D090488442D4
:1011B00005D09048844202D08F48844204D14FF633
:1011C0008F710E40688806438C48844207D08C4853
:1011D000844204D04FF6FF410E4028890643268002
:1011E000686802F08DFCA085288820857F488442AD
:1011F0000BD08448844208D08948844205D089486D
:10120000844202D08848844201D1A87A20860120F5
:10121000A08270BD70B5002400220023058C4FF61B
:10122000FE7635400584028C8388048B4FF68F75DB
:101230002C40B51E2C400D882C43751E2A400D896C
:101240002A434D882A43694DA8420BD06D4DA842D0
:1012500008D0734DA84205D0724DA84202D0724DFD
:10126000A84213D14FF6F7752A404D892A434FF60D
:10127000FB752A408D882A434FF6FF652B404FF6B9
:10128000FF552B408D892B43CD892B4383800483CD
:10129000CD888586028470BD70B5002400220023AD
:1012A000058C4FF6EF7635400584028C8388048BDD
:1012B00048F6FF752C404FF6FF452C400D882D0653
:1012C00044EA15444FF6DF752A400D892D0542EAA0
:1012D00015424D882D0542EA1542444DA84202D0E0
:1012E000484DA8421BD14FF67F752A404D892D05E8
:1012F00042EA15424FF6BF752A408D882D0542EA15
:1013000015424FF6FF352B404FF2FF752B408D896C
:10131000AD0443EA1543CD89AD0443EA1543838008
:101320000483CD880587028470BD70B50024002237
:101330000023058C4FF6FF6635400584028C8388B8
:10134000848B4FF68F752C404FF6FC752C400D8822
:101350002C434FF6FF552A400D892D0642EA1542CF
:101360004D882D0642EA1542204DA84202D0254D57
:10137000A8421BD14FF2FF752A404D892D0642EA43
:1013800015424FF6FF352A408D882D0642EA154258
:101390004EF6FF752B404DF6FF752B408D892D05C0
:1013A00043EA1543CD892D0543EA154383808483A1
:1013B000CD888587028470BD70B50022002300248B
:1013C000058C4EF6FF7635400584038C8488828B2D
:1013D00048F6FF752A404FF6FF452A400D882D0636
:1013E00042EA15424DF6FF752B401FE0002C0140EC
:1013F0000004004000080040000C004000100040C5
:101400000014004000340140004C014000500140F5
:101410000054014000180040001C00400020004023
:101420000040014000440140004801400D892D0763
:1014300043EA15434D882D0743EA1543F84DA8426A
:1014400002D0F84DA84206D14BF6FF752C408D898D
:10145000AD0544EA154484808283CD88A0F84050CD
:10146000038470BD828B4FF2FF331A408283828BDC
:101470000B0642EA134282837047F0B50C461546CC
:10148000002200210026078C4EF6FF7C07EA0C079D
:101490000784828B018C27073E0C40F6FF473A40B9
:1014A0002F0642EA17421F0742EA1742DC4FB842B2
:1014B0000ED0DC4FB8420BD0B0F1804F08D0DA4FDD
:1014C000B84205D0D94FB84202D0D94FB84206D160
:1014D0004DF6FF77394046F48057394305E047F62B
:1014E000FF57394044F48057394382830184F0BD6B
:1014F000828B4FF6F3731A408283828B0A43828376
:101500007047F0B50C461546002200210026078CD6
:101510004FF6FF6C07EA0C070784828B018C2706C5
:101520003E0C4FF60C773A401F0545EA17473A4301
:10153000BB4FB8420ED0BB4FB8420BD0B0F1804F7A
:1015400008D0B94FB84205D0B84FB84202D0B84F12
:10155000B84206D14FF6FF57394046F480773943F9
:1015600005E04FF2FF57394044F4807739438283D6
:101570000184F0BD028B4FF2FF331A400283028BCD
:101580000B0642EA134202837047F0B50C4615463B
:10159000002200210026078C4FF6EF7C07EA0C079B
:1015A0000784028B018C27053E0C40F6FF473A402A
:1015B0001F0742EA17422F0642EA1742984FB842E5
:1015C0000ED0984FB8420BD0B0F1804F08D0964F54
:1015D000B84205D0954FB84202D0954FB84206D1D7
:1015E0004FF6DF77394046F01007394305E04FF6F4
:1015F0005F77394044F01007394302830184F0BD1E
:10160000028B4FF6F3731A400283028B0A43028364
:101610007047F0B50C46154600220021068C4FF6A7
:10162000FE773E400684028B018C4FF60C763240EA
:101630001E0545EA16463243794EB0420ED0794E29
:10164000B0420BD0B0F1804F08D0774EB04205D0F9
:10165000764EB04202D0764EB04206D14FF6FD76BD
:10166000314044F00106314305E04FF6F576314054
:1016700044F00106314302830184F0BD70B5054694
:101680000C46674885420ED0664885420BD0B5F1BE
:10169000804F08D06448854205D06448854202D016
:1016A0006348854200D100E000BF208850B92389FB
:1016B000A28861882846FFF7ACFFE1882846FFF73B
:1016C0009FFF25E0208804280AD12389A288618809
:1016D0002846FFF75AFFE1882846FFF74BFF17E03F
:1016E000208808280AD12389A28861882846FFF724
:1016F00008FFE1882846FFF7FBFE09E02389A2885E
:1017000061882846FFF7B9FEE1882846FFF7AAFE60
:1017100070BD2DE9F04105460C4600260127608882
:1017200008B9022600E00026A088012801D102277E
:1017300000E001272088A0B92389A2886188284673
:10174000FFF767FFE1882846FFF75AFF23893A46EB
:1017500031462846FFF719FFE1882846FFF70AFFC0
:1017600013E02389A28861882846FFF70EFFE188ED
:101770002846FFF7FFFE23893A4631462846FFF701
:1017800048FFE1882846FFF73BFFBDE8F0810A8863
:101790004B881A438B881A43CB881A430B891A4308
:1017A0004B891A438B891A43A0F84420704721497A
:1017B00041600021018001814180817270470021D8
:1017C000018041808180C180018141818181C1810D
:1017D0007047002101804180012181800021C1806A
:1017E000018170470021018041808180C180018199
:1017F00041818181704721B1028842F0010202805B
:1018000004E002884FF6FE731A400280704799B1D7
:10181000B0F8442042F40042A0F8442012E0000056
:10182000002C01400034014000040040000800404A
:10183000000C004000FF7F47B0F84420C2F30E02C6
:10184000A0F84420704710B51AB183890B438381F7
:1018500004E08389CC43A4B22340838110BD8182FC
:10186000704741EA0203A0F84830704710B51AB13A
:1018700083890B43838104E08389CC43A4B2234052
:10188000838110BD01894FF6F872114001817047C4
:101890000A46002101894FF68F73194011430181D7
:1018A000704730B504460D4629462046FFF7F0FF45
:1018B000208940F00700208130BD2DE9F041044629
:1018C0000D4616461F46602D06D13B460122314685
:1018D0002046FFF75AFE05E03B46012231462046EE
:1018E000FFF797FE29462046FFF7D2FF208940F0F8
:1018F00007002081BDE8F08130B50C460021018948
:10190000C9B21D0642EA154525432943018130BD70
:101910002DE9F04105460E461746984600244346F9
:101920003A4631462846FFF7E7FF2C894FF6F87113
:101930000C4044F007044FF68F710C4044F07004E3
:101940002C81BDE8F081F0B504460D4616461F46D1
:101950003B46324629462046FFF7CEFF208940F419
:1019600080402081F0BD0185828270470A460021B7
:1019700001884FF68F731940114301807047F0B50D
:101980000C4615461E460021002200230189028BC9
:10199000038C4FF6F877394021434FF6FC473A4025
:1019A00040F201173A434FF6DD773B40370545EAF1
:1019B00017473B43018102830384F0BD0A4600219F
:1019C000018B4FF68F7319401143018370470A460C
:1019D0000021018B48F6FF731940130641EA1341B9
:1019E000018370470A460021818B4FF68F7319409F
:1019F0001143818370470A460021818B48F6FF73AB
:101A00001940130641EA13418183704721B10288CE
:101A100042F08002028004E002884FF67F731A4091
:101A20000280704721B1828842F00402828004E083
:101A300082884FF6FB731A408280704721B18288FA
:101A400042F00802828004E082884FF6F7731A4061
:101A50008280704721B1828842F00102828004E0D6
:101A600082884FF6FE731A40828070470A46002132
:101A7000018B4FF6F77319401143018370470A46F3
:101A80000021018B4FF2FF731940130641EA134105
:101A9000018370470A460021818B4FF6F773194086
:101AA0001143818370470A460021818B4FF2FF73F7
:101AB0001940130641EA1341818370470A46002109
:101AC000018B4FF6FB7319401143018370470A469F
:101AD0000021018B4FF6FF331940130641EA1341F1
:101AE000018370470A460021818B4FF6FB73194032
:101AF0001143818370470A460021818B4FF6FF33E3
:101B00001940130641EA1341818370470A460021B8
:101B1000018B4FF67F7319401143018370470A46CA
:101B20000021018BC1F30E01130641EA1341018329
:101B300070470A460021818B4FF67F73194011438D
:101B4000818370470A460021818BC1F30E01130681
:101B500041EA1341818370470A460021018C4FF608
:101B6000FD7319401143018470470A460021018C1E
:101B70004FF6F77319401143018470470A4600215C
:101B8000018C4FF6DF731940130541EA13410184BC
:101B900070470A460021018C4FF67F7319401305E8
:101BA00041EA1341018470470A460021018C4FF637
:101BB000FF531940130641EA1341018470470A4656
:101BC0000021018C4FF2FF731940130641EA1341C3
:101BD000018470470A460021018C4DF6FF731940BD
:101BE000130741EA13410184704730B500230124F3
:101BF0008C40A3B2048CDD43ADB22C400484048C31
:101C000002FA01F5ADB22C43048430BD30B5002397
:101C100004248C40A3B2048CDD43ADB22C40048478
:101C2000048C02FA01F5ADB22C43048430BD70B5CA
:101C30000346002000241846183001258D40ACB220
:101C40001D8CE643B6B235401D8409B1082909D17F
:101C500000EB6100056825F0700505600568154317
:101C600005600CE00D1FADB200EB6500056825F4C2
:101C7000E04505600568160645EA1645056070BD35
:101C800021B1028842F00202028004E002884FF68D
:101C9000FD731A400280704721B1028842F00402AD
:101CA000028004E002884FF6FB731A4002807047FE
:101CB00021B1828842F08002828004E082884FF65F
:101CC0007F731A408280704702884FF6F7731A407C
:101CD000028002880A430280704782884FF68F7321
:101CE0001A40828082880A438280704702894FF6B8
:101CF000F8731A40028102890A43028170470289FF
:101D00004FF67F731A40028102890A4302817047AD
:101D1000818470478185704781867047018770474D
:101D200081877047A0F84010704702884FF6FF4344
:101D30001A40028002880A43028070470146888E5A
:101D400070470146088F70470146888F70470146EB
:101D5000B1F8400070470146888C70470146088DF5
:101D6000704702460020138A0B4201D0012000E098
:101D700000207047CA430282704730B502460020F7
:101D800000230024158A05EA0103958905EA010468
:101D900013B10CB1012000E0002030BDCA43028223
:101DA00070470000FEF77EFA00F0A4FE00F09BFAF8
:101DB00001F038FB01F036F901F014FA01F0B8FB3C
:101DC00040F21F5000F05BFB40F21F5000F0A7FAFA
:101DD0004FF6FF7000F0A0FA0A2000F083FE15A174
:101DE000302000F028FB00214FF47F4001F031F952
:101DF000164801681648006801F0BAFB1021154822
:101E0000FEF7DDFB20211348FEF7D7FB11E001F0C0
:101E10006CFB00F0B0FE00F025FF01F0B9F90E48B0
:101E2000007801F034F90D48007801F074FA01F0FF
:101E300004FCECE7202043757272656E7420506CD0
:101E40006174666F726D2020000000007000002039
:101E50006C000020000801404D00002058000020C8
:101E6000002109E0002201E0531C9AB240F6B83389
:101E70009A42F9DB4B1C99B28142F3DB70474FF475
:101E80000072FF4B1A604FF48072FE4BC3F8142CA3
:101E90004FF02002C3F8102CFB4AD0604FF0200214
:101EA000F74B1A60A3F104031A604FF48072F54BEC
:101EB000C3F8102CF44AD1604FF02002F04B1A60A6
:101EC000A3F104031A604FF480721A60704700B5E2
:101ED00001210020FFF7D3FF4FF47A70FFF7C0FF16
:101EE00000210120FFF7CBFF41F290711020FFF796
:101EF000C6FF4FF41C516020FFF7C1FF0121612094
:101F0000FFF7BDFF02214620FFF7B9FF48F210019D
:101F10001320FFF7B4FF48F2FE011220FFF7AFFFD6
:101F20004FF4A0610220FFF7AAFF41F23001032025
:101F3000FFF7A5FF40F203313020FFF7A0FF40F28A
:101F400003313120FFF79BFF40F203313220FFF7CE
:101F500096FF4FF440713320FFF791FF03213420A7
:101F6000FFF78DFF40F203313520FFF788FF142182
:101F70003620FFF784FF40F203313720FFF77FFF61
:101F800040F203313820FFF77AFF40F20331392065
:101F9000FFF775FF4FF440713A20FFF770FF032100
:101FA0003B20FFF76CFF40F203313C20FFF767FF57
:101FB0004FF4A0513D20FFF762FF4FF400719220D3
:101FC000FFF75DFF40F203319320FFF758FF40F623
:101FD0000D019020FFF753FF41F218010320FFF796
:101FE0004EFF40F273110720FFF749FF00BD00B517
:101FF00043F20801E320FFF742FF1221E720FFF739
:102000003EFF41F23121EF20FFF739FF002101208F
:10201000FFF735FF4FF4E0610220FFF730FF41F298
:1020200030010320FFF72BFF00210420FFF727FFDB
:1020300040F207210820FFF722FF00210920FFF7C7
:102040001EFF00210A20FFF71AFF00210C20FFF7D6
:1020500016FF00210D20FFF712FF00210F20FFF7D0
:102060000EFF00211020FFF70AFF07211120FFF7C4
:1020700006FF00211220FFF702FF00211320FFF7C7
:10208000FEFE4FF47A70FFF7EBFE41F290611020F4
:10209000FFF7F5FE40F227211120FFF7F0FE322076
:1020A000FFF7DEFE1D211220FFF7E9FE3220FFF7C9
:1020B000D7FE4FF400611320FFF7E1FE1421292021
:1020C000FFF7DDFE0B212B20FFF7D9FE3220FFF7B3
:1020D000C7FE00212020FFF7D2FE00212120FFF7BC
:1020E000CEFE07213020FFF7CAFE40F207713120F3
:1020F000FFF7C5FE06213220FFF7C1FE40F2047152
:102100003520FFF7BCFE41F604713620FFF7B7FE1D
:1021100004213720FFF7B3FE00213820FFF7AFFE80
:1021200040F206713920FFF7AAFE40F201713C200F
:10213000FFF7A5FE0F213D20FFF7A1FE0021502053
:10214000FFF79DFEEF215120FFF799FE002152205D
:10215000FFF795FE40F23F115320FFF790FE4FF43A
:102160001C516020FFF78BFE01216120FFF787FEE5
:1021700000216A20FFF783FE00218020FFF77FFE09
:1021800000218120FFF77BFE00218220FFF777FEF0
:1021900000218320FFF773FE00218420FFF76FFEEC
:1021A00000218520FFF76BFE10219020FFF767FECE
:1021B00000219220FFF763FE03219320FFF75FFECB
:1021C0004FF488719520FFF75AFE00219720FFF702
:1021D00056FE00219820FFF752FE41F2180103201D
:1021E000FFF74DFE40F273110720FFF748FE00BDD8
:1021F00008B54FF6FF70ADF8000003208DF802001F
:1022000010208DF8030069461F48FEF72BF908BD22
:1022100008B54FF6FF70ADF8000003208DF80200FE
:1022200048208DF8030069461748FEF71BF908BDE2
:1022300070B504464FF40070114908604FF4807087
:102240001049C1F8140C4FF02000C1F8100C0E48D2
:10225000C4604FF020000A490860A1F10401086041
:102260004FF480700860FFF7D3FF4FF4806005499A
:10227000C1F8140C0448806885B20815034907E0CA
:10228000140C01400000014000100140100C0140FE
:102290000860FFF7ADFF4FF40070FF490860284663
:1022A00070BD08B501211820FEF78FFB0121202009
:1022B000FEF78BFB4FF4E460ADF8000001208DF8D1
:1022C000020010208DF803006946F3481038FEF72D
:1022D000C9F8FFF78DFFF048006840F4C460EF498B
:1022E000C1F8100C08BD10B5FFF7DBFF0020FFF7A9
:1022F0009FFFEB49088008460088A0F5024130396D
:1023000002D1FFF7E4FD01E0FFF771FE0020FFF7C7
:102310008FFFE349088010BDE24908807047E24919
:102320000880704730B504460D4621462020FFF74F
:10233000A6FD29462120FFF7A2FD30BD4FF4007114
:10234000DA4A11604FF48071D44AC2F8101C4FF081
:102350002001C2F8101CD649C8604FF02001D34AB2
:102360001160CD4A11604FF4807111604FF400711B
:10237000116070474FF40070CC4908604FF48070D2
:10238000C649C1F8140C4FF02000C34908604FF053
:102390002200C749C8604FF02000C4490860BE4908
:1023A00008604FF4807008604FF400700860704758
:1023B0002DE9F04306468946174600240025A0462D
:1023C000B04649464046FFF7ADFF00BF1EE0FFF7AD
:1023D000D1FF00250FE037F814000121A940084281
:1023E00004D1B1480088FFF7A9FF03E0AD48008899
:1023F000FFF7A4FF6D1C102DEDD308F1010000F0D4
:10240000FF0849464046FFF78DFF641C182CDED3B9
:10241000BDE8F08370B505460E461446A4F12000D1
:10242000C4B204EB4400A34901EB00123146284634
:10243000FFF7BEFF70BD2DE9F04107460C460025B1
:1024400040F23F1609E0227831463846FFF7E2FFB6
:10245000A6F1100086B2641C6D1C207808B1142D02
:10246000F1D34FF47F419248FEF7A7F8BDE8F08121
:1024700010B5044690A12046FFF7DDFF10BD30B532
:102480000546002400210846FFF74CFFFFF772FFC6
:1024900000BF03E02846FFF751FF641CB4F5963FE8
:1024A000F8D330BDF0B504460D4616461F46B4427B
:1024B00006DBA01B401C81B25020FFF7E0FC03E0CC
:1024C00000215020FFF7DBFC21465120FFF7D7FC0D
:1024D000BD4206DBE81B401C81B25220FFF7CFFC57
:1024E00003E000215220FFF7CAFC29465320FFF7E2
:1024F000C6FC29462046FFF715FFF0BD00B54FF496
:10250000A073F022591EEF20FFF7CCFF41F2180113
:102510000320FFF7B4FC00BD2DE9F04106468846D4
:1025200015461F46002441463046FFF7FBFE5FB9C3
:10253000FFF720FF00BF04E05A480088FFF7FEFEC7
:10254000641CAC42F8D310E000240CE0FFF712FF4B
:1025500054480088FFF7F2FE701CC6B24146304670
:10256000FFF7E0FE641CAC42F0D3BDE8F081F0B5AB
:1025700005460E4617461C4600232246314628468D
:10258000FFF7CAFFE919C8B2002322463146FFF718
:10259000C3FF01233A4631462846FFF7BDFF301BF3
:1025A000401C81B201233A462846FFF7B5FFF0BD33
:1025B0002DE9F04306460F4690460320A0EB48095C
:1025C000002445468BE07A1991B23219D0B2FFF758
:1025D000A9FEFFF7CFFE33480088FFF7AFFE7A1B56
:1025E00091B23219D0B2FFF79DFEFFF7C3FE2D481E
:1025F0000088FFF7A3FE7A1991B2321BD0B2FFF721
:1026000091FEFFF7B7FE27480088FFF797FE7A1B79
:1026100091B2321BD0B2FFF785FEFFF7ABFE214827
:102620000088FFF78BFE3A1991B27219D0B2FFF70A
:1026300079FEFFF79FFE1B480088FFF77FFE3A1BDD
:1026400091B27219D0B2FFF76DFEFFF793FE1548F5
:102650000088FFF773FE3A1991B2721BD0B2FFF7F0
:1026600061FEFFF787FE0F480088FFF767FE3A1B01
:1026700091B2721BD0B2FFF755FEFFF77BFE0948FF
:102680000088FFF75BFEB9F1000F21DA062000EBAE
:102690008400814422E00000100C01400000014051
:1026A0002C000020280000202A000020140C0140EB
:1026B00000100140D83B00082020202020202020AE
:1026C000202020202020202020202020000000008A
:1026D000601B0A2101EB800081446D1E641CAC422A
:1026E0007FF671AFBDE8F08370B506460024002583
:1026F00040F23F110020FFF715FEFFF73BFE00BF41
:1027000014E000250FE056F824000121A9400842FA
:1027100004D163480088FFF711FE03E06148008898
:10272000FFF70CFE6D1C202DEDD3641CB4F5166F65
:10273000E7D370BD70B50446002500266688A088E2
:1027400046EA00466589A08945EA0045701B4608AF
:102750002C4441F208010320FFF791FBFFF70AFE2A
:10276000002504E02088FFF7E9FDA41C6D1CB5429C
:10277000F8D341F218010320FFF781FB70BD10B5BB
:102780004FF40070484908604FF480704749C1F821
:10279000140C4FF02000464908604FF022004549D4
:1027A000C8604FF0200040490860414908604FF47C
:1027B00080700860FFF72CFD4FF480603B49C1F842
:1027C000140C3C48806884B2081539490860FFF74A
:1027D0000FFD4FF4007036490860204610BD00B56B
:1027E00000211020FFF74BFB00211120FFF747FBD2
:1027F00000211220FFF743FB00211320FFF73FFBCE
:102800001420FFF72DFB41F2B0711020FFF737FBCA
:1028100040F237111120FFF732FB0520FFF720FBB4
:1028200040F239111220FFF72AFB0520FFF718FBB1
:102830004FF4E8511320FFF722FB13212920FFF763
:102840001EFB0520FFF70CFB40F273110720FFF77A
:1028500016FB00BD00B540F273110720FFF70FFB18
:1028600000BD00B500210720FFF709FB00BD30B512
:10287000054600210846FFF755FDFFF77BFD0024C4
:1028800009E015F814206100491C695C42EA012046
:10289000FFF754FD641CB4F5963FF2DB30BD000039
:1028A0002A00002028000020140C014000000140F4
:1028B000100C01400010014010B578480068401C21
:1028C0007649086076480068401E7549086073487C
:1028D0000068B0F57A7F02D3002070490860714823
:1028E000007801280BD100F0F9FC40B100F0F6FCB3
:1028F0006D490978884202D001206C4908706C4803
:10290000006898B16A480068401E694908600DD1A6
:102910006848007864490870012067490870674971
:1029200008706748007808B900F039F95F48007806
:10293000012812D163480068401C62490860B0F564
:102940007A7F0AD30020594908705E4908605549CA
:10295000087020215C48FDF732FE5C480068401E8C
:102960005A49086009D120215748FDF728FE5848E8
:102970005849086000204B49087010BD10B501206F
:10298000FEF786F9012815D1FEF793F90120524987
:1029900008605248007801280CD049480078012886
:1029A00008D100F09BFC40490978884202D0012000
:1029B0003C49087010BD10B54FF48070FEF768F9FF
:1029C000012816D10002FEF774F90120424908607F
:1029D0004248007801280CD039480078012808D1F5
:1029E00000F07CFC30490978884202D001202D4952
:1029F000087010BD10B50220FEF74AF9012816D163
:102A00000220FEF756F90120334908603348007868
:102A100001280CD02A480078012808D100F05EFC7B
:102A200021490978884202D001201E49087010BD52
:102A300010B50420FEF72CF9012816D10420FEF76A
:102A400038F90120244908602448007801280CD076
:102A50001B480078012808D100F040FC1249097891
:102A6000884202D001200F49087010BD10B5012026
:102A7000FEF7C0F988B10120FEF7CDF9FEF78EF917
:102A8000012015490860FEF74BF91549884204D129
:102A90000020FEF74EF9FEF781F910BD500000202E
:102AA000300000205D00002037000020580000208A
:102AB0003C000020340000203900002035000020B8
:102AC0003600002060000020000801404000002087
:102AD0000080794370000020480000204D00002055
:102AE0007F510100FF49086000BFFE4909680029C5
:102AF000FBD1704710B501210420FDF766FF0121CD
:102B00000820FDF762FF01211020FDF75EFF012183
:102B10002020FDF75AFF01210846FDF756FFF24934
:102B200009684FF47A72B1FBF2F0B0F1807F00D304
:102B30001CE020F07F41491E4FF0E022516100BFB0
:102B40005117002905DA0F210901E84A0B23D15456
:102B500004E00F210901E64A5317D15400BF0021B8
:102B60004FF0E02291610721116100BF4FF44070E6
:102B7000FDF796FF10BD10B5DE480078012803D19F
:102B8000DD480078DD490870DC480278DCA1E048C7
:102B900000F086FDDE497820FFF74DFC10BD10B532
:102BA0000120DC4908600020DB490870DB48006830
:102BB000401CDA4908600846006840F24D11B0FB3D
:102BC000F1F00A21B0FBF1F201FB120030B1012853
:102BD0000BD002280DD0032816D111E00020C549E2
:102BE00008702020C54908703AE00120C1490870EA
:102BF00036E00020BF4908702020C04908702FE04F
:102C00000120BC4908702BE00020C2490860C3497C
:102C100008600120C24908702021C248FDF7CDFCA0
:102C2000C148C24908600120C1490870C148007804
:102C300001280BD0C0480078012807D0BF48007891
:102C4000012803D0BE480078012804D14FF4FA606F
:102C5000BC49086003E04FF47A60BA49086000BFDD
:102C600000BF10BD10B5AE480078F0BBA248007898
:102C7000312806D0322849D033287CD034287BD163
:102C80000CE1AD480078012807D0AC480078012855
:102C900003D0AB480078012837D1A5480078012837
:102CA00033D1A948007801282FD19D48007860BB16
:102CB00041F2707097490860012097490870002020
:102CC000A2490870A248A349086010219548FDF761
:102CD00074FCA1480078A149087000209A49087046
:102CE0009548007868B9954800E063E100780128CC
:102CF00003D093480078012803D101208C49087043
:102D000002E000208A49087053E100BF8B48007838
:102D1000012803D08A480078012832D184480078FD
:102D200001282ED18848007801282AD17C480078D3
:102D300038BB41F27070774908600120764908700D
:102D40000020824908708248824908601021754835
:102D5000FDF733FC824800788049087000207A49EA
:102D600008707648007840B975480078012804D189
:102D70006F49087004E02EE01AE100206C490870E9
:102D800017E16C480078012824D1694800780128AF
:102D900020D16D48007801281CD161480078C8B95D
:102DA00041F270705B49086001205B490870674917
:102DB00008706C486749086010215A48FDF7FFFB0E
:102DC000694800786549087000205F4908705849D3
:102DD0000870EEE000BF5A480078012825D1544819
:102DE0000078012821D15848007801281DD14C488D
:102DF0000078D0B941F27070464908600120464918
:102E0000087000205149087051485249086010214B
:102E10004448FDF7D2FB554800785049087000201F
:102E20004949087042490870C3E0424800780128C7
:102E300003D04148007801282FD13D48007801286F
:102E40002BD141480078012827D13548007820BB94
:102E500041F270702F49086001202F4908703B49EA
:102E6000087040483B49086010212E48FDF7A7FB39
:102E700039480078394908700020334908702E48D5
:102E8000007830B92B480078012802D12849087011
:102E900002E00020264908708BE000BF254800783A
:102EA000012807D024480078012803D0234800785F
:102EB00001287CD11E480078012878D1224800786A
:102EC000012874D11648007858B941F27070114940
:102ED00008600120104908701C49087021481D49EC
:102EE00046E064E0300000200000002018ED00E023
:102EF00000E400E039000020370000203800002006
:102F000020202020202020202020256300000000F9
:102F1000740000203C0000204D00002044000020F0
:102F20005D0000200008014033B39543700000208D
:102F300036000020540000205500002056000020DC
:102F40005700002040000020350000204C000020E9
:102F5000CDCC47446C0000205A00002034000020F3
:102F60005B0000209AD91544590000205C00002025
:102F7000086010212048FDF722FB204800782049F6
:102F8000087000201F4908701F48007858B91F4872
:102F90000078012803D01E480078012803D10120C1
:102FA0001C49087002E000201A49087001E000BFC7
:102FB00000BF00BF18480078E0B9184800783128F1
:102FC00006D0322808D033280AD0342810D10BE09C
:102FD00000200E4908700CE000200D49087008E040
:102FE00000200949087004E000200D49087000E045
:102FF00000BF00BF10BD0000000801405B000020C2
:10300000340000203500002056000020540000202D
:1030100055000020360000204D0000203700002021
:103020005700002008B54FF47F40ADF80000102095
:103030008DF8030003208DF8020069466148FDF712
:1030400011FA0420ADF8000069465F48FDF70AFA5E
:1030500008BD70B504460D4665B921465948FDF7CF
:10306000ACFA04215848FDF7A8FA04215648FDF7A8
:10307000A6FA0BE021465348FDF7A1FA0421524875
:10308000FDF79BFA04215048FDF799FA70BD10B581
:10309000044694B34D48007880BB4D480068FA213F
:1030A000B0FBF1F00A21B0FBF1F201FB120030B1EC
:1030B00001280ED0022816D003282AD11FE00021B3
:1030C0004FF40040FFF7C5FF01210803FFF7C1FFE0
:1030D00020E000214FF48050FFF7BBFF012148039F
:1030E000FFF7B7FF16E000214FF40050FFF7B1FFE4
:1030F00001218803FFF7ADFF0CE048E00BE0002161
:103100004FF48040FFF7A5FF0121C803FFF7A1FF9F
:1031100000E000BF3BE02E480068FA21B0FBF1F070
:103120000A21B0FBF1F201FB120030B101280ED0F0
:10313000022816D0032828D11DE000214FF480502A
:10314000FFF787FF0121C803FFF783FF1EE000217F
:103150004FF40040FFF77DFF01218803FFF779FF5F
:1031600014E000214FF48040FFF773FF0121480372
:10317000FFF76FFF0AE000214FF40050FFF769FFEF
:1031800001210803FFF765FF00E000BF00BF10BD8D
:1031900010B5104801784FF48070FFF75AFF0E48C1
:1031A00001784FF40070FFF754FF0C4801784FF49A
:1031B0008060FFF74EFF0A4801784FF40060FFF788
:1031C00048FF10BD00100140001401404C000020D9
:1031D0005000002054000020550000205600002020
:1031E000570000201FB540F20110ADF80C0001207F
:1031F0008DF80E0048208DF80F0003A97D48FDF7DB
:1032000031F90620ADF80C0001208DF80E004820A1
:103210008DF80F0003A97848FDF724F940F2071054
:10322000FDF747FD00210846FDF730FA0121084669
:10323000FDF72CFA02210120FDF728FA08210020D1
:10324000FDF724FA40F20710019000208DF80800E5
:103250000C208DF8090001208DF80A0001A8FDF767
:10326000AAFC06208DF8000002208DF80100002045
:103270008DF8020001208DF803006846FDF715FC6B
:1032800007208DF8000002208DF8010000208DF845
:10329000020001208DF803006846FDF706FC0820B7
:1032A0008DF8000002208DF8010000208DF802004A
:1032B00001208DF803006846FDF7F7FB17208DF815
:1032C000000002208DF8010000208DF8020001208E
:1032D0008DF803006846FDF7E8FB1FBD10B500241C
:1032E00001214448FDF74FF900B931244FF48071B2
:1032F0004048FDF748F900B9322402213E48FDF765
:1033000042F900B9332404213B48FDF73CF900B9E8
:103310003424204610BD10B50446012C69D1FFF7B6
:10332000DDFF312806D032281BD0332831D0342895
:103330005DD145E00A20FFF7D5FB00202F4908604A
:103340002F4800782F490978884202D001202E4961
:10335000087000BF01212748FDF715F90028F9D0B2
:1033600046E00A20FFF7BEFB0020244908602448FD
:10337000007826490978884202D001202449087043
:1033800000BF4FF480711B48FDF7FDF80028F8D00E
:103390002EE00A20FFF7A6FB002018490860184815
:1033A00000781C490978884202D001201A49087027
:1033B00000BF02211048FDF7E6F80028F9D017E019
:1033C0000A20FFF78FFB00200C4908600C480078AA
:1033D00012490978884202D001201149087000BFC3
:1033E00004210548FDF7CFF80028F9D000E000BF20
:1033F00000BF10BD00080140000C0140600000202B
:103400003700002059000020540000205A000020FE
:10341000550000205B000020560000205C000020CA
:103420005700002008B503208DF8000000208DF81B
:1034300001008DF8020001208DF803006846FDF7B9
:1034400034FB01214FF0C050FDF7CCFA0120FDF70D
:103450006AFDFDF7FBFC0120FDF73EFA00BF61208D
:10346000FDF78FF90028FAD04FF40070FDF737FA16
:103470000120FDF73AFAFDF798FCFDF78FFC0121DA
:103480000846FDF727FCFDF789FC49F64040FDF7AB
:103490005DFCFDF783FC4BF2AF40FDF74AFCFDF706
:1034A0007DFC08BDF8B504460025002600274FF432
:1034B0006160B4FBF0F5B4FBF0F100FB11403C217E
:1034C000B0FBF1F64FF46160B4FBF0F100FB11408A
:1034D0003C21B0FBF1F201FB120733462A460CA156
:1034E0001148009700F0DCF8F8BD10B50F480068EF
:1034F00001280BD100200D490860FDF711FC04469E
:10350000FFF7D0FF0849C020FEF795FF10BD00006F
:1035100020202020202025302E32643A25302E32E3
:10352000643A25302E3264008800002048000020D4
:1035300008B53020ADF8000010208DF803000320FE
:103540008DF8020069464C48FCF78CFFC020ADF8AE
:10355000000018208DF8030003208DF80200694652
:103560004548FCF77FFF01214448FDF74AF808BDB4
:1035700030B587B005460C460121C802FDF725FA93
:1035800001210220FDF72EFA0020ADF81000ADF861
:103590001800ADF812003A48059004A93948FDF723
:1035A000F7FD012247213748FEF7DDF9364805903F
:1035B00004A93648FDF7ECFD012247213348FEF708
:1035C000D2F97020ADF800000120ADF8020004200F
:1035D000ADF804000220ADF808000020ADF80A00A4
:1035E0004FF48070ADF80C000020ADF80E002846B6
:1035F00000F086FA80B2ADF8060069462148FDF772
:1036000009FE204600F07CFA80B2ADF8060069465B
:103610001E48FDF7FFFD01211A48FEF7ECF80121D5
:103620001848FEF7F4F801211848FEF7E4F80121E4
:103630001648FEF7ECF807B030BD10B51448016825
:103640001448006800F028FA06D1134801681348AE
:10365000006800F021FA0DD00D4800680D4908609F
:103660000D4800680D49086008460168094800686F
:10367000FFF77EFF10BD000000080140400016006B
:1036800000C07944000400400080F943002C014050
:103690006C00002064000020700000206800002002
:1036A0000FB41CB5074B06AA7B44694600900598E9
:1036B00000F073F90020694600F082F91CBC5DF847
:1036C00014FB00001503000070B505460C46012AE6
:1036D00005D02868800600D5EA69002302E00123AE
:1036E00005E05B1C934202D2E05C0028F9D1A86996
:1036F000E618C01AA861286A184428622846AFF361
:10370000008004E0D5E9012114F8010B9047B44290
:10371000F8D32846AFF3008070BD00002DE9F041DA
:103720008046002610687529414615A512D0AFF3D2
:103730000080002803DAC0F1000012A508E0D8F8E4
:1037400000108A0701D510A502E0490704D50FA58E
:10375000012601E0AFF30080002408F1240704E013
:1037600000F049F930313955641C0028F8D133464E
:103770002A4621464046BDE8F04100F0AEB80000C0
:10378000000000002D0000002B00000020000000C1
:103790002DE9F05F4FF0000B044689464FF0010A17
:1037A000C0F820B02046E168884798B3252806D0A5
:1037B000D4E901219047206A401C2062F2E7444F7F
:1037C00000267F442046E16888472028054608DB1C
:1037D000312D06D207EB050010F8200C08B1064386
:1037E000F0E7B00701D526F00406C4F81CB00027A6
:1037F000C4F818B02A2D0ED05246A5F130010A297E
:103800002ED2BAF1000F2BD0924604EB8708C8F8ED
:1038100018101AE059E059F8041B204604EB8702FF
:103820009161E1688847012F05461BD1E0690028B6
:1038300023DA26F0200620E0D8F8180000EB8000FC
:1038400005EB40003038C8F818002046E16888478A
:10385000A0F1300105460A2902D2BAF1000FEBD1DE
:10386000012F0AD02E2D08D12046E16888477F1C01
:103870000546022F46F02006BCDBA069002803DACB
:10388000404246F00106A061F00701D026F0100684
:10389000DDB1A5F14100192802D8203546F40066B3
:1038A0004A462946204626604E46FCF759FC50B150
:1038B000012805D0F61D26F0070000F1080971E780
:1038C00006F104096EE7284672E7206ABDE8F09F1A
:1038D000E21500007047704770472DE9F0470D462C
:1038E00004469246994600F124080168880604D5EA
:1038F000E06921F01001216000E001200027A842CA
:1039000001DDA0EB0507A16907EB050202EB03004F
:10391000A1EB0000A0612068C00602D42046AFF3EE
:103920000080002608E0D4E901211AF8060090473B
:10393000206A401C761C20624E45F4DB2068C006DD
:103940000AD52046AFF3008006E0D4E901213020FB
:103950009047206A401C2062381EA7F10107F4DC62
:1039600007E0D4E9012118F805009047206A401CBF
:103970002062281EA5F10105F3DC2046AFF300808C
:1039800021680220090600D40120BDE8F08700006C
:1039900001694A1C02610878704700B58FB0CDE913
:1039A00001310021059105497944CDE90310114603
:1039B0006846FFF7EDFE0FB000BD0000E5FFFFFF1A
:1039C0000A6802F8010B0A60704710B5436913B129
:1039D000AFF3008001E0FFF777FE012010BD126811
:1039E00000F124010A7000224A700122EDE71168FB
:1039F0004FF0FF32E9E74FF00A01B0FBF1F202FBB2
:103A0000110110467047754600F028F8AE460500D3
:103A10006946534620F00700854618B020B5FCF7EC
:103A2000CBFBBDE820404FF000064FF000074FF001
:103A300000084FF0000B21F00701AC46ACE8C009CC
:103A4000ACE8C009ACE8C009ACE8C0098D467047D5
:103A50000446AFF300802046FCF799FB004870470E
:103A60009C00002001487047704700BFA000002064
:103A700001491820ABBEFEE7260002007047401047
:103A800058BFC0F14040491058BFC1F14041814288
:103A9000EFF300807047000050EA010C00F1138042
:103AA0001CF5000F58BFBCF5000F01D488427047C9
:103AB00007D710F5000F58BF11F5000F15D4884235
:103AC0007047894270471CF5000F04D5BCF5000F04
:103AD000F7D5814270474FF0807C1CEB400F38BF18
:103AE0001CEB410F01D28142704710B500F027F85E
:103AF000922449004FF000504FF08051FFF7BFBFB4
:103B0000C10DD1F19E0206DB4FEA002343F00043D2
:103B100023FA02F07047004207D54FEA4001B1F1A5
:103B2000FE4F02D24FF00000704710B500F007F8CA
:103B300049922480002070476FEA200070470EF100
:103B4000020E2EF0030E5EF8044B244204D44FEA1A
:103B50004102B2F17F4F11D84FEA4003B3F17F4FDA
:103B60000CD80ED14FEAD07CB2F17F4F0CEB4C0C4D
:103B70000CF1020C08BF4CEBD17C04E04FF0080CB8
:103B800001E04FEAD17C0CEB4C0324FA03F404F07F
:103B90000704B4F1040C06D20EEB840CBDE810400F
:103BA0004CF0010C6047DFE80CF0070802024FF010
:103BB0000040A0F5800010BD0846420018BFD2F1B9
:103BC000807288BF00F0004010BD10B5FFF74AFFBB
:103BD0004FF00001016010BD000000000000000077
:103BE00000000000000000000000000000000000D5
:103BF00000000000000000000000000000000000C5
:103C00000000000000000000000080018001800131
:103C1000800180018001800180018001800180019C
:103C20008001800100000000800180010000000090
:103C3000000000000000000000000000CC00CC00EC
:103C4000CC00CC00CC00CC00000000000000000044
:103C50000000000000000000000000000000000064
:103C60000000000000000000000000000000000054
:103C700000000000600C600C600C30063006FE1F77
:103C8000FE1F300638071803FE1FFE1F1803180317
:103C90008C018C018C01000000008000E003F80F13
:103CA0009C0E8C1C8C188C009800F801E007800E8C
:103CB000801C8C188C189C18B80CF00FE003800046
:103CC00080000000000000000000000000000E184E
:103CD0001B0C110C11061106110311039B018E011F
:103CE000C038C06C60446044304430441844186CA0
:103CF0000C380000000000000000E001F00338076D
:103D0000180618063003F001F000F8009C310E335D
:103D1000061E061C061C063FFC73F0210000000076
:103D20000000000000000000000000000C000C007B
:103D30000C000C000C000C00000000000000000053
:103D40000000000000000000000000000000000073
:103D500000000000000000000000000200038001DD
:103D6000C000C00060006000300030003000300053
:103D7000300030003000300060006000C000C00043
:103D80008001000300020000000020006000C0006D
:103D90008001800100030003000600060006000603
:103DA00000060006000600060003000380018001F3
:103DB000C0006000200000000000000000000000C3
:103DC00000000000C000C000D806F807E001300382
:103DD00038070000000000000000000000000000A4
:103DE00000000000000000000000000000000000D3
:103DF0000000000080018001800180018001FC3F03
:103E0000FC3F8001800180018001800100000000F2
:103E100000000000000000000000000000000000A2
:103E20000000000000000000000000000000000092
:103E3000000000000000000000008001800100017F
:103E400000018000000000000000000000000000F1
:103E50000000000000000000000000000000000062
:103E6000E007E00700000000000000000000000084
:103E70000000000000000000000000000000000042
:103E80000000000000000000000000000000000032
:103E900000000000000000000000C000C0000000A2
:103EA00000000000000000000000000C000C0006F4
:103EB0000006000600030003000380038001800168
:103EC0008001C000C000C000600060000000000071
:103ED00000000000000000000000E003F007380EC2
:103EE000180C0C180C180C180C180C180C180C18B2
:103EF0000C180C18180C380EF007E0030000000036
:103F00000000000000000000000000018001C0016E
:103F1000F001980188018001800180018001800109
:103F2000800180018001800180018001000000008B
:103F300000000000000000000000E003F80F180C73
:103F40000C180C1800180018000C00060003800163
:103F5000C000600030001800FC1FFC1F00000000C3
:103F600000000000000000000000E001F807180E4B
:103F70000C0C0C0C000C0006C003C007000C001851
:103F800000180C180C18180CF807E00300000000CB
:103F900000000000000000000000000C000E000FF8
:103FA000000F800DC00C600C600C300C180C0C0C59
:103FB000FC3FFC3F000C000C000C000C000000005B
:103FC00000000000000000000000F80FF80F1800CB
:103FD00018000C00EC03FC071C0E001C0018001855
:103FE00000180C181C0C180EF807E0030000000065
:103FF00000000000000000000000C007F00F381CA7
:10400000181818000C00CC03EC0F3C0E1C1C0C18EC
:104010000C180C18181C380EF007E0030000000004
:1040200000000000000000000000FC1FFC1F000C4E
:1040300000060006000380038001C001C000E0000C
:1040400060006000700030003000300000000000B0
:1040500000000000000000000000E003F007380E40
:10406000180C180C180C3806F007F007180C0C1870
:104070000C180C180C18380CF80FE00300000000A6
:1040800000000000000000000000E003F007380E10
:104090001C0C0C180C180C181C1C381EF81BE019F2
:1040A0000018000C000C1C0EF807F00100000000C6
:1040B0000000000000000000000000000000000000
:1040C00000000000800180010000000000000000EE
:1040D00000000000000000008001800100000000DE
:1040E00000000000000000000000000000000000D0
:1040F00000000000800180010000000000000000BE
:1041000000000000000000008001800100010001AB
:10411000800000000000000000000000000000001F
:1041200000000000000000000010001C800FE003F1
:10413000F8001800F800E003800F001C00100000D9
:10414000000000000000000000000000000000006F
:104150000000000000000000F81F00000000000048
:10416000F81F000000000000000000000000000038
:10417000000000000000000000000000000000003F
:10418000000000000000000008003800F001C00737
:10419000001F0018001FC007F001380008000000D1
:1041A00000000000000000000000E003F80F180C01
:1041B0000C180C180018000C000600038001C00049
:1041C000C000C00000000000C000C00000000000EF
:1041D000000000000000000000000000E0071818C8
:1041E0000420C229224A11440944094409440922ED
:1041F0001113E20C024004201818E0070000000030
:104200000000000000000000000080038003C006E2
:10421000C006C006600C600C301830183018F83F2B
:10422000F83F1C700C600C6006C006C00000000067
:1042300000000000000000000000FC03FC0F0C0C5C
:104240000C180C180C180C0CFC07FC0F0C180C307C
:104250000C300C300C300C18FC1FFC070000000068
:1042600000000000000000000000C007F01F383808
:104270001C300C70066006000600060006000600F2
:10428000060006600C701C30F01FE0070000000004
:1042900000000000000000000000FE03FE0F060EFC
:1042A000061806180630063006300630063006308E
:1042B000063006180618060EFE0FFE03000000006A
:1042C00000000000000000000000FC3FFC3F0C006C
:1042D0000C000C000C000C00FC1FFC1F0C000C0060
:1042E0000C000C000C000C00FC3FFC3F0000000028
:1042F00000000000000000000000F83FF83F180038
:104300001800180018001800F81FF81F18001800EF
:10431000180018001800180018001800000000000D
:1043200000000000000000000000E00FF83F3C78B3
:104330000E6006E007C00300030003FE03FE03C097
:1043400007C006C00EC03CF0F83FE00F00000000C0
:10435000000000000000000000000C300C300C30A9
:104360000C300C300C300C30FC3FFC3F0C300C306F
:104370000C300C300C300C300C300C3000000000D5
:1043800000000000000000000000800180018001AA
:104390008001800180018001800180018001800115
:1043A0008001800180018001800180010000000007
:1043B00000000000000000000000000600060006EB
:1043C00000060006000600060006000600060006BD
:1043D0000006180618063807F003E0010000000088
:1043E0000000000000000000000006300618060C67
:1043F000060606038601C60066007600DE008E0112
:1044000006030606060C06180630066000000000CB
:104410000000000000000000000018001800180054
:1044200018001800180018001800180018001800CC
:104430001800180018001800F81FF81F00000000EE
:10444000000000000000000000000EE01EF01EF062
:104450001EF036D836D836D836D866CC66CC66CC80
:10446000C6C6C6C6C6C6C6C686C386C3000000008A
:10447000000000000000000000000C301C303C3048
:104480003C306C306C30CC30CC308C310C330C3355
:104490000C360C360C3C0C3C0C380C300000000088
:1044A00000000000000000000000E007F81F1C38BA
:1044B0000E70066003C003C003C003C003C003C086
:1044C00003C006600E701C38F81FE00700000000F3
:1044D00000000000000000000000FC0FFC1F0C3872
:1044E0000C300C300C300C300C18FC1FFC070C008E
:1044F0000C000C000C000C000C000C000000000074
:1045000000000000000000000000E007F81F1C3859
:104510000E70066003E003C003C003C003C003C005
:1045200007E006630E3F1C3CF83FE0F700C00000C8
:1045300000000000000000000000FE0FFE1F063813
:104540000630063006300638FE1FFE070603060654
:10455000060C06180618063006300660000000003B
:1045600000000000000000000000E003F80F1C0C39
:104570000C180C180C001C00F803E00F001E00388B
:10458000063006300E301C1CF80FE007000000005B
:1045900000000000000000000000FE7FFE7F8001A0
:1045A0008001800180018001800180018001800103
:1045B00080018001800180018001800100000000F5
:1045C000000000000000000000000C300C300C3037
:1045D0000C300C300C300C300C300C300C300C30FB
:1045E0000C300C300C301818F81FE00700000000E9
:1045F00000000000000000000000036006300630EC
:1046000006300C180C180C18180C180C380E300644
:104610003006700760036003C001C00100000000A5
:10462000000000000000000000000360C361C361DF
:10463000C3616633663366336633663366336C1B39
:104640006C1B6C1B2C1A3C1E380E380E0000000030
:10465000000000000000000000000FE00C701830A7
:104660003018700C600EC00780038003C003E006A2
:10467000700C301C18180C300E6007E000000000B1
:104680000000000000000000000003C006600C30C5
:104690001C383818300C6006E007C0038001800128
:1046A0008001800180018001800180010000000004
:1046B00000000000000000000000FC7FFC7F0060A4
:1046C00000300018000C000600038001C0006000EC
:1046D000300018000C000600FE7FFE7F0000000086
:1046E00000000000000000000000E003E0036000A4
:1046F00060006000600060006000600060006000BA
:1047000060006000600060006000600060006000A9
:104710006000E003E00300000000300030006000B3
:1047200060006000C000C000C000C00180018001C6
:1047300080010003000300030006000600000000E3
:1047400000000000000000000000E003E0030003A0
:104750000003000300030003000300030003000341
:104760000003000300030003000300030003000331
:104770000003E003E003000000000000C001C001EE
:1047800060036003600330063006180C180C00004C
:104790000000000000000000000000000000000019
:1047A0000000000000000000000000000000000009
:1047B00000000000000000000000000000000000F9
:1047C00000000000000000000000FFFFFFFF0000ED
:1047D000000000000000000000000C000C000C00B5
:1047E0000C000C000C0000000000000000000000A5
:1047F00000000000000000000000000000000000B9
:1048000000000000000000000000000000000000A8
:1048100000000000F003F8071C0C0C0C000FF00F58
:10482000F80C0C0C0C0C1C0FF80FF018000000001A
:104830000000000000000000000018001800180030
:1048400018001800D803F80F380C18181818181882
:10485000181818181818380CF80FD80300000000A2
:104860000000000000000000000000000000000048
:1048700000000000C003F007300E180C18001800EC
:1048800018001800180C300EF007C00300000000DC
:1048900000000000000000000000001800180018D0
:1048A00000180018C01BF01F301C18181818181812
:1048B000181818181818301CF01FC01B0000000032
:1048C00000000000000000000000000000000000E8
:1048D00000000000C003F00F300C1818F81FF81F7C
:1048E000180018003818301CF00FC0070000000036
:1048F00000000000000000000000800FC00FC0009A
:10490000C000C000F007F007C000C000C000C00039
:10491000C000C000C000C000C000C0000000000017
:104920000000000000000000000000000000000087
:1049300000000000E00DF80F180E0C0C0C0C0C0C15
:104940000C0C0C0C0C0C180EF80FE00D000C0C0CE1
:104950001C06F807F00100000000180018001800FD
:1049600018001800D807F80F381C1818181818184D
:104970001818181818181818181818180000000017
:1049800000000000000000000000C000C0000000A7
:1049900000000000C000C000C000C000C000C00097
:1049A000C000C000C000C000C000C0000000000087
:1049B00000000000000000000000C000C000000077
:1049C00000000000C000C000C000C000C000C00067
:1049D000C000C000C000C000C000C000C000C000D7
:1049E000C000F8007800000000000C000C000C0073
:1049F0000C000C000C0C0C060C038C01CC006C00A1
:104A0000FC009C018C030C030C060C0C0000000045
:104A100000000000000000000000C000C000C00056
:104A2000C000C000C000C000C000C000C000C00086
:104A3000C000C000C000C000C000C00000000000F6
:104A40000000000000000000000000000000000066
:104A5000000000007C3CFF7EC7E383C183C183C1AB
:104A600083C183C183C183C183C183C100000000AE
:104A70000000000000000000000000000000000036
:104A8000000000009807F80F381C1818181818189C
:104A900018181818181818181818181800000000F6
:104AA0000000000000000000000000000000000006
:104AB00000000000C003F00F300C18181818181868
:104AC000181818181818300CF00FC0030000000058
:104AD00000000000000000000000000000000000D6
:104AE00000000000D803F80F380C18181818181810
:104AF000181818181818380CF80FD80318001800D0
:104B0000180018001800000000000000000000005D
:104B100000000000C01BF01F301C181818181818CF
:104B2000181818181818301CF01FC01B001800188F
:104B3000001800180018000000000000000000002D
:104B400000000000B007F0037000300030003000BB
:104B50003000300030003000300030000000000035
:104B60000000000000000000000000000000000045
:104B700000000000E003F003380E180C3800F003CA
:104B8000C007000C180C380EF007E003000000000E
:104B90000000000000000000000000008000C000D5
:104BA000C000C000F007F007C000C000C000C00097
:104BB000C000C000C000C000C007800700000000A7
:104BC00000000000000000000000000000000000E5
:104BD00000000000181818181818181818181818B5
:104BE000181818181818381CF01FE01900000000D9
:104BF00000000000000000000000000000000000B5
:104C0000000000000C18180C180C180C30063006A8
:104C10003006600360036003C001C00100000000B3
:104C20000000000000000000000000000000000084
:104C300000000000C141C141C361636363636363FA
:104C40003636363636361C1C1C1C1C1C0000000078
:104C50000000000000000000000000000000000054
:104C6000000000001C38381C300C60066003600334
:104C7000600360036006300C381C1C380000000024
:104C80000000000000000000000000000000000024
:104C9000000000001830301830187018600C600CDC
:104CA000E00CC006C0068003800380038001800101
:104CB000C001F000700000000000000000000000D3
:104CC00000000000FC1FFC1F000C00060003800118
:104CD000C000600030001800FC1FFC1F0000000036
:104CE0000000000000000000000000038001C00080
:104CF000C000C000C000C000C00060006000300004
:104D000060004000C000C000C000C000C000C00083
:104D1000800100030000000000008001800180018C
:104D2000800180018001800180018001800180017B
:104D3000800180018001800180018001800180016B
:104D4000800180018001000000006000C000C001FF
:104D500080018001800180018001000300030006C2
:104D60000003000180018001800180018001800139
:104D7000C000600000000000000000000000000013
:104D80000000000000000000F010F81F080F0000F5
:104D90000000000000000000000000000000000013
:104DA00000000000000000000400000800000000F7
:104DB000000000020001000010000000DC4D0008AF
:104DC000000000207400000028010008504E000878
:104DD000740000208C0600004401000800A24A0470
:104DE000000000000000000001020304060708099B
:104DF0000000000001020304010203040607080981
:104E0000020406080000FFFF000000000000000090
:104E1000310101312001000000000000000000000D
:104E20000000000001000000000000000000000081
:104E300000000000003132333401000000000000A7
:104E4000CDCC474400807943CDCC474400807943A2
:04000005080000ED02
:00000001FF
